:020000040800F2
:10000000085900201D0D00086D0B00086F0B00083B
:10001000710B0008730B0008750B0008000000004E
:100020000000000000000000000000009D0100082A
:10003000770B000800000000F1010008790B0008B0
:10004000370D0008370D0008370D0008370D000880
:10005000370D0008370D0008370D0008370D000870
:10006000370D0008370D0008370D0008370D000860
:10007000370D0008370D0008370D0008370D000850
:10008000370D0008370D0008370D0008370D000840
:10009000370D0008370D0008370D0008370D000830
:1000A000370D0008370D0008370D0008370D000820
:1000B000370D0008D32E0008370D0008370D000853
:1000C000370D0008370D0008370D0008370D000800
:1000D000370D0008692C0008370D0008370D00089F
:1000E000370D0008370D0008370D0008370D0008E0
:1000F000370D0008370D0008370D0008370D0008D0
:10010000370D0008370D0008FF2E0008370D0008D6
:10011000370D0008370D0008370D0008370D0008AF
:10012000370D0008370D0008370D0008370D00089F
:10013000370D0008370D0008370D0008370D00088F
:10014000370D0008370D0008370D0008370D00087F
:10015000370D0008370D0008370D0008370D00086F
:10016000370D0008370D0008370D0008370D00085F
:10017000370D0008370D0008370D0008370D00084F
:10018000370D0008370D0008DFF80CD007F02AF90A
:1001900000480047D1090008085900202A4B196877
:1001A0000868B0E8F04F80F30988BFF36F8F4FF015
:1001B000000080F3118870470000000006480068C6
:1001C000006880F3088862B661B6BFF34F8FBFF353
:1001D0006F8F00DF00BF00BF08ED00E0DFF80C000C
:1001E000016841F470010160704700BF88ED00E0D4
:1001F000EFF30980BFF36F8F134B1A681EF0100FD7
:1002000008BF20ED108A20E9F04F106008B44FF0CD
:10021000500080F31188BFF34F8FBFF36F8F05F04D
:1002200023FA4FF0000080F3118808BC19680868B1
:10023000B0E8F04F1EF0100F08BFB0EC108A80F34A
:100240000988BFF36F8F704774000020EFF30580BB
:1002500070470000FEE708B500200090F04C451EF6
:100260002B466A460321002005F056FF009801281E
:1002700010D104F046F800232A461946A06804F07D
:1002800022FBE8A007F0C0F800231A461946A06830
:1002900004F0FAF900980228E2D104F036F80023BD
:1002A0002A461946A06804F00EFBE1A007F0ACF85E
:1002B00000231A461946A06804F0E6F9D0E708B50D
:1002C00000200090D64C451E2B466A460321002094
:1002D00005F022FF0098012810D104F034F8002323
:1002E0002A461946A06804F0EEFAD4A007F08CF86C
:1002F00000231A461946A06804F0C6F9009802289F
:10030000E2D104F024F800232A461946A06804F03C
:10031000DAFACDA007F078F800231A461946A0684B
:1003200004F0B2F9D0E708B500200090BC4C451E9F
:100330002B466A460321002005F0EEFE00980128B6
:1003400010D104F022F800232A461946A06804F0D0
:10035000BAFAC0A007F058F800231A461946A06858
:1003600004F092F900980228E2D104F012F8002378
:100370002A461946A06804F0A6FABAA007F044F885
:1003800000231A461946A06804F07EF9D0E708B5A4
:1003900000200090A24C451E2B466A4603210020F7
:1003A00005F0BAFE0098012810D102F025FD0023C7
:1003B0002A461946A06804F086FAAEA007F024F891
:1003C00000231A461946A06804F05EF90098022836
:1003D000E2D102F016FD00232A461946A06804F077
:1003E00072FAA8A007F010F800231A461946A06870
:1003F00004F04AF9D0E708B500200090884C451E6B
:100400002B466A460321002005F086FE009801284D
:1004100010D103F055FF00232A461946A06804F0C6
:1004200052FA9CA006F0F0FF00231A461946A06875
:1004300004F02AF900980228E2D103F045FF0023D6
:100440002A461946A06804F03EFA96A006F0DCFFA2
:1004500000231A461946A06804F016F9D0E7704C3C
:1004600000231A461946606804F00EF902F078FD80
:1004700000235A1E1946A06804F025FA8DA006F044
:10048000C3FF00231A461946A06804F0FDF8C820EF
:1004900005F016F8FBE7624C00231A46194660681F
:1004A00004F011FA02F058FD00235A1E1946A06804
:1004B00004F009FA82A006F0A7FF00231A461946A5
:1004C000A06804F0E1F8C82004F0FAFFFBE7544C00
:1004D0004FF47A750821202003F092FE03F0B3FE5A
:1004E000010C218079A006F08FFF284604F0E8FF78
:1004F000F0E7DFF8DC814A4D764E00244FF0FF39FB
:1005000098F8000001287CD100231A461946686833
:1005100004F0D9F9074688F800406FA1714806F049
:10052000B0FC50B170A16F4806F0ABFC88B172A16D
:100530006C4806F0A6FCC0B11CE0E86905F0CDF8F7
:10054000A86905F03BF9C821664806F088FC3470BC
:1005500010E0A86905F0C1F8E86905F02FF9C82195
:10056000604806F07CFC347004E0C8215D4806F069
:1005700076FC3470002F48D161A15A4806F081FC06
:10058000002843D061A1574806F07BFC00283ED0EC
:1005900061A1544806F075FC002839D061A151488A
:1005A00006F06FFC002834D061A14E4806F069FCCB
:1005B00000282FD061A14B4806F063FC00282AD008
:1005C00061A1484806F05DFC002825D061A145489E
:1005D00006F057FC002820D061A1424806F051FCEB
:1005E00000281BD061A13F4806F04BFC002816D024
:1005F000C8213C4806F033FC00234A461946A86847
:1006000000E053E104F05FF9B6E0BFE0C1E0CCE008
:10061000D7E0E2E0EDE0F8E003E10EE119E124E1EA
:1006200000000020BDBDCBAED2D1BFAAC6F40A00E7
:10063000BDBDCBAED2D1B9D8B1D50A00BCD3C8C8E4
:10064000D2D1BFAAC6F40A00BCD3C8C8D2D1B9D887
:10065000B1D50A00BCD3CAAAC6F7D2D1BFAAC6F484
:100660000A000000BCD3CAAAC6F7D2D1B9D8B1D506
:100670000A000000CDA8B7E7BFDAD2D1BFAAC6F4FE
:100680000A000000CDA8B7E7BFDAD2D1B9D8B1D5FA
:100690000A000000CDA8B7E7BBFAD2D1BFAAC6F4C2
:1006A0000A000000CDA8B7E7BBFAD2D1B9D8B1D5BE
:1006B0000A000000CAD6B6AFC4A3CABD0A00000033
:1006C000D7D4B6AFC4A3CABD0A00000025640A008F
:1006D0006100002060000020737769746368206106
:1006E00075746F00F0000020737769746368206D83
:1006F000616E75616C000000636C65616E000000E6
:100700006F70656E2056656E74000000636C6F73C9
:10071000652056656E7400006F70656E20536572BB
:10072000766F0000636C6F736520536572766F009F
:100730006F70656E2048756D69640000636C6F733F
:10074000652048756D6964006F70656E204865614D
:1007500074000000636C6F7365204865617400006D
:100760006F70656E2057617465720000636C6F7303
:100770006520576174657200B3A006F045FE002342
:100780001A461946A86803F07FFF3470012F79D00C
:100790008CE0012200231146286A05F0FFFCC821E5
:1007A000B24806F05CFB3470F0E70023012202211E
:1007B000286A05F0F3FCC821AC4806F050FB347001
:1007C000E4E7012200231146686A05F0E7FCC8212E
:1007D000A64806F044FB3470D8E70023012202212A
:1007E000686A05F0DBFCC821A04806F038FB3470CD
:1007F000CCE7012200231146A86A05F0CFFCC821EE
:100800009A4806F02CFB3470C0E700230122022135
:10081000A86A05F0C3FCC821944806F020FB347098
:10082000B4E7012200231146E86A05F0B7FCC821AD
:100830008E4806F014FB3470A8E700230122022141
:10084000E86A05F0ABFCC821884806F008FB347064
:100850009CE7012200231146A86A05F09FFCC821ED
:10086000824806F0FCFA347090E70023012202214E
:10087000A86A05F093FCC8217C4806F0F0FA3470B1
:1008800084E7FFE7C821794806F0E9FA00234A46E1
:100890001946A86804F017F875A006F0B5FD002306
:1008A0001A461946A86803F0EFFE3470642004F07D
:1008B00007FE25E67CB506F027FA012003F0B7FF16
:1008C000754CA06003220021012003F001FE60604E
:1008D000082104F11000CDE90010002380226FA14F
:1008E000AFF2F13004F0FEFB072104F11400CDE972
:1008F0000010002380226EA1AFF22D4004F0F2FB25
:10090000042504F11800CDE90050002380226DA1D8
:10091000AFF27D4004F0E6FB04F11C00CDE900508D
:10092000002380226BA1AFF2C94004F0DBFB062557
:1009300004F12000CDE900500023802269A1AFF22C
:10094000495004F0CFFB04F12400CDE9005000230E
:1009500080226AA1AFF2C95004F0C4FB04F1280060
:10096000CDE900500023802269A1AFF2456004F078
:10097000B9FB04F12C00CDE90050002380226AA1CC
:10098000AFF2C56004F0AEFB04F13000CDE90050D9
:100990000023802269A1AFF2417004F0A3FB032180
:1009A00004F13400CDE900100023802268A1AFF2E9
:1009B0005B7004F097FBE06904F08FFEA06904F01F
:1009C000FDFEE06804F0D7FBBDE87C4006F0B6B958
:1009D0001CB54FF4407000F0B3F9A82002F07EF887
:1009E0004FF4E13002F0E4F802F0A0FA02F0B8FAB5
:1009F00002F0D0FF02F0DFFB03F09EFA03F0C7F82D
:100A000003F002F9532144F61F6002F09FF903F04E
:100A100012FC02F0A1FA03F03DFC03F05BFC03F0D2
:100A20007BFC03F09BFC1C4805210C30CDE9001039
:100A3000002380224AA1AFF2831004F053FB04F09C
:100A40006EFF00201CBD0000B4EDCEF3C3FCC1EE70
:100A5000A3ACD7D4B6AFC4A3CABDB2BBBFC9BFD8BD
:100A6000D6C6CAE4B3F6C9E8B1B80000F000002069
:100A7000B4EDCEF3C3FCC1EEA3ACCAD6B6AFC4A3EB
:100A8000CABDB2BBBFC9B5F7BDDAB4ABB8D0C6F703
:100A9000E3D0D6B50000000000000020557361725D
:100AA00074436F6D6D616E645461736B0000000080
:100AB000446174614163717569736974696F6E54DF
:100AC00061736B004175746F4D6F64655461736B36
:100AD000000000004D616E75616C4D6F6454617370
:100AE0006B00000056656E74696C6174696F6E43CB
:100AF0006F6E74726F6C5461736B00005365727625
:100B00006F436F6E74726F6C5461736B0000000002
:100B100048756D69646966696572436F6E74726F5A
:100B20006C5461736B00000048656174696E6743C3
:100B30006F6E74726F6C5461736B000057617465F3
:100B400072696E67436F6E74726F6C5461736B0081
:100B50004F6C6564446973706C61795461736B00A8
:100B600073746172745461736B0000007047FEE728
:100B7000FEE7FEE7FEE7704710B505F02EF9012805
:100B800003D0BDE8104006F0ECB810BD0CB5002253
:100B9000019200925849086840F4803008604FF490
:100BA000A043086800F4003000900198401C0190B8
:100BB000009810B901989842F3D10868800302D5D3
:100BC0000120009000E000920098012831D14A48AD
:100BD0004030026842F0805202604848026842F4A5
:100BE000404202604448083002680260026842F4F1
:100BF00000420260026842F4A0520260021F404BB1
:100C000013600A6842F080720A600A689201FCD59B
:100C10003C4A40F205711160016821F00301016056
:100C2000016841F0020101600168C1F381010229FC
:100C3000FAD10CBD10B53448016841F4700101606F
:100C40002D48016841F0010101602B4A0021083262
:100C5000116002682D4B1A400260031D2C4A1A6075
:100C6000026822F48022026023480C300160FFF702
:100C70008DFF25494FF000608039086010BD70B5C8
:100C80001D4E0836306800F00C00224B2249002827
:100C90000FD05D1004280ED008280ED00B603068ED
:100CA0001D4AC0F30310121D105C0A68C2400A609E
:100CB00070BD0B60F3E70D60F1E70F4A121D10687D
:100CC000C0F38054106800F03F0034B1B5FBF0F081
:100CD0001368C3F38813584305E0B3FBF0F01368BF
:100CE000C3F3881358431268C2F30142521C5200E6
:100CF000B0FBF2F00860D2E700380240007000401C
:100D000008544007003C024088ED00E0FFFFF6FE7B
:100D1000103000240024F4003800002006488047EA
:100D200006480047FEE7FEE7FEE7FEE7FEE7FEE7D0
:100D3000FEE7FEE7FEE7FEE7350C00088901000844
:100D40002B4908432B490860704730B50F23C27800
:100D500001250178002A1FD0264A126802F4E062B9
:100D6000C2F5E062C2F30722C2F10404D340427824
:100D7000A24084781C401443220101F1E02181F853
:100D80000024007800F01F018D404009800000F130
:100D9000E020C0F8005130BD01F01F008540480937
:100DA000800000F1E020C0F8805130BD124A1140AF
:100DB00001431048001F016070470E4A121D0029B0
:100DC00003D01168014311607047116881431160BD
:100DD00070474FF0E021042804D0086920F0040097
:100DE00008617047086940F004000861704700001E
:100DF0000000FA050CED00E080FFFF1F10B5012197
:100E00000C02204600F07FFE2046BDE81040002185
:100E100000F079BE30B54268DA4B1A400C790B68A5
:100E200042EA0422134343608368D74A1340D1E95E
:100E3000034222434D798C6844EA450422431A4315
:100E40008260C26A22F47002097D491EC9B242EA78
:100E50000151C16230BD00210160017141718160A9
:100E6000C160016101210175704710B5C74C22684E
:100E7000C7490A40D0E900131943D0E902300343BF
:100E800019431143216010BD002101604160816060
:100E9000C1607047002904D0816841F00101816080
:100EA0007047816821F00101816070474268B94B49
:100EB0001A400A434260704741628262704742684A
:100EC00022F01F020A4342607047B349002806D04F
:100ED000D1F8040340F40000C1F804037047D1F8CE
:100EE000040320F40000C1F804037047AA49002855
:100EF00006D0D1F8040340F48000C1F80403704721
:100F0000D1F8040320F48000C1F80403704770B5E1
:100F1000072609290AD9C568A1F10A0404EB44048B
:100F2000A640B543A3401D43C56007E0056901EB3A
:100F30004104A640B543A3401D4305611F23072A72
:100F400009D2446B521E02EB820293409C439140B3
:100F50000C43446370BD0D2A09D2046BD21F02EB0F
:100F6000820293409C4391400C43046370BDC46A69
:100F70000D3A02EB820293409C4391400C43C462C1
:100F800070BD816841F0804181607047014600205A
:100F90008968490000D501207047002904D0816884
:100FA00041F4806181607047816821F480618160D3
:100FB0007047002904D0816841F0020181607047C8
:100FC000816821F0020181607047426822F460422A
:100FD000491E42EA413141607047002904D041680E
:100FE00041F4006141607047416821F40061416053
:100FF0007047C06C80B270476448001D006870473D
:10100000002904D0816841F4807181607047816853
:1010100021F4807181607047002904D0816841F417
:10102000007181607047816821F4007181607047B0
:101030005949002806D0D1F8040340F40050C1F803
:1010400004037047D1F8040320F40050C1F80403EE
:10105000704770B5072609290AD9C568A1F10A04A5
:1010600004EB4404A640B543A3401D43C56007E01C
:10107000056901EB4104A640B543A3401D4305614A
:10108000836BC3F30154121B921C02EB82021F24D8
:101090009440A34391400B43836370BD826B22F461
:1010A0004012491E42EA01518163704708B5009021
:1010B0000098084400900098026008BD826822F4FD
:1010C00070220A4382607047826822F440120A4309
:1010D00082607047816841F48001816070470146F9
:1010E00000208968490200D501207047002904D0FA
:1010F000416841F4806141607047416821F480613A
:1011000041607047002904D0416841F4805141603A
:101110007047416821F480514160704708B50090E4
:1011200000980844283000900098006880B208BDFC
:1011300001238B40002A03D0416819434160704766
:1011400041689943416070470246002012680A4294
:1011500000D001207047C9430160704730B5024696
:1011600000200B0A546801258D402C40116819425B
:1011700002D0002C00D0012030BD090AC943016013
:1011800070470000FFFEFFFCFDF7FFC00423014095
:10119000E030FCFFFFFD3FFF002001402DE9F04360
:1011A000016821F00101016000210160416081605E
:1011B000C160016121214161C149C14A10394FF02B
:1011C0003D08904203D1C1F80880BDE8F083BC4AD5
:1011D0004FF474651832904201D18D60F5E7B84A3A
:1011E0004FF474163032904201D18E60EDE7B44A6C
:1011F0004FF074674832904201D18F60E5E7B04B01
:10120000B04A6033984201D1CA60DEE7AC4CAE4BC5
:101210007834A04201D1CB60D7E7DFF8A4C2AB4C51
:101220000CF1900C604501D1CC60CEE7DFF89092D4
:101230004FF03D5C09F1A809484502D1C1F80CC046
:10124000C3E7A349DFF888920839484502D1C1F8BD
:101250000080BAE7DFF8788208F11808404501D12C
:101260000D60B2E79A4D3035A84201D10E60ACE76F
:10127000974D4835A84201D10F60A6E7944D944997
:101280006035091FA84201D10A609EE7904A783272
:10129000904201D10B6098E78D4A9032904201D183
:1012A0000C6092E78A4AA83290428ED1C1F800C001
:1012B0008BE730B50368874A1340CC680A6822433D
:1012C000D1E905452C432243CC6922430C6A2243D1
:1012D0004C6A22438C6A22434C6B22438C6B224320
:1012E0001A430260426922F00703D1E90B2422432A
:1012F0001A4342610A6942604A6882608968C16033
:1013000030BD0021016041608160C16001614161C7
:101310008161C161016241628162C16201634163B5
:1013200081637047002904D0016841F00101016028
:101330007047016821F0010101607047002904D065
:10134000016841F4004101607047016821F40041E7
:1013500001607047002904D0016841F0200101605C
:101360007047016821F020010160704741607047BB
:10137000406880B27047002A04D0026842F400221C
:10138000026003E0026822F40022026001617047FB
:10139000002904D0016841F4802101607047016890
:1013A00021F4802101607047002A01D0016170475B
:1013B000C1607047014600200968090300D501207B
:1013C0007047014600200968C90700D00120704716
:1013D000406900F038007047024600203C4B9A42BA
:1013E00002D2374A103A01E0394A103A8B0001D54F
:1013F000526800E01268384B1A400A4200D00120BF
:101400007047334A904202D22D48103801E03048EC
:101410001038314A8B0001EA020101D5C1607047E2
:10142000816070470B0609D522B1436943F0800300
:10143000436103E0436923F080034361802905D0C1
:1014400001F01E011AB102680A4302607047026887
:101450008A430260704730B500241D4A904202D290
:10146000174A103A01E01A4A103A1C4B194205D0AB
:101470001E2303EAD12503682B4002E0406900F0F7
:101480008003880001D5506800E01068124A1040BF
:10149000084201D003B10124204630BD0C4A9042DD
:1014A00002D20748103801E0094810380A4A8B0078
:1014B00001EA020101D5C1607047816070470000F8
:1014C000106002403D000020400F002000003D2041
:1014D000106402403F801CF07D0F7D0F3C0F3C0FDD
:1014E00010B58D49884209D10121084600F0DBFA88
:1014F0000021BDE81040012000F0D5BA874988429C
:1015000009D10121022000F0CEFA0021BDE81040EF
:10151000022000F0C8BA8249884209D10121042082
:1015200000F0C1FA0021BDE81040042000F0BBBA71
:101530007C49884209D10121082000F0B4FA002139
:10154000BDE81040082000F0AEBA7749884209D1C2
:101550000121102000F0A7FA0021BDE81040102062
:1015600000F0A1BA7149884209D10121202000F080
:101570009AFA0021BDE81040202000F094BA6C498E
:10158000884209D10121402000F08DFA0021BDE8F8
:101590001040402000F087BA6649884209D10121F5
:1015A000802000F080FA0021BDE81040802000F08B
:1015B0007ABA614988420AD184150121204600F097
:1015C00072FA2046BDE81040002100F06CBA5B4979
:1015D00088420AD144150121204600F064FA2046D1
:1015E000BDE81040002100F05EBA554988420AD19A
:1015F00004150121204600F056FA2046BDE81040AF
:10160000002100F050BA10BD2DE9F0410022012761
:101610004FF0030C07FA02F50B682B40AB422CD1BC
:10162000066853000CFA03F4A64306600E79D0F85E
:1016300000809E4046EA080606600E79012E01D021
:10164000022E12D18668A64386604E79D0F80880B3
:101650009E4046EA080686604668AE434660456896
:101660008E799640B6B235434560C568A543C560DE
:10167000CC799C40C3681C43C460521C102AC9D357
:10168000BDE8F0814FF6FF710160002101714171E9
:101690008171C171704708B541F480320092009A9F
:1016A000C261C1610099C161C169C069009008BD92
:1016B0000246002012690A4200D0012070470069EA
:1016C00080B270470246002052690A4200D00120D1
:1016D0007047406980B2704701837047418370470B
:1016E000002A01D0018370474183704741617047F0
:1016F00042694A404261704710B54B07DB0E9A4081
:10170000C90800EB8100016A0F249C40A1430162DB
:10171000016A1143016210BD000002400004024052
:1017200000080240000C0240001002400014024079
:1017300000180240001C0240002002400024024029
:1017400000280240FA48016841F001010160F84AAE
:101750000021083211600268F64B1A400260031D36
:10176000F54A1A60F24BF54A84331A60F24A103A8D
:101770001B1D1A60026822F480220260EC480C30C3
:101780000160181D01607047E9490022891C0A7038
:101790000870704702460020510901290CD0022927
:1017A0000DD0E3497431096802F01F020123934010
:1017B0000B4200D001207047DD490968F4E7DC499D
:1017C00070310968F0E718B5002000904FF4A0448C
:1017D0003120FFF7DFFF0099491C00910099A142D9
:1017E00001D00028F4D03120FFF7D4FF08B1012048
:1017F00018BD002018BDCE4A116821F0F80141EA59
:10180000C00010607047CE4908607047C849002288
:1018100070310A700A70012804D0042801D1052013
:1018200008707047012008707047C649086070470B
:1018300010B5029C41EA82114FF0FF3202EB5302D5
:1018400041EA0241014341EA0460B949091D0860C7
:1018500010BDBB4908667047800140EA0170B44979
:10186000843108607047B64988667047800140EA55
:101870000160AF4940EA0270883108607047B049A2
:1018800008677047AE49C8647047A94B08331A68A7
:1018900022F0EC620843104318607047A44B0833F1
:1018A0001A6822F078420843104318607047A04A33
:1018B0000832116821F003010143116070479C4810
:1018C0000830006800F00C007047994A083211682F
:1018D00021F0F001014311607047954A0832116808
:1018E00021F4E051014311607047914A08321168B8
:1018F00021F4604141EAC0001060704770B58C4B24
:101900000833196801F00C018F4C00291ED06610B5
:1019100004291DD008291DD00460196801F0F001C8
:1019200009098A4A545C0168E14041601C6804F47A
:10193000E054A40A145D21FA04F484601B6803F4E3
:1019400060435B0BD25CD140C16070BD0460E4E7D2
:101950000660E2E7764A121D1168C1F380551168EE
:1019600001F03F0135B1B6FBF1F11468C4F38814FE
:10197000614305E0B4FBF1F11468C4F388146143DA
:101980001268C2F30142521C5200B1FBF2F1016035
:10199000C3E7C0F30121032908D1654B0833196857
:1019A00021F4F8126A49014011431960604A70320B
:1019B0001168C0F30B00014311607047614944395D
:1019C000086070475F4940390860704761490860A6
:1019D0007047574A8C32116821F01F01401E0143A5
:1019E00011607047524A8C32116821F4F851401E40
:1019F00041EA0020106070474D4A8C32116821F492
:101A00004011014311607047494A8C32116821F43A
:101A10004001014311607047454A8C32116821F43E
:101A200040310143116070474B4908607047404A9C
:101A30003032002903D011680143116070471168EA
:101A40008143116070473A4A3432002903D011684B
:101A50000143116070471168814311607047344A37
:101A60003832002903D011680143116070471168B2
:101A70008143116070472E4A4032002903D011681B
:101A80000143116070471168814311607047284A13
:101A90004432002903D01168014311607047116876
:101AA000814311607047224A1032002903D0116827
:101AB00001431160704711688143116070471C4AEF
:101AC0001432002903D01168014311607047116876
:101AD000814311607047164A1832002903D01168FB
:101AE0000143116070471168814311607047104ACB
:101AF0002032002903D0116801431160704711683A
:101B00008143116070470A4A2432002903D01168CA
:101B10000143116070471168814311607047044AA6
:101B2000503200291AD0116801431160704700003B
:101B300000380240FFFFF6EA103000240030002099
:101B400000004742800E47420024F4004C00002071
:101B5000FFFCFF0F5C014742E011474211688143DF
:101B60001160E3E72E4A002903D011680143116098
:101B7000DCE7116881431160D8E7294A121D00296A
:101B800003D0116801431160D0E7116881431160EF
:101B9000CCE7234A0C32002903D0116801431160BD
:101BA000C4E7116881431160C0E71D4A1032002963
:101BB00003D0116801431160B8E7116881431160D7
:101BC000B4E717491C31012804D0086820F0080048
:101BD0000860ABE7086840F008000860A6E7104A14
:101BE000473A002903D01178014311709EE711781C
:101BF000814311709AE70A482030016841F08071F2
:101C0000016093E701460020054A483A12680A42FB
:101C10008CD001208AE702494639087086E7000027
:101C20005438024010B5F949884209D101210846CB
:101C3000FFF769FF0021BDE810400120FFF763BFF7
:101C4000B0F1804F0CD0F249884213D1012102201B
:101C5000FFF74DFF0021BDE810400220FFF747BF0E
:101C600001210846FFF743FF0021BDE81040012095
:101C7000FFF73DBFE749884209D101210420FFF762
:101C800036FF0021BDE810400420FFF730BFE249D5
:101C9000884209D101210820FFF729FF0021BDE872
:101CA00010400820FFF723BFDC49884209D10121F9
:101CB0001020FFF71CFF0021BDE810401020FFF7A7
:101CC00016BFD749884209D101212020FFF70FFF15
:101CD0000021BDE810402020FFF709BFD14988420C
:101CE00009D101210220FFF70EFF0021BDE81040BD
:101CF0000220FFF708BFCC4988420AD101210C0419
:101D00002046FFF700FF2046BDE810400021FFF706
:101D1000FABEC64988420AD101214C042046FFF789
:101D2000F2FE2046BDE810400021FFF7ECBEC0499E
:101D300088420AD101218C042046FFF7E4FE2046A8
:101D4000BDE810400021FFF7DEBEBA49884209D144
:101D500001214020FFF7CBFE0021BDE810404020CC
:101D6000FFF7C5BEB449884209D101218020FFF7A1
:101D7000BEFE0021BDE810408020FFF7B8BEAF498D
:101D800088420AD1841501212046FFF7B0FE204683
:101D9000BDE810400021FFF7AABE10BD30B5028893
:101DA0009A4CA04DA0420DD0A8420BD0B0F1804F6C
:101DB00008D0974B984205D0964B984202D0964B4C
:101DC000984203D122F070034A881A43934B9842F9
:101DD00006D0934B984203D022F440730A891A43E9
:101DE00002804A68C2620A880285A04201D0A842E5
:101DF00001D1897A01860121818230BD4FF0FF3106
:101E0000416000210180018141808172704701851C
:101E100082827047028822F070020A430280704773
:101E200041627047C1627047406A7047008D7047D9
:101E3000002904D0018841F0020101807047018827
:101E400021F0020101807047002904D0018841F08F
:101E5000040101807047018821F00401018070476E
:101E6000002904D0018841F0800101807047018879
:101E700021F0800101807047028822F00802028070
:101E800002880A4302807047028822F4407202806E
:101E900002880A4302807047002904D0018841F07B
:101EA000010101807047018821F001010180704724
:101EB00030B5028C22F001020284058C8388028BEB
:101EC00022F0700222F003020C88144325F0020273
:101ED0008D8915434A882A434C4DA84202D0514D62
:101EE000A8420FD122F00805CA892A4322F004052E
:101EF0008A882A4323F4807323F400730D8A1D43D8
:101F00004B8A2B438380048389684163028430BDFC
:101F100070B5028C22F010020284028C8388048B3C
:101F200024F4E04424F440760D884FF6FF7404EA6C
:101F30000525354322F020028E8904EA0616164351
:101F40004A8804EA02123243304EB04202D0354E83
:101F5000B04217D122F08002CE8904EA0616164359
:101F600026F040068A8804EA0212324323F4806392
:101F700023F400630E8A04EA86061E434B8A04EAB1
:101F8000830333438380058389688163028470BD42
:101F900070B5028C22F480720284028C8388848B58
:101FA00024F0700424F003040D88254322F4007209
:101FB0008E894FF6FF7404EA062616434A8804EA1F
:101FC00002223243114EB04202D0164EB04217D117
:101FD00022F40066CA8904EA0222324322F48066AF
:101FE0008A8804EA0222324323F4805323F4005304
:101FF0000E8A04EA06161E434B8A04EA031333438F
:10200000838085838968C163028470BD00000140BC
:102010000004004000080040000C00400010004098
:102020000014004000040140004001400044014011
:102030000048014000180040001C00400020004003
:1020400070B5028C22F480520284058C8288838BC6
:1020500023F4E04323F440760C884FF6FF7303EA41
:102060000424344325F400558E8903EA06362E43B2
:102070004D8803EA05353543FE4EB04202D0FE4E90
:10208000B04205D122F480460A8A03EA8212324322
:1020900082808483896801640584B6E70021018019
:1020A0004180818081608181C1810182418270474C
:1020B00030B500F1180301248C40058CA54305843C
:1020C000002912D0082910D0091FC1F34E0018446E
:1020D000016848F6FF731940016001684FF6FF730D
:1020E00003EA02221143016030BD03EB5100016895
:1020F0004FF68F731940016001681143016030BDD4
:102100004163704781637047C163704701647047E2
:10211000028B22F070020A4302837047028B22F482
:10212000E0424FF6FF7303EA012111430183704738
:10213000828B22F070020A4382837047828B22F4E2
:10214000E0424FF6FF7303EA012111438183704798
:10215000028B22F008020A4302837047028B22F4AA
:1021600000624FF6FF7303EA0121114301837047B8
:10217000828B22F008020A4382837047828B22F40A
:1021800000624FF6FF7303EA012111438183704718
:10219000028B22F004020A4302837047028B22F46E
:1021A00080624FF6FF7303EA0121114301837047F8
:1021B000828B22F004020A4382837047828B22F4CE
:1021C00080624FF6FF7303EA012111438183704758
:1021D000028B22F080020A4302837047028BC2F313
:1021E0000E024FF6FF7303EA01211143018370478A
:1021F000828B22F080020A4382837047828BC2F373
:102200000E024FF6FF7303EA0121114381837047E9
:10221000028C22F002020A4302847047028C22F0F0
:1022200008020A4302847047028C22F020024FF613
:10223000FF7303EA0111114301847047028C22F0FD
:1022400080024FF6FF7303EA0111114301847047C6
:10225000028C22F400724FF6FF7303EA012111434E
:1022600001847047028C22F400624FF6FF7303EA88
:102270000121114301847047028C22F400524FF671
:10228000FF7303EA013111430184704710B5012344
:102290008B40048C9C430484038C8A401343038446
:1022A00010BD10B504238B40048C9C430484038C24
:1022B0008A401343038410BD828B22F440628283E0
:1022C000828B4FF6FF7303EA01210A438283704732
:1022D00070B5048C24F480540484858B068C4FF6EE
:1022E000FF7404EA013125F4734504EA02222A430B
:1022F00004EA0333134326F420420A4342F4805194
:102300008383018481E6828B22F00C028283828B9C
:102310000A4382837047F0B5048C24F480740484EB
:10232000868B058C4FF6FF7707EA012426F0F3062B
:1023300007EA03111143314325F42062224342F49A
:10234000807281830284F0BD028B22F4406202839A
:10235000028B4FF6FF7303EA01210A4302837047A1
:1023600070B5048C24F010040484058B068C4FF6A1
:10237000FF7404EA011125F4734504EA03332B4387
:1023800004EA02221A4326F0A0030B4343F0100193
:102390000283018439E6028B22F00C020283028B55
:1023A0000A430283704770B5048C24F0010404844E
:1023B000058B048C25F0F3054FF6FF7606EA031330
:1023C00013432B4324F00A020A4342F00101038322
:1023D00001841AE670B506460C4625886188A288F5
:1023E0002389002D0BD0042D11D0082D17D0304695
:1023F000FFF76EFFE1883046BDE870405CE730468D
:10240000FFF7D1FFE1883046BDE87040C3E73046B2
:10241000FFF7A6FFE1883046BDE8704094E73046FC
:10242000FFF779FFE1883046BDE870406BE7002197
:102430000180418001228280C180018170472DE9A5
:10244000F04107460C46002501266188002900D18D
:102450000225A288012A00D1022620882389B0B152
:102460003846FFF77DFFE1883846FFF76DFF238987
:10247000324603E00000014000040140294638468E
:10248000FFF791FFE1883846BDE8F04183E7384621
:10249000FFF789FFE1883846FFF77DFF2389324641
:1024A00029463846FFF75CFFE1883846BDE8F04131
:1024B0004AE7406B7047806B7047C06B7047006C99
:1024C000704710B50A884B88CC881A438B88234301
:1024D0001A430B891A434B8989891A430A43A0F886
:1024E000442010BD0021018041808180C180018194
:1024F000418181817047002905D030F8441F41F4A3
:1025000000410180704730F8441FC1F30E01018083
:102510007047002904D0818841F004018180704710
:10252000818821F0040181807047002904D08188CE
:1025300041F0010181807047818821F00101818093
:102540007047002A03D082890A43828170478289BA
:102550008A43828170478182704702460020128A36
:102560000A4200D001207047C943018270470246E9
:102570000020138A0B4092890A40002B02D0002AC7
:1025800000D001207047C943018270471143A0F871
:1025900048107047002A03D082890A43828170471D
:1025A00082898A4382817047002904D0818841F062
:1025B000080181807047818821F00801818070477F
:1025C000018921F0070101817047028922F0700220
:1025D0000A430281704700B503461846FFF7F5FF2E
:1025E000188940F00700188100BD70B50D460446FB
:1025F0001146602D0CD001222046FFF7D4FE29465B
:102600002046FFF7E2FF208940F007002081FCE42C
:1026100001222046FFF7A4FEF1E730B50489E4B2B9
:102620004FF6FF7505EA032313430B43234303814E
:1026300030BD10B504462046FFF7EFFF208920F09B
:10264000070040F0070020F0700040F0700020818B
:1026500010BD10B504462046FFF7DFFF208940F487
:102660008040208110BD828822F0700282808288A2
:102670000A4382807047028922F0070202810289A0
:102680000A4302817047028922F080020281028996
:102690000A430281704770B50589048B068C25F0CA
:1026A00007050D434FF6FC410C4040F201110C436D
:1026B00026F022064FF6FF7101EA03111143314360
:1026C000058104830184A0E4002904D0818841F0BD
:1026D000800181807047818821F08001818070476E
:1026E000A0F850107047000010B5F449884209D195
:1026F00001211020FFF707FA0021BDE8104010204B
:10270000FFF701BAEE4988420AD101214C04204664
:10271000FFF7EDF92046BDE810400021FFF7E7B9CB
:10272000E84988420AD101218C042046FFF7DFF9ED
:102730002046BDE810400021FFF7D9B9E2498842A0
:102740000AD10121CC042046FFF7D1F92046BDE88B
:1027500010400021FFF7CBB9DC4988420AD10121A2
:102760000C052046FFF7C3F92046BDE810400021C4
:10277000FFF7BDB9D649884209D101212020FFF7D2
:10278000C2F90021BDE810402020FFF7BCB9D149B3
:1027900088420AD101218C072046FFF7A8F920467C
:1027A000BDE810400021FFF7A2B9CB4988420AD109
:1027B000440501212046FFF79AF92046BDE8104064
:1027C0000021FFF794B910BD7FB504460D46208A5D
:1027D00020F44051E88808432082A08941F20C612E
:1027E0008843A9882A8911436A8902431143A18138
:1027F000A08A20F44071A8890843A0826846FFF7A8
:102800007DF8AE48844202D0B148844201D1039899
:1028100000E00298A189090408D500EBC00101EB92
:10282000001029684900B0FBF1F007E000EBC0019F
:1028300001EB001029688900B0FBF1F06422B0FBC5
:10284000F2F109010B096FF018056B4300EB8300EF
:10285000A3891D044FF0320307D503EBC000B0FB82
:10286000F2F000F00700084306E003EB0010B0FBB5
:10287000F2F000F00F00084320817FBD4FF41651A5
:10288000016000218180C18001810C22428181810F
:10289000704710B5028A22F470630A884C8822437C
:1028A0008C88C9880C4322431A43028210BD002140
:1028B000018041808180C1807047002904D08189D6
:1028C00041F4005181817047818921F40051818157
:1028D0007047028B02F47F420283028B0A43028319
:1028E0007047002904D0818941F4004181817047FB
:1028F0008189C1F30E0181817047002904D0818A4A
:1029000041F4006181827047818A21F400618182F3
:102910007047C1F30801818070478088C0F30800C8
:102920007047028A22F00F020282028A0A43028260
:102930007047002904D0818941F0020181817047EC
:10294000818921F0020181817047828922F400622D
:10295000828182890A4382817047028A22F02002A2
:102960000282028A0A4302827047002904D0018A47
:1029700041F4804101827047018A21F48041018243
:102980007047818941F0010181817047002904D09D
:10299000818A41F0080181827047818A21F0080113
:1029A00081827047028BD2B20283028B42EA0121FC
:1029B00001837047002904D0818A41F0200181827F
:1029C0007047818A21F0200181827047002904D05C
:1029D000818A41F0100181827047818A21F01001C3
:1029E00081827047828A22F004028282828A0A43AC
:1029F00082827047002904D0818A41F002018182DD
:102A00007047818A21F0020181827047002A03D039
:102A1000828A0A4382827047828A8A43828270470E
:102A200010B540F66A13C1F3421301F01F040121EF
:102A3000A140012B07D0022B07D014303AB1026815
:102A40000A43026010BD0C30F8E71030F6E7026868
:102A50008A43026010BD0246002012880A4200D05C
:102A6000012070478A05C9430180704770B5002472
:102A700040F66A12C1F3421301F01F05012606FA5F
:102A800005F2012B0CD0022B0DD0838A1340090ACA
:102A90008E40008830400BB100B10124204670BD4B
:102AA00083891340F3E7038A1340F0E740F66A1284
:102AB0000A0A01219140C94301807047001001407A
:102AC0000044004000480040004C004000500040DE
:102AD0000014014000780040007C004001B56FF018
:102AE0000400FEF776F99DF800002C49C008087034
:102AF000087800EB4002C2EBC0104FF6FF7202EA0A
:102B0000C000488008BD2549097848434FF0E021BE
:102B1000486100238B61086940F001000861086981
:102B2000C20701D0C003FAD5086920F0010008618E
:102B30008B6170471949498848434FF0E02148614B
:102B400000238B61086940F0010008610869C20731
:102B500001D0C003FAD5086920F0010008618B613B
:102B6000704738B54FF40774B0FBF4F10091B0FB37
:102B7000F4F104FB110506E02046FFF7DBFF9DF8AA
:102B80000010491E00919DF800100029F4D1002D7D
:102B900003D02846BDE83840CCE738BD5C000020B3
:102BA000704740490A885206FCD5C2B28A807047F5
:102BB000F0B587B0054601210846FEF738FF012130
:102BC0001020FEF764FF384F072209213846FEF730
:102BD00093FD07220A213846FEF78EFD4FF4C060B0
:102BE000059002208DF818008DF8190000248DF84A
:102BF0001A4001268DF81B6005A93846FEF704FD32
:102C00000195ADF80840ADF80A40ADF80C40ADF8BC
:102C100010400C20ADF80E00224C01A92046FFF711
:102C2000D3FD01212046FFF748FE40212046FFF753
:102C300019FF012240F225512046FFF7F1FE012243
:102C400040F224412046FFF7EBFE25208DF80000DE
:102C500003208DF801008DF802008DF803606846AE
:102C6000FEF773F807B0F0BD70B50E4C40F2255179
:102C70002046FFF7FBFE0D4D38B12046FFF74DFE15
:102C80000B4A29785054491C297040F224412046AF
:102C9000FFF7ECFE002803D02088A0880120687090
:102CA00070BD0000001001400000024060000020E4
:102CB000F00000202DE9F0418AB006460D460121C2
:102CC0000220FEF7D8FE01210846FEF7B0FEDFF82D
:102CD0003C81022206214046FEF70EFD402008906E
:102CE00002208DF8240003208DF8250000248DF8A3
:102CF000264001278DF8277008A94046FEF784FC7E
:102D0000ADF81450ADF816400696ADF81C40404D95
:102D100005A92846FFF742F86021ADF80010ADF88C
:102D20000270ADF80C4069462846FFF7C1F808214B
:102D30002846FFF70DFA01212846FFF791F80121F7
:102D40002846FFF7A9F80AB0BDE8F0812DE9F04167
:102D50008AB080460E4601210846FEF78CFE01210E
:102D60000846FEF764FE294F012200213846FEF78F
:102D7000C3FC0125089502208DF8240003208DF85E
:102D8000250000248DF826408DF8275008A93846E4
:102D9000FEF73AFCADF81460ADF81640CDF8188097
:102DA000ADF81C40AE0705A93046FEF7F7FF6021DD
:102DB000ADF80010ADF80250ADF80C406946304651
:102DC000FFF776F880213046FFF75DFC4021304662
:102DD000FFF749FC01213046FFF75EF80821304635
:102DE000FFF7B6F901213046FFF73AF84FF47A7150
:102DF0003046FFF785F9A6E74FF4FA618806FFF73A
:102E00007FB94FF4FA710807FFF77AB90000024062
:102E1000000400407FB504460D4601210220FEF764
:102E20002AFE0294ADF804500024ADF80640ADF837
:102E30000C403B4D01A92846FEF7B0FF0122114688
:102E40002846FFF77EFB01212846FFF725F81D20C5
:102E50008DF8000004208DF801008DF8024001205B
:102E60008DF803006846FDF770FF7FBD2D480022F6
:102E70000260426053213120CCE77FB504460D4605
:102E800001210820FEF7F7FD0294ADF8045000245C
:102E9000ADF80640ADF80C40234D01A92846FEF7D9
:102EA0007DFF012211462846FFF74BFB01212846F2
:102EB000FEF7F2FF32208DF8000005208DF80100AA
:102EC0008DF8024001208DF803006846FDF73DFFB4
:102ED0007FBD10B5124C01212046FFF748FB0128A9
:102EE00007D110490A684B68521C43F100030A607D
:102EF0004B602046BDE810400121FFF744BB10B5F0
:102F0000094C01212046FFF732FB012801D100F0D6
:102F10002BF82046BDE810400121FFF734BB00002C
:102F20000004004068000020000C00401CB5012196
:102F30000220FEF77CFD012000908DF804000020A7
:102F40008DF8060003218DF805108DF807006946FD
:102F50000748FEF759FB1CBD01210548FEF7BEBB23
:102F600001210348FEF7B8BB01210148FEF7C0BBB1
:102F70000004024070B54FF480542146FE4D2846AF
:102F8000FEF7AAFB0420FFF7BEFD66003146284687
:102F9000FEF7A2FB0420FFF7B6FD31462846FEF7F8
:102FA0009DFB0420FFF7AFFD21462846FEF796FB68
:102FB000BDE870400420FFF7A6BD70B5EE4C4FF49D
:102FC00080512046FEF788FB0420FFF79CFD4FF45C
:102FD000005529462046FEF781FB0420FFF793FDAC
:102FE00029462046FEF778FBBDE870400420FFF735
:102FF0008ABD70B5E04D4FF4805421462846FEF757
:103000006BFB0420FFF77FFD21462846FEF766FB99
:10301000BDE870400420FFF776BD2DE9F04104467D
:10302000D54F4FF4805631463846FEF757FB042003
:10303000FFF769FD00254FF4005804F08000802858
:103040001CD041463846FEF749FB0420FFF75BFDE4
:103050006006040E31463846FEF73EFB0420FFF7BB
:1030600052FD31463846FEF739FB0420FFF74BFD91
:103070006D1CEDB2082DE0D3BDE8F0814146384625
:10308000FEF72AFB0420FFF73EFDE1E710B50446FA
:10309000FFF770FF7820FFF7C0FFFFF7AAFF0020BF
:1030A000FFF7BBFFFFF7A5FF2046FFF7B6FFFFF7CF
:1030B000A0FFBDE8104080E710B50446FFF75AFFB7
:1030C0007820FFF7AAFFFFF794FF4020FFF7A5FF46
:1030D000FFF78FFF2046FFF7A0FFFFF78AFFBDE84D
:1030E00010406AE7002901D0C0B2E5E7C0B2CDE7E1
:1030F00070B506460025002105F1B000FFF7F2FF8C
:1031000000210846FFF7EEFF00211020FFF7EAFF3D
:10311000002401213046FFF7E5FF641CE4B2802C57
:10312000F7D36D1CEDB2082DE5D370BD002808D093
:1031300041F665021146491E0029FCD1401E0028B7
:10314000F8D1704704E00021491CC9B27B29FBD3A8
:10315000401E411CF7D1704710B5044608460021B7
:10316000B030FFF7BFFF102040EA14100021FFF736
:10317000B9FF04F00F00BDE810400021B2E710B520
:1031800000218D20FFF7AEFF00211420FFF7AAFFDA
:103190000021BDE81040AF20A4E710B500218D202C
:1031A000FFF7A0FF00211020FFF79CFF0021BDE8E2
:1031B0001040AE2096E71CB5002401941FE09DF856
:1031C00004000021B030FFF78DFF00210846FFF713
:1031D00089FF00211020FFF785FF009407E00121FF
:1031E0000020FFF77FFF9DF80000401C00909DF835
:1031F00000008028F3D39DF80400401C01909DF846
:1032000004000828DBD31CBD1CB5002401941FE07A
:103210009DF804000021B030FFF764FF002108464C
:10322000FFF760FF00211020FFF75CFF009407E02C
:1032300001210846FFF756FF9DF80000401C009052
:103240009DF800008028F3D39DF80400401C0190F5
:103250009DF804000828DBD31CBD7FB500249DF831
:1032600008002038C5B29DF800007F2805D900204D
:1032700000909DF80400801C01909DF80C0010281F
:1032800013D09DF804109DF80000FFF765FF3B493F
:1032900005EB450001EB40050121285DFFF722FF0A
:1032A000641CE4B2062CF7D37FBD9DF804109DF892
:1032B0000000FFF751FF324E04EB05100121305C96
:1032C000FFF710FF641CE4B2082CF5D39DF804004E
:1032D000401CC1B29DF80000FFF73EFF002404EB44
:1032E000051030440121007AFFF7FCFE641CE4B2B3
:1032F000082CF4D37FBD03B5012002E09DF8001037
:1033000048439DF804104A1E0192F7D20CBD1FB528
:1033100084B0144600200190039040E09DF81C000A
:103320009DF80C10401A401EC1B20A20FFF7E3FFBF
:10333000B4FBF0F00A21B0FBF1F201FB12000290A5
:103340009DF8040058B99DF80C109DF81C00401E13
:10335000814204DA9DF8080048B3012001909DF8ED
:1033600008003030C2B29DF828009DF80C104008CB
:103370009DF8103006E0000000040240327600089C
:103380005A78000810FB01309DF82830C0B29DF833
:103390001410FFF762FF9DF80C00401C03909DF88D
:1033A0000C009DF81C108842B8D308B010BD9DF8E1
:1033B00028009DF80C1040089DF8102010FB0120FB
:1033C0009DF82830C0B220229DF81410FFF745FF69
:1033D000E1E77FB51446002516E022789DF80C3011
:1033E0009DF804109DF80000FFF737FF9DF80000DE
:1033F000083000909DF80000782804D900959DF8C9
:103400000400801C0190641C20780028E5D17FBD59
:103410002DE9F0478246DDF820900E4690461F4683
:103420000025780712E031465046FFF795FE5446D6
:1034300008E028466D1C19F800000121FFF752FE34
:10344000641CE4B24445F4D3761CF6B2BE42EAD31F
:10345000BDE8F0872DE9F04781462DED048B84B05F
:103460008A46B0EE408AF0EE608A90469FEDFE9B61
:1034700000270124019702970397012653EC192B8B
:1034800051EC180B03F0F2FE07D251EC180B81F04F
:10349000004103F0B3FE054604E051EC180B03F0C5
:1034A000ADFE0546284603F08BFE53EC182B03F0C7
:1034B000A3FD41EC100B9FEDEE1B51EC100B53ECF8
:1034C000112B03F09CFD03F0B8FE01460A2004E036
:1034D00006EB86025600641CE4B295FBF0F292FB08
:1034E000F6F2002AF4D142F2107295FBF2F292FB4E
:1034F000F0F300FB13228DF804204FF47A7295FB51
:10350000F2F393FBF0F600FB16338DF805306423DD
:1035100095FBF3F696FBF0FC00FB1C668DF806604D
:1035200095FBF0F696FBF0FC00FB1C668DF807603F
:1035300095FBF0F600FB16558DF808502E258DF8FA
:103540000950B1FBF2F2B2FBF0F600FB16228DF847
:103550000A20B1FBF3F2B2FBF0F300FB13228DF86B
:103560000B20B1FBF0F2B2FBF0F300FB13228DF85D
:103570000C20B1FBF0F200FB12108DF80D0001AE33
:10358000B04488F806700020315C30313154401C62
:103590000A28F9DB53EC192B51EC180B03F066FEEB
:1035A00005D2641CE4B2C4F105012D2070548DF8DD
:1035B000095088F80670C4F1050082190C234946A9
:1035C0005046FFF706FF04B0BDEC048B40E72DE941
:1035D000F04782462DED028B84B0B0EE408AF0EECB
:1035E000608A1746984600260196029603960124A3
:1035F000C8064FEA106951EC180B03F0FFFD0546B1
:10360000284603F0EEFD53EC182B03F0F5FC41ECDB
:10361000100B9FED971B51EC100B53EC112B03F08B
:10362000EEFC03F00AFE01460A2002E004EB8402ED
:103630005400B5FBF0F2B2FBF4F2002AF6D142F2EC
:103640001072B5FBF2F2B2FBF0F300FB13228DF81F
:1036500004204FF47A72B5FBF2F3B3FBF0F400FBF5
:1036600014338DF805306424B5FBF4F3B3FBF0FCA0
:1036700000FB1C338DF80630B5FBF0F3B3FBF0F51F
:1036800000FB15338DF807302E238DF80930B1FB80
:10369000F2F2B2FBF0F500FB15228DF80A20B1FB27
:1036A000F4F2B2FBF0F400FB14228DF80B20B1FB16
:1036B000F0F2B2FBF0F400FB14228DF80C20B1FB09
:1036C000F0F200FB12108DF80D0001A901EB0804C7
:1036D000A67100200A5C30320A54401C0A28F9DB2B
:1036E0008DF80930A671C7F1050042180C23514628
:1036F0004846FFF76EFE04B0BDEC028BA8E670B53D
:103700001546002400EB40004006000EFFF724FDA4
:103710001035594905EB450001EB40050121285DB5
:10372000FFF7E0FC641C062CF8DB70BD70B5154695
:10373000002400EB40004006000EFFF70DFD4E494F
:1037400005EB450001EB40050121285DFFF7CAFCB0
:10375000641C062CF8DB70BD2DE9F0410F46642196
:103760000A26441C851C002A1CDA534293FBF1F202
:1037700001FB123191FBF6F101F0FF0893FBF6F12A
:1037800006FB1131CEB20D223946FFF7CFFFE0B272
:1037900042463946FFF7B3FFE8B232463946BDE844
:1037A000F041ACE792FBF1F301FB132191FBF6F141
:1037B00001F0FF0892FBF6F106FB1121CEB20B22BD
:1037C0003946FFF7B3FFE0B242463946FFF797FFAD
:1037D000E8B232463946BDE8F04190E72DE9F047BE
:1037E0008A461446C51C861C471C4FF00A084FF039
:1037F0006409002C23DA64420D225146FFF796FF3C
:1038000094FBF8F008FB1040C2B294FBF8F090FB78
:10381000F8F108FB110000F0FF0894FBF9F0C4B2C6
:10382000E8B25146FFF76BFFF0B242465146FFF750
:1038300066FFF8B222465146BDE8F0475FE70B222B
:103840005146FFF773FF94FBF8F008FB1040C2B23B
:1038500094FBF8F090FBF8F108FB110000F0FF0872
:1038600094FBF9F0C4B209E0000000000000000081
:10387000000000000088C34032760008E8B25146DC
:10388000FFF73DFFF0B242465146FFF738FFF8B26E
:1038900022465146BDE8F04731E72DE9F0410446A4
:1038A0000D46002A00DA52424FF47A7092FBF0F192
:1038B000C9B292FBF0F300FB1323642093FBF0F3F7
:1038C000DEB292FBF0F300FB13230A2093FBF0F32C
:1038D000DFB292FBF0F300FB132000F0FF080A4672
:1038E00029462046FFF70BFF601CC0B2324629462E
:1038F000FFF705FFA01CC0B23A462946FFF7FFFEBE
:10390000E41CE0B242462946BDE8F041F7E62DE965
:10391000F04704460D4642F21070B2FBF0F1C9B216
:10392000B2FBF0F300FB13234FF47A70B3FBF0F318
:10393000DEB2B2FBF0F300FB13236420B3FBF0F321
:10394000DFB2B2FBF0F300FB13230A20B3FBF0F865
:10395000B2FBF0F300FB13290A4629462046FFF785
:10396000CEFE601CC0B232462946FFF7C8FEA01C3E
:10397000C0B23A462946FFF7C2FEE01CC0B242463A
:103980002946FFF7BCFE241DE0B24A462946BDE8A1
:10399000F047B4E67CB501210220FEF748F84FF469
:1039A0004054009401208DF8040000228DF8062078
:1039B0008DF8070002208DF805003E4D6946284627
:1039C000FDF722FE21462846FDF786FE4FF448709B
:1039D000FFF7C7F80021AE20FFF784FB002108465F
:1039E000FFF780FB00211020FFF77CFB0021402027
:1039F000FFF778FB0021B020FFF774FB0021812046
:103A0000FFF770FB0021FF20FFF76CFB0021A120D6
:103A1000FFF768FB0021A620FFF764FB0021A82028
:103A2000FFF760FB00213F20FFF75CFB0021C8206F
:103A3000FFF758FB0021D320FFF754FB0021084675
:103A4000FFF750FB0021D520FFF74CFB0021802021
:103A5000FFF748FB0021D820FFF744FB0021052099
:103A6000FFF740FB0021D920FFF73CFB0021F120AC
:103A7000FFF738FB0021DA20FFF734FB002112208A
:103A8000FFF730FB0021DB20FFF72CFB002130206B
:103A9000FFF728FB00218D20FFF724FB00211420D5
:103AA000FFF720FB0021AF20FFF71CFB7CBD704718
:103AB00070470000000402402DE9F0419CB0012154
:103AC0000E023046FDF7E3FF0121AF48FDF7AFFFDF
:103AD00006201A9003258DF86C5000248DF86F4055
:103AE0001AA9AA48FDF790FD16941994B0011890F0
:103AF0008000179016A8FDF7B8F9109401218DF8F1
:103B000044108DF845101294149402278DF85470C7
:103B1000DFF87C8210A94046FDF77CF901220723DB
:103B200011464046FDF7F3F90222072311464046AD
:103B3000FDF7EDF901214046FDF76EFA01214046FF
:103B4000FDF75EFADFF84C824046FDF727FB019453
:103B50008F484C3002900694C11408918E4803900F
:103B6000481007900991049405970A96C0010B909C
:103B70000C940D950E940F9401A94046FDF799FB06
:103B800001214046FDF7CEFB1CB0BDE8F08130B509
:103B90008DB001210846FDF74AFF01210D0228469C
:103BA000FDF775FF03218DF82010202107910024D7
:103BB0008DF8234007A97548FDF726FD0121284609
:103BC000FDF7A1FF00212846FDF79DFF0B94099406
:103BD00028020A900C9409A8FDF747F98DF80940CE
:103BE0000594039401208DF81800400601908DF88B
:103BF0000840674C01A92046FDF70CF90121204639
:103C0000FDF748F90DB030BD30B58DB00121084643
:103C1000FDF70DFF01214D022846FDF738FF032176
:103C20008DF8301010210B9100248DF833400BA932
:103C30005648FDF7E9FC01212846FDF764FF002105
:103C40002846FDF760FF09940794E80108900A945C
:103C500007A8FDF70AF98DF809400594039401209F
:103C60008DF81800400601908DF808404B4C01A9D2
:103C70002046FDF7CFF801212046FDF70BF9C1E7FB
:103C800031B507239DF800100122444C2046FDF772
:103C90003EF92046FDF775F902212046FDF754FA5A
:103CA0000028F9D02046FDF7A4F9C0F5807003F094
:103CB00087FA9FED3B1B53EC112B03F012FA03F034
:103CC000BCFA80B238BD31B507239DF8001001223F
:103CD0002F4C2046FDF71BF92046FDF752F9022133
:103CE0002046FDF731FA0028F9D02046FDF781F98A
:103CF000C0F5807003F064FA9FED291B53EC112B83
:103D000003F0EFF903F099FA80B238BD13B584B02F
:103D1000002400200290FF210191039020E09DF8F3
:103D20001000FFF7D0FF00909DF800009DF80810EC
:103D3000884202D99DF8000002909DF800009DF88D
:103D40000410884202D29DF8000001909DF8000006
:103D500004440520FEF705FF9DF80C00401C03906D
:103D60009DF80C009DF814108842D8D39DF80400EB
:103D70009DF80810201A411A9DF8140006B0801E04
:103D8000B1FBF0F080B210BD010040000000024025
:103D9000002001401064024070000020002101401A
:103DA000666666666666044010B57148016821F46F
:103DB00040210160016841F4802101606D4C0020C8
:103DC00020601420FEF7CDFE01202060BDE81040E9
:103DD0001E20FEF798BE38B500250095644801689E
:103DE00021F44021016001680160634C06E09DF808
:103DF0000000401C00900120FEF785FED4F824024C
:103E000018B19DF800006428F1D39DF800006428E3
:103E100001D3012038BD009506E09DF80000401C4C
:103E200000900120FEF76FFED4F8240218B99DF827
:103E300000006428F1D39DF80000642801D301201C
:103E400038BD002038BD38B5002500954A4C06E045
:103E50009DF80000401C00900120FEF754FED4F8AD
:103E6000240218B19DF800006428F1D3009506E003
:103E70009DF80000401C00900120FEF744FED4F89D
:103E8000240218B99DF800006428F1D32820FEF719
:103E90003AFED4F8240208B1012038BD002038BD14
:103EA0001CB50020009001900DE09DF8000040003E
:103EB0000090FFF7C8FF9DF80010084300909DF8A0
:103EC0000400401C01909DF804000828EDD39DF8E3
:103ED00000001CBDFEB505460E46FFF765FFFFF767
:103EE0007AFF08B10120FEBD0020009001AC08E07F
:103EF000FFF7D6FF9DF80020A0549DF80000401C5D
:103F000000909DF800000528F2D39DF804009DF86C
:103F1000051008449DF806109DF807201144084438
:103F20009DF80810884205D19DF8040030709DF876
:103F3000060028700020FEBD1CB501210220FDF7FF
:103F400076FD01208DF8040000218DF80610410255
:103F500000918DF8070002208DF80500694604489D
:103F6000FDF752FBFFF720FFFFF735FF1CBD0000F8
:103F700000040240A4824042008040421CB501215E
:103F80000220FDF754FD01208DF8040000218DF87A
:103F900006108DF807108DF8050003200090694683
:103FA000BB48FDF731FB1CBD1CB502200090012071
:103FB0008DF8040000218DF806108DF80500694683
:103FC000B348FDF721FB1CBD1CB502200090012069
:103FD0008DF8050000208DF804008DF80700694673
:103FE000AB48FDF711FB1CBD10B5FFF7DDFFA84C7A
:103FF00002212046FDF770FB01212046FDF76CFBF6
:104000001420FEF780FD02212046FDF767FB1420F7
:10401000FEF779FD2046BDE810400121FDF75EBBAB
:1040200010B5FFF7C1FF9A4C01212046FDF756FB62
:1040300002212046FDF752FB1420FEF764FD01210A
:104040002046FDF749FB02212046FDF745FBBDE870
:1040500010401420FEF757BD38B500200090FFF740
:10406000B3FF8B4C02212046FDF736FB0A20FEF7FA
:104070004AFD01212046FDF72FFB0A20FEF743FDF4
:104080000BE09DF80000401C00909DF80000FA280D
:1040900003D9FFF7C5FF012038BD02212046FDF7F7
:1040A00007FB0028EDD101212046FDF717FB00207A
:1040B00038BD10B5764C01212046FDF70FFBFFF708
:1040C00073FF02212046FDF709FB1420FEF71BFDBC
:1040D00001212046FDF700FB1420FEF714FD2046C9
:1040E000BDE810400121FDF7F9BA10B5684C012177
:1040F0002046FDF7F3FAFFF757FF02212046FDF7B0
:10410000EBFA1420FEF7FFFC01212046FDF7E4FA4C
:104110001420FEF7F8FC2046BDE810400121FDF711
:10412000DDBA11B581B0FFF73FFF594C01212046A0
:10413000FDF7D4FA0021009125E09DF8041009064E
:1041400004D502212046FDF7C7FA03E002212046EC
:10415000FDF7C4FA9DF80400410001911420FEF718
:10416000D2FC01212046FDF7B7FA1420FEF7CBFC64
:1041700001212046FDF7B2FA1420FEF7C4FC9DF899
:104180000010491C00919DF800000828D5D3BDE817
:104190001C401420FEF7B7BC71B581B00024FFF7B6
:1041A00013FF002000903A4D4FF6FF761AE00121F0
:1041B0002846FDF793FA1420FEF7A5FC01212846B6
:1041C000FDF78AFA06EA440402212846FDF770FA50
:1041D00008B1641CA4B21420FEF795FC9DF8000001
:1041E000401C00909DF800000828E0D39DF80400D2
:1041F00018B1FFF75EFF20467CBDFFF776FFFAE7B8
:1042000013B5FFF7F1FEB020FFF78BFFFFF724FF98
:104210009DF80000FFF785FFFFF71EFF9DF80400E3
:10422000FFF77FFFFFF718FFFFF7FAFEBDE81C401E
:104230006420FEF796BC10B5FFF7A0FE0321BDE891
:1042400010402020DCE738B5FFF7CEFEB120FFF7A5
:1042500068FFFFF701FF0120FFF79EFF0402012026
:10426000FFF79AFF04440120FFF796FF00909DF8A6
:104270000000009024020120FFF78EFF204404027A
:104280000020FFF789FF0444FFF7CAFE204638BD2F
:10429000000402401CB501210846FDF7C8FB0120BF
:1042A00000908DF8040000208DF8060003218DF8A1
:1042B00005108DF8070069460548FDF7A5F91CBDF6
:1042C00001210348FDF70ABA01210148FDF704BAAC
:1042D000000002401CB501210846FDF7A8FB0220A2
:1042E000009001208DF8040000208DF806000321C5
:1042F0008DF805108DF8070069460648FDF784F92A
:104300001CBD02210348FDF7E9B902210148FDF770
:10431000E3B90000000002401CB501210846FDF78A
:1043200086FB0420009001208DF8040000208DF809
:10433000060003218DF805108DF807006946064830
:10434000FDF762F91CBD04210348FDF7C7B904213C
:104350000148FDF7C1B90000000002401CB5012171
:104360000846FDF764FB0820009001208DF804004A
:1043700000208DF8060003218DF805108DF8070048
:1043800069460648FDF740F91CBD08210348FDF7C2
:10439000A5B908210148FDF79FB9000000000240BF
:1043A00000F1080141604FF0FF328260C16001619D
:1043B00000210160704700210161704742684A6036
:1043C00093688B6093685960916008610168491C2B
:1043D0000160704730B50C68621C02D000F1080221
:1043E00002E0026904E01A4653681D68A542FAD942
:1043F00053684B6099608A60516008610168491C8C
:10440000016030BD0169D0E901329A60D0E9012331
:104410005A604A68824201D182684A600022026181
:104420000868401E0860704770B504460D46002CB1
:1044300005D140F21B12F3A1F7A002F0E5FF02F054
:1044400063FCD4E90F20216802FB001161600021A8
:10445000A1632168A160E06B2268216C401E00FB13
:104460000121E1604FF0FF3084F8440084F84500FA
:1044700004F110004DB1FFF793FF04F12400FFF7A2
:104480008FFF02F05BFC012070BD21690029F8D08C
:1044900001F0D6FB0028F4D0E3494FF080500860CB
:1044A000BFF34F8FBFF36F8FEBE770B51D46049CD2
:1044B00000290BD02260E063216401212046FFF730
:1044C000B3FF84F850500020A06470BD2460F2E770
:1044D000F8B505460E461746002D05D14FF4C472B7
:1044E000C8A1CDA002F090FF86B105FB06F05430C4
:1044F00002F0AFFA04463CB104F154023B463146A7
:1045000028460094FFF7D1FF2046F8BD0020EEE7D3
:104510002DE9F041044617460026A56B226C002ABF
:1045200010D0C7B1E06802F081FCE168206C091A84
:10453000E1602268914202D26168081AE060022FAD
:1045400016D017E02068A8B9606801F091FC064613
:10455000002060600EE0A06802F068FC216CA0689A
:104560000844A0606168884204D32068A06001E02C
:1045700005B16D1E6D1CA5633046BDE8F0812DE9C7
:10458000F3410F460098846C0026002C05D140F6BC
:10459000CE129CA1A0A002F037FFA06BE16B884275
:1045A00005D340F6CF1297A19BA002F02DFFA06B80
:1045B000E16B88420CD294F945503A466946204650
:1045C000FFF7A6FF0646681C05D06D1C84F8455011
:1045D0003046BDE8FC81606A0028F9D004F124006F
:1045E00001F02EFB0028F3D00126F1E72DE9F04180
:1045F000044602F089FB94F9455004F1240613E0C7
:10460000A06C38B100212046FFF7B9FF50B101F08E
:10461000D3FB07E0606A48B1304601F011FB08B1F6
:1046200001F0CAFB6D1E6DB2002DE9DC4FF0FF36C4
:1046300084F8456002F082FB02F066FB94F9445076
:1046400004F1100709E0206948B1384601F0F8FA92
:1046500008B101F0B1FB6D1E6DB2002DF3DC84F8E2
:104660004460BDE8F04102F069BB10B5044602F0B9
:104670004BFBA06BE16B884201D1012400E00024D8
:1046800002F05CFB204610BD2DE9FF4782B00446D6
:104690008A4698460025002C05D140F2D92259A11E
:1046A0005DA002F0B1FEBAF1000F07D1206C28B175
:1046B00040F2DA2253A158A002F0A6FEB8F1020F90
:1046C00008D1E06B012805D040F2DB224DA152A0B9
:1046D00002F09AFE01F081FB38B9049828B140F24B
:1046E000DE2248A14CA002F08FFE4FF000094FF0EF
:1046F00080564D4F02F008FBA06BE16B884206D359
:10470000B8F1020F03D0049860B37DB333E04246A2
:1047100051462046FFF7FCFEA16C51B141462046B0
:10472000FFF72DFFC0B13E60BFF34F8FBFF36F8F18
:1047300012E0616A51B104F1240001F081FA58B12C
:104740003E60BFF34F8FBFF36F8F05E020B13E6037
:10475000BFF34F8FBFF36F8F02F0F0FA012006B066
:10476000BDE8F08702F0EAFA0020F8E7FFE76846C4
:1047700001F0D8FA012502F0E1FA00F054FE02F04F
:10478000C3FA94F94400401C01D184F8449094F990
:104790004500401C01D184F8459002F0CFFA04A9ED
:1047A000684601F0D1FA30B12046FFF71FFF00F054
:1047B0008FFD0020D3E72046FFF757FF88B104F1B3
:1047C0001000049901F0CDF92046FFF70FFF00F02B
:1047D0007FFD00288ED13E60BFF34F8FBFF36F8FF8
:1047E00088E72046FFF702FF00F072FD82E700280D
:1047F0001CD0002141600160C16000231A461946A7
:1048000042E700002E2E5C4672656552544F535CA1
:1048100071756575652E63004572726F723A257306
:104820002C25640D0A00000004ED00E0704710B56F
:10483000024600210120FFF74BFE04462046FFF709
:10484000D6FF204610BD10B50446002C07D140F21B
:104850004122AFF25001AFF2400002F0D5FD01F06D
:10486000B9FA616888420BD1E068401EE06028B95F
:1048700000231A4619462046FFF706FF012010BD07
:10488000002010BD10B5044602F03EFAA06B20B126
:10489000002402F053FA204610BD0124F9E730B499
:1048A0000B46026C002A0CD0C1681144C1604468F8
:1048B000A14201D30168C160C16830BC184602F052
:1048C000B5BA30BC70472DE9FF4F83B004468A4625
:1048D0009B460026002C07D140F2DC42AFF2DC01FF
:1048E000AFF2CC0002F090FDBAF1000F09D1206CBC
:1048F00038B140F2DD42AFF2F401AFF2E40002F071
:1049000083FD01F06AFA48B9059838B14FF49C620A
:10491000AFF21011AFF2001002F076FD4FF0000977
:104920004FF08057DFF8548602F0EEF9A56B95B38F
:10493000E66851462046FFF7B2FFBBF1000F13D0E7
:10494000E660606A50B104F1240001F079F928B101
:10495000C8F80070BFF34F8FBFF36F8F02F0EEF90E
:10496000012007B0BDE8F08F6D1EA563206810B967
:1049700001F098FB606020690028EFD004F110007E
:1049800001F05EF90028E9D0C8F80070BFF34F8F3E
:10499000BFF36F8FE2E7FFE7059808B126B107E0A4
:1049A00002F0CCF90020DCE701A801F0BBF90126F8
:1049B00002F0C4F900F037FD02F0A6F994F94400C2
:1049C000401C01D184F8449094F94500401C01D169
:1049D00084F8459002F0B2F905A901A801F0B4F9F4
:1049E00058B12046FFF702FE00F072FC2046FFF7A8
:1049F00049FF002898D00020B3E72046FFF742FF88
:104A0000E0B1206830B902F07FF9606801F0F1F997
:104A100002F094F904F12400059901F0A2F820466F
:104A2000FFF7E4FD00F054FC00287FF47DAFC8F8E8
:104A30000070BFF34F8FBFF36F8F75E72046FFF70E
:104A4000D5FD00F045FC6FE770B504460D46002C1F
:104A500007D14FF41E72AFF25421AFF2442002F09E
:104A6000D3FC01F0B7F96368984204D1E068401CB8
:104A7000E060012070BD00232A4619462046FFF75A
:104A800022FF0028F6D0E168491CE16070BD70B5D6
:104A900005460C46002D07D140F2BD22AFF29C2105
:104AA000AFF28C2002F0B0FCAC4207D940F2BE223B
:104AB000AFF2B021AFF2A02002F0A6FC022200214A
:104AC0002846FFF705FD002800D0846370BD2DE95E
:104AD000F0470446894615469846002C07D140F217
:104AE0009F32AFF2E021AFF2D02002F08DFCB9F19D
:104AF000000F09D1206C38B14FF46872AFF2FC217D
:104B0000AFF2EC2002F080FCB8F1020F0AD1E06BAA
:104B1000012807D040F2A132AFF21831AFF20830CD
:104B200002F072FC02F031F95020EFF3118780F3AC
:104B30001188BFF34F8FBFF36F8FA06BE16B88427B
:104B400006D3B8F1020F03D0002087F3118807E6DF
:104B500094F94560424649462046FFF7D9FC701C4F
:104B600004D0761C84F845600120EEE7A06C012695
:104B700048B141462046FFF702FD0028F4D0002D41
:104B8000F2D02E60F0E7606A0028EDD004F1240036
:104B900001F056F80028E7D0002DE5D02E60E3E7BD
:104BA0002DE9F04104460D46002C07D140F23C426D
:104BB000AFF2B031AFF2A03002F026FC206C38B179
:104BC0004FF48862AFF2C431AFF2B43002F01CFC93
:104BD000206848B9606838B140F24542AFF2DC3134
:104BE000AFF2CC3002F010FC02F0CFF85020EFF31F
:104BF000118680F31188BFF34F8FBFF36F8FA16BC6
:104C0000E06B884224D994F94500491CA163411CFA
:104C100004D0401C84F8450001201AE0A06C012754
:104C200048B100212046FFF7AAFC0028F4D0002D4F
:104C3000F2D02F60F0E7606A0028EDD004F1240084
:104C400000F0FEFF0028E7D0002DE5D02F60E3E75D
:104C5000002086F3118890E42DE9F0470446894648
:104C60009046002C07D14FF4B462AFF26841AFF226
:104C7000584002F0C9FBB9F1000F09D1206C38B1DE
:104C800040F2A152AFF28441AFF2744002F0BCFB9B
:104C900002F07BF85020EFF3118780F31188BFF307
:104CA0004F8FBFF36F8FA66BF6B194F9445049460E
:104CB0002046FFF7F4FD761EA663681C04D06D1C29
:104CC00084F84450012010E020690028FAD004F153
:104CD000100000F0B5FF0028F4D0B8F1000FF1D0BB
:104CE0000120C8F80000EDE7002087F3118837E5C0
:104CF0002DE9F04104460F46002C07D140F2FC524A
:104D0000AFF20051AFF2F04002F07EFB4FB9206CE1
:104D100038B140F2FD52AFF21451AFF2045002F03C
:104D200073FB206C38B940F2FE52AFF22851AFF25B
:104D3000185002F069FB02F028F85020EFF31185BB
:104D400080F31188BFF34F8FBFF36F8FA06B38B123
:104D5000E66839462046FFF7A2FDE660012000E044
:104D6000002085F3118808E410B50446002C07D113
:104D700040F22F62AFF27451AFF2645002F044FB84
:104D800001F0C2FFA46B01F0D9FF204610BD10B5A1
:104D90000446002C07D140F24162AFF29851AFF2C5
:104DA000885002F031FB01F0AFFFD4E90E10441A35
:104DB00001F0C4FF204610BD10B50446002C07D1F9
:104DC00040F25162AFF2C451AFF2B45002F01CFB9A
:104DD000A06B10BD00216A4A02EBC1035B688342ED
:104DE00006D1002042F8310002EBC1014860704753
:104DF000491C0829F0D3704710B50446002C07D190
:104E000040F25D62AFF20461AFF2F45002F0FCFADE
:104E10002046FFF7DFFF2046BDE8104001F080BECE
:104E2000C06C7047C164704790F85000704710B56F
:104E30000446002C07D140F29372AFF23861AFF212
:104E4000286002F0E1FAA06B08B1002010BD01203B
:104E500010BD10B50446002C07D140F2BA72AFF273
:104E60005C61AFF24C6002F0CFFAA06BE16B88425C
:104E700001D1012010BD002010BD10B50022404B13
:104E800053F832401CB1521C082AF9D310BD43F824
:104E9000321003EBC201486010BD10B500240021A0
:104EA000374A02EBC1035B68834202D152F83140BA
:104EB00002E0491C0829F4D3204610BD70B5044611
:104EC0000D46164601F020FF94F944304FF00000E3
:104ED0005B1C01D184F8440094F94510491C01D1B0
:104EE00084F8450001F02AFFA06B28B93246294614
:104EF00004F1240000F087FE2046BDE87040FFF773
:104F000075BB00220421FFF7E3BA70B504460D46D5
:104F100001F0FAFEA06C08B1002405E0A06B08B116
:104F2000002401E0A564012401F008FF204670BDC3
:104F300010B50446A06C884201D0002010BDA06BC3
:104F400008B1002010BD01F0DFFE0020A06401F0D8
:104F5000F5FE012010BD08B5002300930A466946FE
:104F6000FFF7B1FC009808BD08B5002100910022B0
:104F70006946FFF771FE009808BD000004ED00E0EF
:104F8000B801002070B50024FC4D04EB840005EB53
:104F90008000FFF705FA641C202CF6D3F848FFF7D1
:104FA000FFF9F7481430FFF7FBF9F5482830FFF711
:104FB000F7F9F3483C30FFF7F3F9F1485030FFF7C9
:104FC000EFF9F048EE49C1631431016470BD70B56A
:104FD000044601F099FEEB4DA868401CA8602868C3
:104FE00010B1686938B10CE02C60A868012808D1BC
:104FF000FFF7C8FF05E02868E16AC06A884200D868
:105000002C60686A401C68626064E06A01212A6959
:10501000814011432961D94900EB800001EB8000F8
:10502000211DFFF7CBF901F089FE686900280CD03B
:105030002868E16AC06A884207D2D3494FF080509D
:105040000860BFF34F8FBFF36F8F70BD2DE9F0473E
:105050008146DDE908580A9C0E4617469A46B90073
:10506000A522206B01F0F4FE206B7F1E00EB870071
:1050700020F00707780705D040F22B32C3A1C8A063
:1050800002F0C2F900202218315C82F83410315C41
:1050900011B1401C1028F6D3002684F84360202D5F
:1050A00000D31F25E562E5642665201DFFF783F91F
:1050B00004F11800FFF77FF92461C5F12000A06119
:1050C00064626665A66584F85C6052464946384667
:1050D00001F092FD2060B8F1000F01D0C8F8004047
:1050E000BDE8F0872DE9FF5F8146DDE90E788A464D
:1050F00016469B46B00001F0ACFC054628000AD0DD
:10510000602001F0A6FC04460CB1256304E02846AB
:1051100001F006FD00E000248CB10020CDE9024042
:10512000CDE900785B46324651464846FFF78EFF90
:105130002046FFF74CFF012004B0BDE8F09F4FF080
:10514000FF30F9E78F48C16B0968002905D0C16BB2
:10515000C968C9684968816270474FF0FF31816250
:10516000704710B50446206B01F0DAFC2046BDE81C
:10517000104001F0D5BC70B5044601F0C5FD814D6D
:1051800004B92C68201DFFF73DF958B9E06A7B4A45
:1051900000EB800152F8211021B9012181402869DA
:1051A00088432861A06A18B104F11800FFF72AF9B2
:1051B000686A401C68622868844208D17048211DD2
:1051C0003C30FFF7FBF86868401C686007E0A8689F
:1051D000401EA8602046FFF7C4FFFFF7B3FF01F0B1
:1051E000ADFD6869002812D0286884420FD1286B71
:1051F00028B140F2654265A169A002F005F9624953
:105200004FF080500860BFF34F8FBFF36F8F70BDBA
:105210002DE9F04100265B4F386B002808D0B869B3
:10522000401CB861F86900B101263046BDE8F08144
:10523000FD686D1CFD608DB9F86B006828B140F603
:10524000D91252A156A002F0DFF8F86B396CF9635D
:105250003864386A401C3862FFF774FFB86ADFF8B8
:105260001C8185420DD3F86B006838B1F86BC068BB
:10527000C468606885420ED2B86202E04FF0FF3029
:10528000B8623868C06A00EB800058F82000012836
:10529000C8D90126C6E7201DFFF7B4F8A06A18B1E7
:1052A00004F11800FFF7AEF8E06A01213A69814085
:1052B0001143396100EB800008EB8000211DFFF7EE
:1052C0007DF8E06A3968C96A8842CCD30126CAE70A
:1052D0002DE9F041002400272A4D286B002805D134
:1052E0004FF4FD6229A12EA002F08EF801F00CFD12
:1052F000286B401E2863286BF0BBA868E0B3DFF87A
:105300008080012608F128081DE0D8F80C00C46848
:1053100004F11800FFF776F8201DFFF773F8E06A34
:105320002A6906FA00F111432961144900EB800053
:1053300001EB8000211DFFF741F8E06A2968C96A86
:10534000884200D3EE61D8F800000028DDD10CB10E
:10535000FFF7F8FEAC6944B1FFF75AFF00B1EE6108
:10536000641E002CF8D10020A861E86920B1012753
:105370000549380708601BE01EE00000F801002026
:10538000780400207400002004ED00E02E2E5C461E
:1053900072656552544F535C7461736B732E630076
:1053A0004572726F723A25732C25640D0A00000055
:1053B000BFF34F8FBFF36F8F01F0C0FC384635E766
:1053C0002DE9F04104460F46F74EF5683068001DA0
:1053D000FFF718F838B9306890F82C100120884091
:1053E000316981433161601C07D137B13168BDE853
:1053F000F041091DED48FEF7E1BF2C4430684460E0
:10540000AC4206D23168306C091DBDE8F041FEF7B0
:10541000E1BF3168F06B091DFEF7DCFFB06A844222
:1054200000D2B46202E7E048016B491C0163704797
:105430002DE9F04105460E460024002D07D140F22B
:105440007942AFF2B801AFF2A80001F0DDFF3EB93A
:1054500040F27A42AFF2CC01AFF2BC0001F0D4FFCF
:10546000D14F386B38B140F27B42AFF2E001AFF27E
:10547000D00001F0C9FFFFF7D6FFFA682B68991931
:10548000934205D98B4208D9914206D9012404E000
:105490008B4201D8914200D9012429601CB1881A9D
:1054A0000021FFF78DFFFFF713FF002807D1C04948
:1054B0004FF080500860BFF34F8FBFF36F8FB5E69A
:1054C00010B504460020002C12D0B748006B38B14C
:1054D00040F2CF42AFF24C11AFF23C1001F094FF1A
:1054E000FFF7A1FF00212046FFF76AFFFFF7F0FE5C
:1054F000002807D1AE494FF080500860BFF34F8FAE
:10550000BFF36F8F10BD70B50546002D07D140F277
:10551000FB42AFF28811AFF2781001F075FFA24E96
:105520003068854201D1002070BD01F0EDFB6C694F
:1055300001F004FCF06B844202D0306C844201D153
:10554000022070BD9948844205D1A86A08B10220A2
:1055500070BD032070BD95481438844202D00CB150
:10556000012070BD042070BD10B5044601F0CCFBD5
:105570000CB98D480468E46A01F0E0FB204610BDD8
:1055800010B5044601F001FC5020EFF3118180F3C7
:105590001188BFF34F8FBFF36F8F0CB98248046837
:1055A000E06A81F3118810BD2DE9F04104460D46F3
:1055B0000026202D07D34FF4B062AFF23021AFF2B6
:1055C000202001F021FF202D00D31F2501F09CFB9E
:1055D000754F04B93C68E06CA84241D0854208D9B7
:1055E00039688C4209D03968C96AA94205D80126B0
:1055F00003E039688C4200D10126D4F82C80404564
:1056000000D1E562E564A069002802DBC5F1200055
:10561000A061684D08EB8801606905EB8101884253
:1056200015D1201DFEF7EEFE012120B93A6901FADD
:1056300008F082433A61E06A3A6981401143396176
:1056400000EB800005EB8000211DFEF7B7FE3EB1A8
:1056500057494FF080500860BFF34F8FBFF36F8FF3
:10566000BDE8F04101F06ABB70B54F4D286B0028D2
:1056700002D00120E86170BD0020E8614E49086851
:105680004968A8636A6B904204D92968821A4B6DF5
:105690001A444A6568632869B0FA80F0C0F11F00B7
:1056A000444E00EB800456F8240038B940F6F62248
:1056B000AFF22831AFF2183001F0A6FE06EB8400FD
:1056C00041684968416000F10802914201D149688E
:1056D00041604068C068286070BD70B5044601F044
:1056E00013FB314D04B92C68201DFEF78BFE58B911
:1056F000E06A304A00EB800152F8211021B9012103
:105700008140286988432861A06A18B104F1180013
:10571000FEF778FE211D2548FEF750FE01F00EFB36
:10572000686928B101F0F0FAFFF70CFD01F006FB03
:105730002868844213D1686990B1286B38B140F26F
:105740005762AFF2B831AFF2A83001F05DFE1849F0
:105750004FF080500860BFF34F8FBFF36F8F70BD65
:105760001248A9680068884202D10020286070BDF4
:10577000BDE8704078E770B500250446002807D1E1
:1057800040F28162AFF2FC31AFF2EC3001F03CFE4E
:1057900006496069884205D1A06A2839884201D04B
:1057A00000B90125284670BD74000020C8040020FF
:1057B00004ED00E0F80100206800002070B5044608
:1057C000002807D140F2AB62AFF24041AFF2304067
:1057D00001F01AFE002CE6D0FE4D28688442E2D08B
:1057E00001F092FA2046FFF7C6FFE8B1201DFEF750
:1057F00009FEE06A01212A69814011432961F649C5
:1058000000EB800001EB8000211DFEF7D7FDE06A70
:105810002968C96A884207D3F0494FF08050086070
:10582000BFF34F8FBFF36F8FBDE8704001F086BAB2
:10583000B9E72DE9F04100260446002807D140F2DF
:10584000E262AFF2B841AFF2A84001F0DDFD01F035
:105850009CFA5020EFF3118580F31188BFF34F8F2E
:10586000BFF36F8F2046FFF786FF38B1D94F386BF3
:1058700040B104F11801DA48FEF7A0FD85F3118864
:105880003046D3E4E06A3968C96A884200D3012609
:10589000201DFEF7B7FDE06A01213A6981401143FE
:1058A0003961CD4900EB800001EB8000211DFEF73E
:1058B00085FDE3E770B5CA4EC64D14361CE0FFF710
:1058C000B2FD306820B10024FFF702FDA4B901E069
:1058D0000124F9E701F018FAF068C468201DFEF70A
:1058E00091FDA868401EA8606868401E686001F0CD
:1058F00025FA2046FFF735FC68680028DFD152E71B
:10590000B54E4FF08054B54DFFF7D4FF30680128F5
:10591000FAD92C60BFF34F8FBFF36F8FF4E71CB53C
:10592000AC4800242C30CDE9004023468222ADA1B2
:10593000AE48FFF7D7FB012801D100F01EFF012878
:105940000CD0401C1ED140F28472AFF2C051AFF2B5
:10595000B05002B0BDE8104001F056BD502080F3B9
:105960001188BFF34F8FBFF36F8F9A484FF0FF310D
:10597000816201214161C460FDF778FABDE81C40F5
:1059800001F056B91CBD502080F31188BFF34F8F32
:10599000BFF36F8F8F490020486101F0A9B98D488E
:1059A000C068704710B501F0F0F98A48C06810BDB2
:1059B00088488068704710B5002802D004461CB1A2
:1059C0000AE084480468FAE740F68C02AFF24461CA
:1059D000AFF2346001F018FD04F1340010BD002175
:1059E00001E0401C491C0278A52AFAD0880880B240
:1059F00070472DE9F04107460C4690461E46002FA1
:105A00000ED03D46256005F134006060E86A2061F3
:105A1000286BE061686CA060207B032803D00AE05B
:105A20006C480568EEE7FFF7FEFCA86A08B10220A3
:105A30002073FFF74DFCE86C6061686DA061052E76
:105A400001D0267303E03846FFF75DFD2073B8F1FF
:105A5000000F04D0286BFFF7C2FF2084AFE40020C2
:105A60002084ACE42DE9F04780460C4691460026A0
:105A70002068002821D0214648684068486001F12C
:105A80000807B84201D1406848604868D0F80CA0C7
:105A9000606845686560BD4201D1696861606068A1
:105AA000C56806EBC60008EB80014B46012228467C
:105AB000FFF79FFF761C5545EAD13046BDE8F087D9
:105AC0002DE9F04706460B46174600242025FFF730
:105AD000AAFCDFF80081D8F8080083423DD3DFF844
