:020000040800F2
:100000000005002021040008F5010008F7010008A0
:10001000FB010008FF0100080302000800000000C7
:1000200000000000000000000000000007020008BF
:1000300009020008000000000B0200080D02000881
:100040003B0400083B0400083B0400083B04000894
:100050003B0400083B0400083B0400083B04000884
:100060003B0400083B0400083B0400083B04000874
:100070003B0400083B0400083B0400083B04000864
:100080003B0400083B0400083B0400083B04000854
:100090003B0400083B0400083B0400083B04000844
:1000A0003B0400083B0400083B0400083B04000834
:1000B0003B040008F52700083B0400083B04000847
:1000C0003B0400083B0400083B0400083B04000814
:1000D0003B040008552500083B0400083B040008C9
:1000E0003B0400083B0400083B0400083B040008F4
:1000F0003B0400083B0400083B0400083B040008E4
:100100003B0400083B040008092800083B040008E1
:100110003B0400083B0400083B0400083B040008C3
:100120003B0400083B0400083B0400083B040008B3
:100130003B0400083B0400083B0400083B040008A3
:100140003B0400083B0400083B0400083B04000893
:100150003B0400083B0400083B0400083B04000883
:100160003B0400083B0400083B0400083B04000873
:100170003B0400083B0400083B0400083B04000863
:100180003B0400083B040008DFF80CD003F0A8FE95
:10019000004800479D010008000500201CB5002014
:1001A00001900090A82002F0E3F84FF4E13002F053
:1001B00075F902F03BFB02F056FB03F037F902F051
:1001C0008AFC03F0C5F903F0C3FB03F002FA5321E4
:1001D00044F61F6002F057FA06E004A003F092FE16
:1001E00040F2DC5002F026F9F7E700007364776113
:1001F00073640000704700BFFEE700BFFEE700BF6A
:10020000FEE700BFFEE77047704770477047000089
:100210000CB50020019000907648006840F48030D2
:100220007449086000BF7348006800F40030009013
:100230000198401C0190009818B90198B0F5A04FA2
:10024000F1D16C48006800F4003010B1012000903A
:1002500001E0002000900098012846D16548403018
:10026000006840F08050634940310860624800688F
:1002700040F44040604908605E48083000685D49CD
:10028000083108600846006840F4004008600846ED
:10029000006840F4A05008605848091F0860081F13
:1002A000006840F08070091F086000BF5148006876
:1002B00000F000700028F9D040F205705049086045
:1002C0004C480830006820F003004A4908310860B3
:1002D0000846006840F00200086000BF454808304A
:1002E000006800F00C000828F8D10CBD10B5454896
:1002F000006840F47000434908603E48006840F0E0
:1003000001003C49086000203A490831086039483A
:1003100000683D490840374908603C48091D0860AD
:10032000081F006820F48020091F08600020314960
:100330000C310860FFF76CFF4FF0006031498039E5
:10034000086010BD70B500200022022300240221A5
:10035000284D08352D6805F00C0020B1042806D082
:10036000082834D107E02A4D2A4E356033E02A4D63
:10037000284E35602FE01F4D2D1D2D68C5F380548C
:100380001C4D2D1D2D6805F03F0154B1224DB5FBCC
:10039000F1F5184E361D3668C6F3881605FB06F2D1
:1003A00009E01B4DB5FBF1F5124E361D3668C6F35C
:1003B000881605FB06F20F4D2D1D2D68C5F301456E
:1003C0006D1C6B00B2FBF3F5124E356003E0104D6F
:1003D000104E356000BF00BF064D08352D68C5F3CF
:1003E00003150E4E705D0B4D2D68C540094E3560EE
:1003F00070BD000000380240007000400854400703
:10040000003C024088ED00E0FFFFF6FE10300024C3
:100410000024F4000000002000127A0004000020F4
:100420000648804706480047FEE7FEE7FEE7FEE78E
:10043000FEE7FEE7FEE7FEE7FEE7FEE7ED02000867
:100440008901000832490143324A1160704770B592
:10045000002100230F22C4781CB32E4C246804F41E
:10046000E064C4F5E064C4F30721C1F10404E3B21D
:100470000A4144789C40E1B28478144021430C073F
:10048000210E254C05786155047804F01F050124E0
:10049000AC4005786D11AD0005F1E025C5F80041CF
:1004A00009E0047804F01F050124AC401B4D0678D8
:1004B000761145F8264070BD194A0A400243154B93
:1004C0001B1F1A60704739B1124A121D126802438D
:1004D000104B1B1D1A6006E00E4A121D1268824363
:1004E0000C4B1B1D1A607047042808D14FF0E02107
:1004F000096941F004014FF0E022116107E04FF07B
:10050000E021096921F004014FF0E02211617047F8
:100510000000FA050CED00E000E400E080E100E0FE
:1005200080FFFF1F10B50121080200F000FE00212E
:100530004FF4807000F0FBFD10BD30B50246002086
:1005400000235068F84C20400D790C6844EA0524DB
:10055000204350609068F54C2040D1E903542C436F
:100560008D682C434D7944EA450420439060D06A5D
:1005700020F470000C7D641EE4B2234340EA035073
:10058000D06230BD00210160017141718160C160A4
:1005900001610121017570470021E54A1168E54AB2
:1005A0001140D0E900231A4383681A43C3681A43F1
:1005B0001143E14AC2F80413704700210160416011
:1005C0008160C160704721B1826842F0010282609F
:1005D00003E0826822F00102826070470A4600212F
:1005E0004168D64B194011434160704741628262B5
:1005F00070470A460021416821F01F011143416004
:10060000704738B1CA49096841F40001CA4AC2F8C2
:10061000041306E0C649096821F40001C64AC2F87D
:100620000413704738B1C249096841F48001C24AD5
:10063000C2F8041306E0BE49096821F48001BE4AED
:10064000C2F804137047F0B504460D46002000219F
:10065000092D11DDE068A5F10A0606EB460707261D
:1006600006FA07F18843A5F10A0606EB460603FAE7
:1006700006F10843E0600CE0206905EB450707261A
:1006800006FA07F1884305EB450603FA06F108432D
:100690002061072A0FDA606B561E06EB86071F26BD
:1006A00006FA07F18843561E06EB860605FA06F1A0
:1006B0000843606322E00D2A0FDA206BD61F06EB99
:1006C00086071F2606FA07F18843D61F06EB860623
:1006D00005FA06F10843206310E0E06AA2F10D0676
:1006E00006EB86071F2606FA07F18843A2F10D06DE
:1006F00006EB860605FA06F10843E062F0BD816864
:1007000041F0804181607047014600208A6802F014
:1007100080420AB1012000E00020704721B18268C8
:1007200042F48062826003E0826822F48062826028
:10073000704721B1826842F00202826003E0826861
:1007400022F002028260704710B50A4600210023A1
:10075000416821F46041531E41EA4331416010BDBC
:1007600021B1426842F40062426003E0426822F430
:100770000062426070470146C86C80B270476C48A6
:10078000001D0068704721B1826842F48072826067
:1007900003E0826822F480728260704721B182682F
:1007A00042F40072826003E0826822F40072826088
:1007B000704738B15E49096841F400515E4AC2F899
:1007C000041306E05A49096821F400515A4AC2F854
:1007D00004137047F0B50446154600200022002699
:1007E000092911DDE068A1F10A0707EB470C07278B
:1007F00007FA0CF29043A1F10A0707EB470703FA47
:1008000007F21043E0600CE0206901EB410C072780
:1008100007FA0CF2904301EB410703FA07F2104389
:100820002061A06BC0F30156EF1C06F1010CA7EB91
:100830000C0707EB870C1F2707FA0CF29043EF1CFD
:1008400006F1010CA7EB0C0707EB870701FA07F28B
:100850001043A063F0BD10B50A4600210023816B50
:1008600021F44011531E41EA0351816310BD08B5C4
:10087000002300930090009B0B440093009B1A60A0
:1008800008BD0A460021816821F47021114381606E
:1008900070470A460021816821F4401111438160AC
:1008A0007047816841F480018160704701460020F3
:1008B0008A6802F480020AB1012000E0002070473B
:1008C00021B1426842F48062426003E0426822F44F
:1008D00080624260704721B1426842F480524260B7
:1008E00003E0426822F480524260704708B5024635
:1008F00000200090009201F12800009B1844009015
:100900000098006880B208BD10B50B460021D9B22E
:10091000012404FA01F11AB144680C43446002E076
:1009200044688C43446010BDFFFEFFFCFDF7FFC030
:1009300004230140E030FCFF00200140FFFD3FFFA9
:100940000246002013680B400BB1012000E000209C
:100950007047CA430260704770B50246002000230A
:1009600000240B12556801268E4005EA060415681E
:100970001D4015B10CB1012000E0002070BD002227
:100980000A12D3430360704710B504469848844266
:1009900008D10121084600F086FB0021012000F06B
:1009A00082FB76E09348844208D10121022000F0C6
:1009B0007AFB0021022000F076FB6AE08E48844238
:1009C00008D10121042000F06EFB0021042000F07A
:1009D0006AFB5EE08948844208D10121082000F0CA
:1009E00062FB0021082000F05EFB52E08448844254
:1009F00008D10121102000F056FB0021102000F04A
:100A000052FB46E07F48844208D10121202000F0BB
:100A10004AFB0021202000F046FB3AE07A4884425D
:100A200008D10121402000F03EFB0021402000F0D1
:100A30003AFB2EE07548844208D10121802000F065
:100A400032FB0021802000F02EFB22E0704884421F
:100A500008D10121801500F026FB0021A01500F02F
:100A600022FB16E06B48844208D10121401500F0BA
:100A70001AFB0021601500F016FB0AE0664884426C
:100A800007D10121001500F00EFB0021201500F018
:100A90000AFB10BDF0B50A4600210023002400BF68
:100AA0003DE0012505FA01F3156805EA03049C42BF
:100AB00034D105684F000326BE40B5430560157963
:100AC0004E00B5400668354305601579012D02D00A
:100AD0001579022D16D185684F000326BE40B54317
:100AE000856055794E00B540866835438560456818
:100AF00001268E40B5434560456896798E40B6B272
:100B000035434560C5684F000326BE40B543C56008
:100B1000D5794E00B540C6683543C560491C1029DB
:100B2000BFD3F0BD4FF6FF7101600021017141712B
:100B30008171C171704708B54FF480320092009AFC
:100B40000A430092009AC261C161009AC261C269FF
:100B50000092C269009208BD0246002013690B4052
:100B60000BB1012000E0002070470146086980B207
:100B700070470246002053690B400BB1012000E092
:100B8000002070470146486980B270470183704772
:100B9000418370470AB1018300E04183704741619E
:100BA000704742694A4042617047F0B50023002413
:100BB0004D07ED0E02FA05F3CE1000F1200555F8B1
:100BC00026504E07F70E0F26BE40B543CF1000F15A
:100BD000200646F82750CE1000F1200555F8265083
:100BE00045EA0304CE1000F1200545F82640F0BD8B
:100BF000000002400004024000080240000C0240D5
:100C0000001002400014024000180240001C024084
:100C1000002002400024024000280240F9480068F9
:100C200040F00100F74908600020F64908310860EB
:100C3000F4480068F4490840F2490860F348091D87
:100C40000860F348EF4984310860F0481038091D06
:100C50000860EC48006820F48020EA490860002021
:100C6000E8490C310860E7498C3108607047002181
:100C7000E44A921C117011460870704710B5014685
:100C80000022002300204A11012A02D1DD4C2368F2
:100C900008E0022A03D1DB4C7034236802E0D94C0F
:100CA0007434236801F01F02012494401C400CB1ED
:100CB000012000E0002010BD38B500200090002485
:100CC000002500BF3120FFF7D9FF05460098401CE2
:100CD00000900098B0F5A04F01D0002DF2D0312047
:100CE000FFF7CCFF08B1012400E00024204638BD06
:100CF00001460020C34A106820F0F80040EAC10015
:100D000010607047C349086070470021BD4A7032C7
:100D100011701170012802D004280AD104E00121C9
:100D2000B84A7032117005E00521B64A7032117070
:100D300000E000BF00BF7047B7490860704770B55A
:100D4000049C41EA82150126C6EB530645EA064596
:100D5000054345EA0465AB4E361D356070BDAD49AF
:100D600008667047820142EA0172A64B84331A601A
:100D70007047A8498866704710B5830143EA01634C
:100D800043EA02739F4C8834236010BDA149086771
:100D90007047A049C864704702460020994B083349
:100DA000186820F0EC6042EA01031843954B0833C1
:100DB0001860704702460020924B0833186820F0F4
:100DC000784042EA010318438E4B0833186070479D
:100DD000014600208B4A0832106820F003000843C7
:100DE0001060704787480830006800F00C007047BA
:100DF00001460020834A0832106820F0F0000843C2
:100E000010607047014600207E4A0832106820F4C6
:100E1000E05008431060704701460020794A0832CC
:100E2000106820F4604040EAC10010607047F0B5DF
:100E3000002100220024022500260223714F0837DA
:100E40003F6807F00C0121B1042905D0082937D1EA
:100E500005E0724F076036E0714F076033E0694F7D
:100E60003F1D3F68C7F38056664F3F1D3F6807F040
:100E70003F036EB16A4FB7FBF3F7DFF888C10CF19F
:100E8000040CDCF800C0CCF3881C07FB0CF40CE06D
:100E9000624FB7FBF3F7DFF86CC10CF1040CDCF820
:100EA00000C0CCF3881C07FB0CF4564F3F1D3F6875
:100EB000C7F301477F1C7D00B4FBF5F7076002E034
:100EC000564F076000BF00BF4E4F08373F6807F01E
:100ED000F0010909534F7A5C0768D7404760494FD2
:100EE00008373F6807F4E051890A4E4F7A5C47683B
:100EF000D7408760434F08373F6807F46041490B8C
:100F0000484F7A5C4768D740C760F0BD002100F4C5
:100F10004072B2F5407F0AD13A4A0832116821F492
:100F2000F811414A02401143364A08321160354AED
:100F300070321268C0F30B031A43324B70331A60DD
:100F40007047354944390860704733494039086073
:100F5000704736490860704701460020294A8C32A4
:100F6000106820F01F004A1E1043264A8C32106081
:100F7000704701460020234A8C32106820F4F85054
:100F80004A1E40EA02201F4A8C3210607047014618
:100F900000201C4A8C32106820F440100843106076
:100FA000704701460020174A8C32106820F4400038
:100FB00008431060704701460020124A8C321068C6
:100FC00020F44030084310607047194908607047AA
:100FD00039B10C4A3032126802430A4B30331A607E
:100FE00006E0084A303212688243064B30331A60FA
:100FF0007047F9B1034A343212680243014B34336B
:101000001A601CE000380240FFFFF6EA10300024AE
:101010000030002000004742800E47420024F400C8
:1010200000127A0014000020FFFCFF0F5C01474211
:10103000E01147428F4A126882438E4B1A60704714
:1010400039B18C4A121D126802438A4B1B1D1A606B
:1010500006E0884A121D12688243864B1B1D1A60E7
:10106000704739B1834A0C3212680243814B0C330A
:101070001A6006E07F4A0C32126882437D4B0C33C3
:101080001A60704739B17B4A103212680243794BBB
:1010900010331A6006E0774A103212688243754BAB
:1010A00010331A60704739B1724A243A1268024309
:1010B000704B243B1A6006E06E4A243A1268824361
:1010C0006C4B243B1A60704739B16A4A203A126867
:1010D0000243684B203B1A6006E0664A203A1268D9
:1010E0008243644B203B1A60704739B1614A1C3A15
:1010F000126802435F4B1C3B1A6006E05D4A1C3AD3
:10110000126882435B4B1C3B1A60704739B1594AE5
:10111000143A12680243574B143B1A6006E0554AD2
:10112000143A12688243534B143B1A60704739B12A
:10113000504A103A126802434E4B103B1A6006E0C8
:101140004C4A103A126882434A4B103B1A6070476F
:1011500039B1484A1C3212680243464B1C331A60AC
:1011600006E0444A1C3212688243424B1C331A6028
:10117000704739B13F4A2032126802433D4B203359
:101180001A6006E03B4A203212688243394B203312
:101190001A60704739B1374A243212680243354B1E
:1011A00024331A6006E0334A243212688243314BFA
:1011B00024331A60704739B12E4A2C321268024328
:1011C0002C4B2C331A6006E02A4A2C3212688243D8
:1011D000284B2C331A60704739B1264A30321268D6
:1011E0000243244B30331A6006E0224A3032126840
:1011F0008243204B30331A607047012808D11D49C3
:101200003C31096841F008011A4A3C32116007E09C
:1012100018493C31096821F00801164A3C32116036
:10122000704739B1134A273A12780243114B273BD2
:101230001A7006E00F4A273A127882430D4B273B7B
:101240001A7070470B484030006840F080700949C0
:1012500040310860704701460020064A283A12686B
:101260000A400AB1012000E00020704701492639F8
:10127000087070473438024010B50446FE48844276
:1012800008D101210846FFF752FF00210120FFF796
:101290004EFF9DE0B4F1804F08D101210846FFF7D1
:1012A00035FF00210120FFF731FF91E0F348844230
:1012B00008D101210220FFF729FF00210220FFF7BA
:1012C00025FF85E0EE48844208D101210420FFF784
:1012D0001DFF00210420FFF719FF79E0E94884424F
:1012E00008D101210820FFF711FF00210820FFF796
:1012F0000DFF6DE0E448844208D101211020FFF782
:1013000005FF00211020FFF701FF61E0DF48844264
:1013100008D101212020FFF7F9FE00212020FFF74E
:10132000F5FE55E0DA48844208D101210220FFF79A
:10133000FEFE00210220FFF7FAFE49E0D548844274
:1013400009D101210804FFF7F2FE00214FF480309B
:10135000FFF7EDFE3CE0D048844209D1012148046A
:10136000FFF7E5FE00214FF40030FFF7E0FE2FE02D
:10137000CA48844209D101218804FFF7D8FE002120
:101380004FF48020FFF7D3FE22E0C548844208D105
:1013900001214020FFF7BAFE00214020FFF7B6FEF2
:1013A00016E0C048844208D101218020FFF7AEFE3C
:1013B00000218020FFF7AAFE0AE0BB48844207D143
:1013C00001218015FFF7A2FE0021A015FFF79EFE68
:1013D00010BD00220288A84B98420ED0AC4B984218
:1013E0000BD0B0F1804F08D0A44B984205D0A44B4D
:1013F000984202D0A34B984204D14FF68F731A4003
:101400004B881A43A04B984207D0A04B984204D077
:101410004FF6FF431A400B891A4302804B68C362A0
:101420000B880385944B984202D0994B984201D186
:101430008B7A03860123838270474FF0FF3141602E
:101440000021018001814180817270470185828283
:1014500070470A46002101884FF68F7319401143E7
:101460000180704741627047C16270470146486A17
:1014700070470146088D704721B1028842F0020290
:10148000028004E002884FF6FD731A400280704724
:1014900021B1028842F00402028004E002884FF683
:1014A000FB731A400280704721B1028842F080022B
:1014B000028004E002884FF67F731A400280704772
:1014C00002884FF6F7731A40028002880A430280AE
:1014D000704702884FF6FF431A40028002880A4391
:1014E0000280704721B1028842F00102028004E0CC
:1014F00002884FF6FE731A400280704770B50024D0
:1015000000220023058C4FF6FE7635400584028CC0
:101510008388048B4FF68F752C40B51E2C400D88A8
:101520002C43751E2A408D892A434D882A43524DEB
:10153000A84202D0564DA84213D14FF6F7752A4063
:10154000CD892A434FF6FB752A408D882A434FF6F2
:10155000FF652B404FF6FF552B400D8A2B434D8ADC
:101560002B43838004838D684563028470BD70B50E
:10157000002400220023058C4FF6EF7635400584C9
:10158000028C8388048B48F6FF752C404FF6FF458C
:101590002C400D884FF6FF7606EA05252C434FF6C2
:1015A000DF752A408D8906EA05152A434D8806EA2B
:1015B00005152A43304DA84202D0354DA8421DD111
:1015C0004FF67F752A40CD894FF6FF7606EA05155E
:1015D0002A434FF6BF752A408D8806EA05152A432F
:1015E0004FF6FF352B404FF2FF752B400D8A06EA70
:1015F00085052B434D8A06EA85052B4383800483AA
:101600008D688563028470BD70B5002400220023BC
:10161000058C4FF6FF6635400584028C8388848BE9
:101620004FF68F752C404FF6FC752C400D882C43DF
:101630004FF6FF552A408D894FF6FF7606EA0525BD
:101640002A434D8806EA05252A430B4DA84202D0BD
:101650000F4DA84238D14FF2FF752A40CD894FF681
:10166000FF7606EA05252A434FF6FF352A408D8886
:1016700006EA05252A4319E0000001400004004065
:1016800000080040000C0040001000400014004022
:101690000004014000400140004401400048014076
:1016A00000180040001C0040002000404EF6FF756E
:1016B0002B404DF6FF752B400D8A06EA05152B438E
:1016C0004D8A06EA05152B43838084838D68C563A4
:1016D000028470BD70B5002200230024058C4EF6F4
:1016E000FF7635400584038C8488828B48F6FF752D
:1016F0002A404FF6FF452A400D884FF6FF7606EA4E
:1017000005252A434DF6FF752B408D8906EA0535E0
:101710002B434D8806EA05352B43FE4DA84202D0E7
:10172000FD4DA84208D14BF6FF752C400D8A4FF6AF
:10173000FF7606EA85152C43848082838D680564D4
:10174000038470BD0021018041808180816081819E
:10175000C18101824182704770B503460020002498
:101760001846183001258D40ACB21D8CA5431D8450
:1017700009B108290AD100EB610005684FF68F76A0
:10178000354005600568154305600FE00D1FC5F382
:101790004E052844056848F6FF7635400560056823
:1017A0004FF6FF7606EA02263543056070BD4163B9
:1017B000704781637047C1637047016470470A4690
:1017C0000021018B4FF68F7319401143018370473D
:1017D0000A460021018B48F6FF7319404FF6FF734C
:1017E00003EA02231943018370470A460021818BD3
:1017F0004FF68F7319401143818370470A460021C9
:10180000818B48F6FF7319404FF6FF7303EA0223FA
:101810001943818370470A460021018B4FF6F77305
:1018200019401143018370470A460021018B4FF292
:10183000FF7319404FF6FF7303EA02231943018334
:1018400070470A460021818B4FF6F7731940114308
:10185000818370470A460021818B4FF2FF73194044
:101860004FF6FF7303EA02231943818370470A4648
:101870000021018B4FF6FB73194011430183704720
:101880000A460021018B4FF6FF3319404FF6FF73D4
:1018900003EA02231943018370470A460021818B22
:1018A0004FF6FB7319401143818370470A460021AC
:1018B000818B4FF6FF3319404FF6FF7303EA022383
:1018C0001943818370470A460021018B4FF67F73CD
:1018D00019401143018370470A460021018BC1F36F
:1018E0000E014FF6FF7303EA022319430183704789
:1018F0000A460021818B4FF67F7319401143818383
:1019000070470A460021818BC1F30E014FF6FF7329
:1019100003EA02231943818370470A460021018CA0
:101920004FF6FD7319401143018470470A460021A8
:10193000018C4FF6F77319401143018470470A4632
:101940000021018C4FF6DF7319404FF6FF7303EA55
:1019500002131943018470470A460021018C4FF697
:101960007F7319404FF6FF7303EA02131943018492
:1019700070470A460021018C4FF6FF5319404FF67D
:10198000FF7303EA02231943018470470A460021CA
:10199000018C4FF2FF7319404FF6FF7303EA0223E5
:1019A0001943018470470A460021018C4DF6FF73EC
:1019B00019404FF6FF7303EA02331943018470475D
:1019C00030B5002301248C40A3B2048C9C430484D2
:1019D000048C02FA01F5ADB22C43048430BD30B55D
:1019E000002304248C40A3B2048C9C430484048C04
:1019F00002FA01F5ADB22C43048430BD828B4FF264
:101A0000FF331A408283828B4FF6FF7303EA012370
:101A10001A4382837047F0B50C4615460021002218
:101A20000026078C4EF6FF7C07EA0C070784818BA3
:101A3000028C4FF6FF7707EA043640F6FF4739403D
:101A40004FF6FF7707EA052739434FF6FF7707EA96
:101A50000337394345F6FF773A4046F480573A4317
:101A600081830284F0BD828B4FF6F3731A40828328
:101A7000828B0A4382837047F0B50C4615460021DD
:101A800000220026078C4FF6FF6C07EA0C0707843C
:101A9000818B028C4FF6FF7707EA04264FF60C770E
:101AA00039404FF6FF7707EA03172F4339434FF2C8
:101AB000FF573A4046F480773A4381830284F0BD71
:101AC000028B4FF2FF331A400283028B4FF6FF73F3
:101AD00003EA01231A4302837047F0B50C4615460A
:101AE000002100220026078C4FF6EF7C07EA0C0746
:101AF0000784018B028C4FF6FF7707EA041640F645
:101B0000FF4739404FF6FF7707EA033739434FF66F
:101B1000FF7703E0000001400004014007EA0527C9
:101B200039434FF65F773A4046F010073A43018356
:101B30000284F0BD028B4FF6F3731A400283028BCE
:101B40000A4302837047F0B50C4615460021002277
:101B5000068C4FF6FE773E400684018B028C4FF6D2
:101B60000C7631407E1C06EA03162E4331434FF6B5
:101B7000F576324044F00106324301830284F0BD21
:101B800070B505460C46208850B92389A288618823
:101B90002846FFF7D8FFE1882846FFF7CBFF25E06E
:101BA000208804280AD12389A28861882846FFF763
:101BB00094FFE1882846FFF783FF17E02088082874
:101BC0000AD12389A28861882846FFF755FFE1885A
:101BD0002846FFF748FF09E02389A2886188284644
:101BE000FFF719FFE1882846FFF708FF70BD0021C5
:101BF00001804180012181800021C18001817047E5
:101C00002DE9F04105460C4600260127608808B9F9
:101C1000022600E00026A088012801D1022700E06A
:101C200001272088A0B92389A28861882846FFF768
:101C30008AFFE1882846FFF77DFF23893A4631462F
:101C40002846FFF74AFFE1882846FFF739FF13E0EF
:101C50002389A28861882846FFF73FFFE18828464C
:101C6000FFF72EFF23893A4631462846FFF76BFFE0
:101C7000E1882846FFF75EFFBDE8F0810146486B2A
:101C800070470146886B70470146C86B7047014634
:101C9000086C70470A884B881A438B881A43CB8894
:101CA0001A430B891A434B891A438B891A43A0F8AC
:101CB000442070470021018041808180C1800181E2
:101CC00041818181704731B1B0F8442042F4004233
:101CD000A0F8442005E0B0F84420C2F30E02A0F8BA
:101CE0004420704721B1828842F00402828004E0DF
:101CF00082884FF6FB731A408280704721B1828838
:101D000042F00102828004E082884FF6FE731A409E
:101D1000828070471AB183890B43838102E08389F3
:101D20008B43838170478182704702460020138A6B
:101D30000B400BB1012000E000207047CA43028233
:101D4000704730B50246002000230024158A05EABA
:101D50000103958905EA010413B10CB1012000E0EB
:101D6000002030BDCA430282704741EA0203A0F856
:101D7000483070471AB183890B43838102E083891D
:101D80008B438381704721B1828842F008028280B0
:101D900004E082884FF6F7731A4082807047018909
:101DA0004FF6F8721140018170470A4600210189FF
:101DB0004FF68F73194011430181704730B50446C7
:101DC0000D4629462046FFF7F0FF208940F0070026
:101DD000208130BD2DE9F04104460D4616461F46D0
:101DE000602D06D13B46012231462046FFF775FEA5
:101DF00005E03B46012231462046FFF7A4FE294676
:101E00002046FFF7D2FF208940F007002081BDE87F
:101E1000F08130B50C4600210189C9B24FF6FF753B
:101E200005EA0325154325432943018130BD2DE9EA
:101E3000F04105460E4617469846002443463A466A
:101E400031462846FFF7E5FF2C894FF6F87004402D
:101E500044F007044FF68F70044044F070042C8166
:101E6000BDE8F081F0B504460D4616461F463B46D8
:101E7000324629462046FFF7CCFF208940F48040B7
:101E80002081F0BD82884FF68F731A40828082884D
:101E90000A438280704702894FF6F8731A40028124
:101EA00002890A430281704702894FF67F731A4004
:101EB000028102890A4302817047F0B50C4615463B
:101EC0001E460021002200230189028B038C4FF65D
:101ED000F877394021434FF6FC473A4040F201176A
:101EE0003A434FF6DD773B404FF6FF7707EA061798
:101EF0002F433B43018102830384F0BD21B18288DB
:101F000042F08002828004E082884FF67F731A409C
:101F100082807047A0F850107047000010B504464A
:101F2000FA48844208D101211020FFF700F900216E
:101F30001020FFF7FCF857E0F548844209D1012151
:101F40004804FFF7E3F800214FF40030FFF7DEF814
:101F50004AE0F048844209D101218804FFF7D6F80D
:101F600000214FF48020FFF7D1F83DE0EA48844299
:101F700009D10121C804FFF7C9F800214FF400205E
:101F8000FFF7C4F830E0E548844209D10121080593
:101F9000FFF7BCF800214FF48010FFF7B7F823E0FB
:101FA000DF48844208D101212020FFF7C0F800213A
:101FB0002020FFF7BCF817E0DA48844209D101215C
:101FC0008807FFF7A3F800214FF08040FFF79EF845
:101FD0000AE0D548844207D101214005FFF796F871
:101FE00000216005FFF792F810BD2DE9FF47054677
:101FF0000E460024A14600BFA046B08900B100BF34
:102000002C8A24F44054F08804432C82AC8941F299
:102010000C608443B08831890843718908430443C4
:10202000AC81AC8A24F44074B0890443AC82684625
:10203000FEF7FDFEB548854202D0B948854202D17F
:10204000DDF80C9001E0DDF80890A88900F400406C
:1020500040B109EBC90000EB091031684900B0FB41
:10206000F1F707E009EBC90000EB091031688900BE
:10207000B0FBF1F76420B7FBF0F004012009642104
:1020800001FB1078A88900F4004040B1322000EB39
:10209000C800B0FBF1F000F00700044308E0322074
:1020A00000EB08106421B0FBF1F000F00F000443D6
:1020B0002C81BDE8FF874FF416510160002181801B
:1020C000C18001810C21418100218181704710B5BF
:1020D00002460020108A20F470600B884C8823434D
:1020E0008C882343CC8823431843108210BD0021E1
:1020F000018041808180C180704721B1828942F492
:102100000052828104E082894DF6FF731A40828179
:102110007047028B02F47F420283028B0A430283E0
:10212000704721B1828942F40042828103E08289B2
:10213000C2F30E028281704721B1828A42F40062AA
:10214000828204E0828A4FF2FF731A4082827047D3
:10215000C1F308028280704701468888C0F30800F6
:102160007047028A4FF6F0731A400282028A0A43CD
:102170000282704721B1828942F00202828104E02A
:1021800082894FF6FD731A408281704782894FF22F
:10219000FF731A40828182890A4382817047028AD2
:1021A0004FF6DF731A400282028A0A4302827047A6
:1021B00021B1028A42F48042028204E0028A4BF694
:1021C000FF731A4002827047818941F001018181C9
:1021D000704721B1828A42F00802828204E0828A3A
:1021E0004FF6F7731A4082827047028BD2B2028395
:1021F000028B42EA01220283704721B1828A42F0B7
:102200002002828204E0828A4FF6DF731A408282C3
:10221000704721B1828A42F01002828204E0828AF1
:102220004FF6EF731A4082827047828A4FF6FB7333
:102230001A408282828A0A438282704721B1828A4E
:1022400042F00202828204E0828A4FF6FD731A4055
:10225000828270471AB1838A0B43838202E0838AA9
:102260008B4383827047F0B5034600240026002587
:10227000002040F66A17B94200D100BF1846C1F3EA
:10228000421401F01F06012707FA06F5012C01D1BF
:102290000C3004E0022C01D1103000E014301AB1EF
:1022A00007682F43076002E00768AF430760F0BD8F
:1022B00002460020B1F5007F00D100BF13880B401B
:1022C0000BB1012000E00020704701F40072B2F56C
:1022D000007F00D100BFCA430280704770B502463C
:1022E000002400230025002040F66A16B14200D1E8
:1022F00000BFC1F3421501F01F03012606FA03F3E4
:10230000012D13D19689334017E0000000100140E1
:102310000044004000480040004C00400050004095
:102320000014014000780040007C0040022D02D1E2
:10233000168A334001E0968A33400C12012606FAD1
:1023400004F41688344013B10CB1012000E00020E1
:1023500070BD10B50022002340F66A14A14200D1DE
:1023600000BF0A1201249440A3B2DC43048010BDD4
:1023700001B56FF00400FEF7B7F89DF80000C11733
:1023800000EB5171C9103C4A11701046007800EB07
:102390004001C1EBC0104FF6FF7101EAC0003749A0
:1023A000088008BD0146344A12784A434FF0E023C2
:1023B0005A6100229A611A46126942F001021A61BA
:1023C00000BF4FF0E022106900F001021AB100F4E2
:1023D0008032002AF5D04FF0E022126922F001028B
:1023E0004FF0E0231A6100229A6170470146234AA8
:1023F00012884A434FF0E0235A6100229A611A463C
:10240000126942F001021A6100BF4FF0E022106928
:1024100000F001021AB100F48032002AF5D04FF02A
:10242000E022126922F001024FF0E0231A6100223B
:102430009A61704738B504464FF4077094FBF0F08A
:10244000C0B200904FF4077094FBF0F100FB114014
:1024500085B208E04FF40770FFF7C8FF9DF8000051
:10246000401EC0B200909DF800000028F2D115B1C6
:102470002846FFF7BBFF38BD2400002026000020BF
:10248000014600BF704700BF504A128802F0400268
:10249000002AF9D0C2B24D4B9A80704710B588B06F
:1024A000044601210846FEF793FD01211020FEF7A6
:1024B000E9FD072209214648FEF777FB07220A219A
:1024C0004348FEF772FB4FF4C060069002208DF87F
:1024D0001C008DF81D0000208DF81E0001208DF8D5
:1024E0001F0006A93A48FEF7D5FA02940020ADF87D
:1024F0000C00ADF80E00ADF81000ADF814000C2083
:10250000ADF8120002A93148FFF76FFD01212F48F5
:10251000FFF7F3FD40212D48FFF7D7FE012240F2DF
:1025200025512A48FFF79FFE012240F22441274807
:10253000FFF799FE25208DF8040003208DF8050093
:102540008DF8060001208DF8070001A8FDF77FFF38
:1025500008B010BD10B540F225511C48FFF7BEFE73
:1025600058B11A48FFF7F8FD1A491B4A12788854E7
:1025700019480078401C1849087040F2244113485B
:10258000FFF7ACFE08B31148048884880120134982
:10259000087013A10F4801F011FA40B900F05DF97D
:1025A000C8210C4801F0FFF900200B4908700EA16A
:1025B000084801F003FA40B900F055F9C821054870
:1025C00001F0F1F900200449087010BD001001402D
:1025D00000000240340000202800002029000020D4
:1025E0006C6564206F6E00006C6564206F66660029
:1025F00030B58BB004460D4601210220FEF731FDB7
:1026000001210846FEF7E4FC022206214B48FEF7B2
:10261000CCFA4020099002208DF8280003208DF884
:10262000290000208DF82A0001208DF82B0009A92F
:102630004248FEF72FFAA8B2ADF818000020ADF816
:102640001A000794ADF8200006A93D48FEF7C1FE28
:102650006020ADF804000120ADF806000020ADF8C0
:10266000100001A93648FEF749FF08213448FFF75A
:10267000D2F801213248FEF717FF01213048FEF75A
:1026800031FF0BB030BD30B58BB004460D46012193
:102690000846FEF7E6FC01210846FEF799FC0122F8
:1026A00000212648FEF781FA0120099002208DF8CA
:1026B000280003208DF8290000208DF82A00012031
:1026C0008DF82B0009A91D48FEF7E4F9A8B2ADF872
:1026D00018000020ADF81A000794ADF8200006A9F4
:1026E0004FF08040FEF775FE6020ADF80400012039
:1026F000ADF806000020ADF8100001A94FF08040B1
:10270000FEF7FCFE8021C805FFF7CEFB402108063E
:10271000FFF7B8FB01218807FEF7E4FE0821C80691
:10272000FFF779F801218807FEF7BEFE4FF47A71B2
:10273000C806FFF73CF80BB030BD000000000240B7
:10274000000400407FB505460C4601210220FEF73B
:1027500088FC0295ADF804400020ADF80600ADF805
:102760000C0001A92F48FEF734FE012211462D4826
:10277000FFF7D0FA01212B48FEF7B4FE1D208DF89B
:10278000000004208DF8010000208DF802000120D7
:102790008DF803006846FDF75AFE7FBD7FB50546FC
:1027A0000C4601210820FEF75CFC0295ADF80440C0
:1027B0000020ADF80600ADF80C0001A91A48FEF79C
:1027C00008FE012211461848FFF7A4FA0121164815
:1027D000FEF788FE32208DF8000005208DF80100FC
:1027E00000208DF8020001208DF803006846FDF7F7
:1027F0002EFE7FBD10B501210A48FFF7A2FA012184
:102800000848FFF7AFFA10BD10B501210648FFF7E1
:1028100098FA012801D100F02CF801210248FFF7B5
:10282000A1FA10BD00040040000C00401CB50121BD
:102830000220FEF7CDFB012000908DF8040000205F
:102840008DF8060003208DF8050000208DF80700A4
:1028500069460B48FEF71EF91CBD10B5012108485A
:10286000FEF796F910BD10B501210548FEF78EF967
:1028700010BD10B501210248FEF793F910BD00000C
:102880000004024010B54FF48051FE48FEF77EF977
:102890000420FFF787FD4FF40051FA48FEF776F960
:1028A0000420FFF77FFD4FF40051F648FEF770F962
:1028B0000420FFF777FD4FF48051F248FEF768F9E6
:1028C0000420FFF76FFD10BD10B54FF48051ED48A7
:1028D000FEF75CF90420FFF765FD4FF40051E9486D
:1028E000FEF756F90420FFF75DFD4FF40051E5486F
:1028F000FEF74CF90420FFF755FD10BD10B54FF45D
:102900008051E048FEF742F90420FFF74BFD4FF4F9
:102910008051DC48FEF73CF90420FFF743FD10BD71
:102920002DE9F04105462C464FF48051D548FEF77D
:102930002FF90420FFF736FD002628E0274607F090
:102940008007802F07D1B901CE48FEF71FF9042078
:10295000FFF728FD07E04FF40051CA48FEF718F9C9
:102960000420FFF71FFD6006040E4FF48051C54898
:10297000FEF70CF90420FFF715FD4FF48051C14814
:10298000FEF706F90420FFF70DFD701CC6B2082EF5
:10299000D4DBBDE8F08110B50446FFF773FF782063
:1029A000FFF7BEFFFFF7AAFF0020FFF7B9FFFFF711
:1029B000A5FF2046FFF7B4FFFFF7A0FFFFF784FF56
:1029C00010BD10B50446FFF75DFF7820FFF7A8FFA4
:1029D000FFF794FF4020FFF7A3FFFFF78FFF20468C
:1029E000FFF79EFFFFF78AFFFFF76EFF10BD70B580
:1029F00004460D461DB1E0B2FFF7E3FF02E0E0B28E
:102A0000FFF7C9FF70BD70B50646002418E004F159
:102A1000B0000021FFF7EBFF00210846FFF7E7FFBA
:102A200000211020FFF7E3FF002505E001213046DB
:102A3000FFF7DDFF681CC5B2802DF7DB601CC4B258
:102A4000082CE4DB70BD06E041F6650100E0491E9C
:102A50000029FCD1401E0028F6D17047014605E050
:102A6000002001E0421CD0B27B28FBDB0A1EA1F152
:102A70000101F5D1704770B504460D4605F1B0006F
:102A80000021FFF7B4FF102141EA14100021FFF7E5
:102A9000AEFF04F00F000021FFF7A9FF70BD10B5D5
:102AA00000218D20FFF7A3FF00211420FFF79FFFD7
:102AB0000021AF20FFF79BFF10BD10B500218D2036
:102AC000FFF795FF00211020FFF791FF0021AE20B6
:102AD000FFF78DFF10BD1CB50020019023E09DF88D
:102AE000041001F1B0000021FFF781FF002108462A
:102AF000FFF77DFF00211020FFF779FF00200090F5
:102B000008E001210020FFF772FF9DF80000401C43
:102B1000C0B200909DF800008028F2DB9DF8040010
:102B2000401CC0B201909DF804000828D7DB1CBDF2
:102B30001CB50020019023E09DF8041001F1B000C5
:102B40000021FFF754FF00210846FFF750FF002146
:102B50001020FFF74CFF0020009008E001210846FC
:102B6000FFF745FF9DF80000401CC0B200909DF8A3
:102B700000008028F2DB9DF80400401CC0B20190E8
:102B80009DF804000828D7DB1CBD7FB50025002474
:102B90009DF808002038C5B29DF800007F2806DDAA
:102BA000002000909DF80400801CC0B201909DF8A8
:102BB0000C00102829D19DF804109DF80000FFF7A3
:102BC0005AFF002408E004EB05112F4A505C012154
:102BD000FFF70DFF601CC4B2082CF4DB9DF8040065
:102BE000401CC1B29DF80000FFF745FF002409E03A
:102BF00004EB05110831244A505C0121FFF7F7FE70
:102C0000601CC4B2082CF3DB14E09DF804109DF89E
:102C10000000FFF730FF00240AE005EB45011B4AE6
:102C200002EB4101085D0121FFF7E1FE601CC4B227
:102C3000062CF2DB7FBD03B5012002E09DF80010F9
:102C400048439DF804104A1ED2B201920029F5D1E2
:102C50000CBD7FB584B0144600200190039057E06E
:102C60009DF81C009DF80C20801A401EC1B20A205D
:102C7000FFF7E1FFB4FBF0F00A21B0FBF1F201FB3A
:102C8000120005E0000402407C410008543F0008A7
:102C900002909DF80400F8B99DF81C00401E9DF8B4
:102CA0000C10884218DD9DF8080098B99DF8305046
:102CB00005EBD57149109DF80C209DF8103011FBE3
:102CC0000231C8B29DF8303020229DF81410FFF771
:102CD0005CFF18E0012001909DF8305005EBD571A4
:102CE00049109DF80C309DF8106011FB0361C8B2CB
:102CF0009DF808103031CAB29DF830309DF814109C
:102D0000FFF743FF00BF9DF80C00401CC0B20390CA
:102D10009DF80C009DF81C108842A1DB08B070BD26
:102D20001FB5144619E022789DF80C309DF8041068
:102D30009DF80000FFF729FF9DF800000830C0B2A1
:102D400000909DF80000782806DD002000909DF896
:102D50000400801CC0B20190641C20780028E2D1DD
:102D60001FBD2DE9F05F06460F4690461C46DDF874
:102D700028A04FF0000BE11704EB5171C910A4EB30
:102D8000C10131B92046E11704EB5171C1F3C70508
:102D900006E02046E11704EB5171C910491CCDB281
:102DA0003D4615E029463046FFF765FEB1460BE08B
:102DB00059460BF1010B1AF801000121FFF717FE2C
:102DC00009F1010000F0FF09C145F1DB681CC5B243
:102DD000A542E7DBBDE8F09F2DE9F0472DED068B1E
:102DE00084B081468A46B0EE408AF0EE608A904612
:102DF00001260020019002900390012500249FED00
:102E0000FB0BB0EE409AF0EE609A00279FEDF70BB7
:102E100053EC102B51EC180B00F0BCFF09D251EC15
:102E2000180B81F0004141EC1A0B00F07BFF0446C7
:102E300004E051EC180B00F075FF0446204600F04A
:102E400053FF41EC1A0B53EC182B00F069FE41ECD8
:102E5000190B9FEDE80B53EC102B51EC190B00F004
:102E600062FE41EC1A0B00F07CFF074604E005EB24
:102E700085004500701CC6B20A2094FBF0F090FB60
:102E8000F5F00028F3D142F2107094FBF0F00A2123
:102E900090FBF1F201FB1200C0B28DF804004FF478
:102EA0007A7094FBF0F090FBF1F201FB1200C0B2DB
:102EB0008DF80500642094FBF0F090FBF1F201FB2B
:102EC0001200C0B28DF806000A2094FBF0F090FBCF
:102ED000F1F201FB1200C0B28DF807000A2094FB4A
:102EE000F0F100FB1140C0B28DF808002E208DF8E3
:102EF00009004FF47A70B7FBF0F00A21B0FBF1F251
:102F000001FB12008DF80A006420B7FBF0F0B0FB63
:102F1000F1F201FB12008DF80B000A20B7FBF0F074
:102F2000B0FBF1F201FB12008DF80C000A20B7FB98
:102F3000F0F100FB11708DF80D00002108F1060082
:102F400001AA1154002505E001A8405D303001A917
:102F500048556D1C0A2DF7DB9FEDA40B53EC102B8D
:102F600051EC180B00F016FF06D2701CC6B22D20D3
:102F7000C6F1050101AA50542E208DF80900002148
:102F800008F1060001AA1154C6F1050001A9421872
:102F90000C2349465046FFF7C3FE04B0BDEC068B38
:102FA000BDE8F0872DE9F04F2DED068B83B081460B
:102FB0000F46B0EE408AF0EE608A924698464FF097
:102FC000010B0020009001900290012400259FED4C
:102FD000870BB0EE409AF0EE609A0026F806070ED6
:102FE00051EC180B00F09EFE0546284600F08DFEC1
:102FF00041EC1A0B53EC182B00F092FD41EC190B2D
:103000009FED7C0B53EC102B51EC190B00F08BFD5A
:1030100041EC1A0B00F0A5FE064606E004EB840026
:1030200044000BF1010000F0FF0B0A20B5FBF0F0AB
:10303000B0FBF4F00028F1D142F21070B5FBF0F0D3
:103040000A21B0FBF1F201FB12008DF800004FF4F1
:103050007A70B5FBF0F0B0FBF1F201FB12008DF8D5
:1030600001006420B5FBF0F0B0FBF1F201FB1200AF
:103070008DF802000A20B5FBF0F0B0FBF1F201FB85
:1030800012008DF803002E208DF805004FF47A70A1
:10309000B6FBF0F0B0FBF1F201FB12008DF8060078
:1030A0006420B6FBF0F0B0FBF1F201FB12008DF8EA
:1030B00007000A20B6FBF0F0B0FBF1F201FB1200B2
:1030C0008DF808000A20B6FBF0F100FB11608DF8C6
:1030D0000900002108F106000DF80010002406E0A8
:1030E0001DF804003030C0B20DF80400641C0A2C36
:1030F000F6DB2E208DF80500002108F106000DF802
:103100000010CAF10500694642180C2349463846AA
:10311000FFF706FE03B0BDEC068BBDE8F08F2DE98E
:10312000F04105460F46164600BF05EB450149062E
:10313000080E3946FFF79FFC00240BE006F1100152
:1031400001EB41012D4A02EB4101085D0121FFF72E
:103150004EFC641C062CF1DBBDE8F0812DE9F0414A
:1031600005460F46164600BF05EB45014906080E09
:103170003946FFF780FC002409E006EB46011F4AB0
:1031800002EB4101085D0121FFF731FC641C062CB4
:10319000F3DBBDE8F0812DE9F04705468946164688
:1031A0003446002C2CDA6442642094FBF0F100FBDE
:1031B00011400A2190FBF1F0C7B20A2094FBF0F114
:1031C00000FB114000F0FF080D2249462846FFF79A
:1031D000C5FF691CC8B23A464946FFF7A0FFA91CC3
:1031E000C8B242464946FFF79AFF2AE000000000B5
:1031F00000000000000000000088C340543F0008A9
:10320000642094FBF0F100FB11400A2190FBF1F0E7
:10321000C7B20A2094FBF0F100FB114000F0FF0858
:103220000B2249462846FFF799FF691CC8B23A4667
:103230004946FFF774FFA91CC8B242464946FFF74A
:103240006EFFBDE8F0872DE9F04705468A46164631
:103250003446002C2DDA64420D2251462846FFF7F1
:103260007DFF0A2094FBF0F100FB1140C7B20A2059
:1032700094FBF0F00A2190FBF1F201FB120000F048
:10328000FF08642094FBF0F000F0FF09E91CC8B2CD
:103290003A465146FFF743FFA91CC8B24246514681
:1032A000FFF73DFF691CC8B24A465146FFF737FF9A
:1032B0002BE00B2251462846FFF750FF0A2094FBD3
:1032C000F0F100FB1140C7B20A2094FBF0F00A2194
:1032D00090FBF1F201FB120000F0FF08642094FB68
:1032E000F0F000F0FF09E91CC8B23A465146FFF77A
:1032F00016FFA91CC8B242465146FFF710FF691CD1
:10330000C8B24A465146FFF70AFFBDE8F0872DE9EB
:10331000F05F05468B4616463446002C00DA6442C0
:103320004FF47A7094FBF0F0C7B24FF47A7094FBCC
:10333000F0F100FB1140642190FBF1F000F0FF0878
:10334000642094FBF0F100FB11400A2190FBF1F0A6
:1033500000F0FF090A2094FBF0F100FB114000F09F
:10336000FF0A3A4659462846FFF7D9FE691CC8B2FB
:1033700042465946FFF7D3FEA91CC8B24A465946F1
:10338000FFF7CDFEE91CC8B252465946FFF7C7FE0B
:10339000BDE8F09F2DE9F05F05460E46144642F267
:1033A0001070B4FBF0F0C7B242F21070B4FBF0F151
:1033B00000FB11404FF47A71B0FBF1F000F0FF0810
:1033C0000846B4FBF0F100FB11406421B0FBF1F0C2
:1033D00000F0FF096420B4FBF0F100FB11400A216A
:1033E000B0FBF1FA0A20B4FBF0F100FB114B3A46B6
:1033F00031462846FFF793FE691CC8B24246314663
:10340000FFF78DFEA91CC8B24A463146FFF787FE7A
:10341000E91CC8B252463146FFF781FE291DC8B2E9
:103420005A463146FFF77BFEBDE8F09F1CB50121EF
:103430000220FDF7CDFD4FF44050009001208DF8A3
:10344000040000208DF8060001208DF807000220FE
:103450008DF8050069463D48FDF71CFB4FF44051CF
:103460003A48FDF793FB4FF44870FEF7E3FF002165
:10347000AE20FFF7BCFA00210846FFF7B8FA00219A
:103480001020FFF7B4FA00214020FFF7B0FA002126
:10349000B020FFF7ACFA00218120FFF7A8FA002145
:1034A000FF20FFF7A4FA0021A120FFF7A0FA0021D6
:1034B000A620FFF79CFA0021A820FFF798FA002128
:1034C0003F20FFF794FA0021C820FFF790FA00216F
:1034D000D320FFF78CFA00210846FFF788FA002175
:1034E000D520FFF784FA00218020FFF780FA002121
:1034F000D820FFF77CFA00210520FFF778FA002199
:10350000D920FFF774FA0021F120FFF770FA0021AB
:10351000DA20FFF76CFA00211220FFF768FA002189
:10352000DB20FFF764FA00213020FFF760FA00216A
:103530008D20FFF75CFA00211420FFF758FA0021D4
:10354000AF20FFF754FA1CBD7047704700040240DB
:1035500000B58DB001210846FDF73AFD01210802B2
:10356000FDF790FD03208DF820002020079000201B
:103570008DF8230007A98448FDF78CFA0121080281
:10358000FDF7D5FD00214FF48070FDF7D0FD002040
:103590000B9009904FF480300A9000200C9009A8FD
:1035A000FCF7FAFF00208DF8090005900390012038
:1035B0008DF818004006019000208DF8080001A940
:1035C0007248FCF7BAFF01217048FCF7FCFF0DB010
:1035D00000BD00B58DB001210846FDF7F9FC0121C1
:1035E0004802FDF74FFD03208DF8300010200B90AE
:1035F00000208DF833000BA96348FDF74BFA012139
:103600004802FDF794FD00214FF40070FDF78FFD97
:103610000020099007904FF48030089000200A9015
:1036200007A8FCF7B9FF00208DF80900059003906A
:1036300001208DF818004006019000208DF8080048
:1036400001A95348FCF779FF01215148FCF7BBFF62
:103650000DB000BD31B52DED048B072301229DF87F
:1036600010104B48FCF7EFFF4948FDF748F800BF42
:1036700002214748FDF764F90028F9D04448FDF7D6
:103680007AF8C0F58074204600F02EFB41EC190B4F
:103690009FED400B53EC102B00F0B7FA41EC180BE8
:1036A00000F05FFB80B2BDEC048B38BD31B52DED71
:1036B000048B072301229DF810103448FCF7C3FF48
:1036C0003248FDF71CF800BF02213048FDF738F9F9
:1036D0000028F9D02D48FDF74EF8C0F5807420463B
:1036E00000F002FB41EC190B9FED2A0B53EC102B61
:1036F00000F08BFA41EC180B00F033FB80B2BDEC0C
:10370000048B38BD13B584B0002400200290FF2044
:1037100001900020039022E09DF81000FFF7C6FF03
:10372000C0B200909DF800009DF80810884202DDAC
:103730009DF8000002909DF800009DF8041088425A
:1037400002DA9DF8000001909DF800000444052075
:10375000FEF770FE9DF80C00401CC0B203909DF86F
:103760000C009DF814108842D6DB9DF80400201A46
:103770009DF80810411A9DF81400801EB1FBF0F06E
:1037800080B206B010BD00000000024000200140E1
:1037900000210140666666666666044010B57B4897
:1037A000006820F44020794908600846006840F429
:1037B000802008600020764908601420FEF73AFE59
:1037C00001207449C1F8A4021E20FEF7EBFD10BDD4
:1037D00008B5002000906D48006820F440206B4937
:1037E000086008460068086007E09DF80000401C7B
:1037F000C0B200900120FEF7D5FD65488038006812
:1038000018B19DF800006428EFDB9DF800006428E3
:1038100001DB012008BD0020009007E09DF80000BA
:10382000401CC0B200900120FEF7BCFD5848803813
:10383000006818B99DF800006428EFDB9DF80000CF
:10384000642801DB0120E5E70020E3E708B500205C
:10385000009007E09DF80000401CC0B200900120DD
:10386000FEF7A0FD4A488038006818B19DF80000B6
:103870006428EFDB0020009007E09DF80000401C6A
:10388000C0B200900120FEF78DFD414880380068ED
:1038900018B99DF800006428EFDB2820FEF782FDB0
:1038A0003B488038006808B1012008BD0020FCE7D3
:1038B0001CB50020009001900FE09DF8000040062C
:1038C000000E0090FFF7C2FF9DF800100843009023
:1038D0009DF80400401CC0B201909DF80400082827
:1038E000EBDB9DF800001CBD3EB504460D46FFF71E
:1038F00055FFFFF76DFF38BB002000900AE0FFF78F
:10390000D7FF01A99DF8002088549DF80000401CB5
:10391000C0B200909DF800000528F0DB9DF804007F
:103920009DF8051008449DF8061008449DF80710FE
:1039300008449DF80810884208D19DF804002870BA
:103940009DF80600207001E001203EBD0020FCE74C
:103950001CB501210220FDF73BFB01208DF804007E
:1039600000208DF806004FF40070009001208DF8C3
:10397000070002208DF8050069460448FDF78AF823
:10398000FFF70CFFFFF724FF1CBD000000040240FE
:10399000A482404200804042D2B201E000F8012BF4
:1039A000491EFBD270470022F6E710B513460A46BF
:1039B00004461946FFF7F0FF204610BD10B500225F
:1039C00000E0521C835C8C5CA34201D1002BF8D137
:1039D000D8B2E1B2401A10BD2DE9FE4F804681EA0F
:1039E0000300C00F0C46009021F0004123F0004579
:1039F000B8EB0200A94105D24046214690461C463C
:103A00000B46024623F00040104347D0270DC7F372
:103A10000A00C3F30A510290401A019040286BDA61
:103A2000C3F3130040F4801B0098924620B100239A
:103A3000D2EB030A63EB0B0B01985946C0F140022D
:103A4000504600F0BFF906460D4650465946019AC9
:103A500000F0D7F910EB08006141002487EA115209
:103A600084EAE7731A4340D0009A62B3019A012AAC
:103A70004FEA075215DC001B61EB02014FF00042D8
:103A800002EA0752CDE90042001C41F5801132469E
:103A90002B4600F0D7F903B0BDE8F08F4046214631
:103AA000F9E7001B61EB0201001C41F580130018CF
:103AB0005B412018A2F5001747EB030140EAD570DF
:103AC000B6196D4111E06D084FEA360645EAC0753A
:103AD0004FEA0752001B61EB0201001C41F5801107
:103AE00049084FEA30000019514132462B4603B0D5
:103AF000BDE8F04F00F097B9009801224000002384
:103B0000D0EB020263EBE073009821464FEAE074C9
:103B1000B8EB000061EB0401E9E783F000435BE7E9
:103B200081F0004158E72DE9FE4F81EA030404F0DB
:103B3000004421F0004100944FF0000B23F00043BB
:103B400050EA01045ED052EA03045BD0C3F30A5486
:103B5000C1F30A552C44A4F2F3340194A0FB02549F
:103B6000C1F3130141F48011C3F3130343F4801331
:103B700001FB024400FB034E840A970A44EA815485
:103B800047EA8357A4FB076802958D0A05FB078562
:103B90004FEA932C04FB0C542705029D4FEA06586C
:103BA00047EA1637B5EB08056EEB070C870E920E49
:103BB00047EA811742EA8312A7FB0201B6EB0B0129
:103BC00064EB00042B0D43EA0C335E1844EB1C50ED
:103BD000DA465146E7FB0201C5F313044FEA0B3303
:103BE00043EA14534FEA0432019C43EA0603A4F16A
:103BF0000C040294009CCDE900B400F023F903B05A
:103C0000BDE8F08F00200146F9E72DE9F04D81EA8B
:103C1000030404F0004B21F0004514464FF0000A65
:103C200023F0004150EA050220D054EA01021DD0E1
:103C3000C5F30A570246C5F31303C1F31300C1F3DA
:103C40000A5640F4801543F48013A7EB0608101BB6
:103C5000D64608F2FD3873EB050002D308F10108DF
:103C600001E092185B41B8F1000F03DA0020014631
:103C7000BDE8F08D00204FF48011064684460EE02A
:103C8000171B73EB050705D3121B63EB05030643F4
:103C90004CEA010C49084FEA300092185B4150EAA7
:103CA0000107EDD152EA030012D082EA040083EA50
:103CB0000501084305D0101BAB4106D201220023A9
:103CC00006E000224FF0004302E06FF001025310C3
:103CD0001AEB06004CEB085110EB0A0041EB0B010C
:103CE000BDE8F04D00F09FB80EB5C10F80EAE0705E
:103CF0000844CA07002140F233438DE80E000A460B
:103D00000B4600F09FF803B000BD0EB540F2334102
:103D100002910021CDE900110A460B4600F092F80D
:103D200003B000BD70B5C1F30A5201F00045002494
:103D3000C1F3130140F2FF3341F480119A4201DADA
:103D4000002070BD40F233439A42A2F2334203DCBA
:103D5000524200F046F800E090402C43F1D040423F
:103D600070BDC1F30A5210B5C1F3130140F2FF3325
:103D700041F480119A4201DA002010BD40F2334331
:103D80009A42A2F2334203DC524200F02AF810BDFC
:103D9000904010BD30B5041E71F1000404DB4FF0FB
:103DA0000044404264EB0101141E73F1000405DB82
:103DB0001C464FF00043524263EB04038B4208BFA2
:103DC000824230BD202A04DB203A00FA02F10020B2
:103DD00070479140C2F1200320FA03F31943904049
:103DE0007047202A04DB203A21FA02F000217047B4
:103DF00021FA02F3D040C2F1200291400843194653
:103E00007047202A06DBCB17203A41FA02F043EA3A
:103E1000E07306E041FA02F3D040C2F12002914083
:103E200008431946704710B5141E73F1000408DAF0
:103E3000401C41F1000192185B411A4301D120F06E
:103E4000010010BD2DE9F04D92469B4611B1B1FA2B
:103E500081F202E0B0FA80F220329046FFF7B2FF22
:103E600004460F4640EA0A0041EA0B0153465A460F
:103E7000084313D0114653EA010019D0C8F140029B
:103E80005046FFF7AEFF05460E465046594642469D
:103E9000FFF798FF084305D0012004E0204639468B
:103EA000BDE8F08D0020054346EAE0762C43374319
:103EB0000A986305E40AA0EB08000022FD0A44EA20
:103EC00047540A3002D500200146E9E701051019E0
:103ED0006941DDE9084500196941BDE8F04DA2E7F7
:103EE000064C074D06E0E06840F0010394E8070047
:103EF00098471034AC42F6D3FCF74AF96C470008F7
:103F00008C470008014A024900F013B887240008D2
:103F10002C00002002E008C8121F08C1002AFAD1B4
:103F200070477047002001E001C1121F002AFBD139
:103F300070472DE9F04116460F460446002503E080
:103F40003946B047641C6D1C20780028F8D12846FB
:103F5000BDE8F0810000000000000000002F00001C
:103F600000000700070000147F147F1400242A7F3C
:103F70002A120062640813230036495522500000BB
:103F80000503000000001C224100000041221C002B
:103F90000014083E08140008083E0808000000A0AD
:103FA00060000008080808080000606000000020A9
:103FB00010080402003E5149453E0000427F400087
:103FC000004261514946002141454B31001814120D
:103FD0007F10002745454539003C4A4949300001DA
:103FE0007109050300364949493600064949291E29
:103FF000000036360000000056360000000814228B
:10400000410000141414141400004122140800028A
:104010000151090600324959513E007C1211127CAF
:10402000007F49494936003E41414122007F4141DC
:10403000221C007F49494941007F09090901003ECE
:104040004149497A007F0808087F0000417F41000C
:10405000002040413F01007F08142241007F404082
:104060004040007F020C027F007F0408107F003E6A
:104070004141413E007F09090906003E4151215E50
:10408000007F091929460046494949310001017F4D
:104090000101003F4040403F001F2040201F003FE3
:1040A0004038403F00631408146300070870080795
:1040B00000615149454300007F41410000552A55A8
:1040C0002A55000041417F00000402010204004023
:1040D0004040404000000102040000205454547845
:1040E000007F484444380038444444200038444465
:1040F000487F00385454541800087E090102001803
:10410000A4A4A47C007F080404780000447D40003F
:10411000004080847D00007F102844000000417F23
:104120004000007C04180478007C080404780038FF
:104130004444443800FC242424180018242418FC87
:10414000007C0804040800485454542000043F44F0
:104150004020003C4040207C001C2040201C003CB3
:104160004030403C004428102844001CA0A0A07C03
:10417000004464544C44141414141414000000003B
:10418000000000000000000000000000000000F837
:1041900000000000000000333000000000100C069A
:1041A000100C0600000000000000000040C0784035
:1041B000C0784000043F04043F040400007088FC01
:1041C00008300000001820FF211E0000F008F00059
:1041D000E018000000211C031E211E0000F00888CA
:1041E000700000001E2123241927211010160E0034
:1041F000000000000000000000000000000000E0DF
:1042000018040200000000071820400000020418F3
:10421000E00000000040201807000000404080F04F
:10422000804040000202010F01020200000000F085
:10423000000000000101011F010101000000000059
:104240000000000080B070000000000000000000CE
:104250000000000000010101010101010000000057
:1042600000000000003030000000000000000000EE
:1042700080601804006018060100000000E01008CB
:104280000810E000000F102020100F00001010F8A0
:10429000000000000020203F2020000000700808DF
:1042A000088870000030282422213000003008885F
:1042B000884830000018202020110E000000C02087
:1042C00010F8000000070424243F240000F80888A8
:1042D000880808000019212020110E0000E0108835
:1042E00088180000000F112020110E000038080867
:1042F000C83808000000003F000000000070880877
:1043000008887000001C222121221C0000E01008F7
:104310000810E0000000312222110F00000000C050
:10432000C0000000000000303000000000000080ED
:1043300000000000000080600000000000008040DD
:1043400020100800000102040810200040404040F6
:104350004040400004040404040404000008102049
:10436000408000000020100804020100007048088E
:104370000808F0000000003036010000C030C828F6
:10438000E810E0000718272423140B000000C038B1
:10439000E0000000203C23020227382008F888882B
:1043A00088700000203F202020110E00C030080837
:1043B00008083800071820202010080008F808080E
:1043C0000810E000203F202020100F0008F8888807
:1043D000E8081000203F20202320180008F88888D3
:1043E000E8081000203F200003000000C03008084B
:1043F0000838000007182020221E020008F80800D4
:104400000008F808203F210101213F20000808F89A
:10441000080800000020203F2020000000000808BD
:10442000F8080800C08080807F00000008F888C07D
:1044300028180800203F20012638200008F808002E
:1044400000000000203F20202020300008F8F80065
:10445000F8F80800203F003F003F200008F830C077
:104460000008F808203F200007183F00E010080867
:104470000810E0000F10202020100F0008F8080896
:104480000808F000203F210101010000E0100808A9
:104490000810E0000F18242438504F0008F88888CE
:1044A00088887000203F2000030C302000708808AE
:1044B000080838000038202121221C00180808F8BC
:1044C000080818000000203F2000000008F808003D
:1044D0000008F808001F202020201F00087888000E
:1044E00000C83808000007380E010000F80800F87E
:1044F0000008F800033C0700073C03000818688028
:104500008068180820302C03032C30200838C8009D
:10451000C83808000000203F2000000010080808EC
:10452000C83808002038262120201800000000FE8E
:10453000020202000000007F40404000000C30C03A
:1045400000000000000000010638C0000002020266
:10455000FE000000004040407F0000000000040218
:104560000202040000000000000000000000000043
:104570000000000080808080808080800002020433
:10458000000000000000000000000000000080802B
:10459000808000000019242222223F2008F8008099
:1045A00080000000003F112020110E00000000805C
:1045B00080800000000E11202020110000000080EB
:1045C0008088F800000E112020103F20000080801D
:1045D00080800000001F222222221300008080F031
:1045E000888888180020203F20200000000080805C
:1045F00080808000006B94949493600008F80080A1
:1046000080800000203F210000203F2000809898FB
:10461000000000000020203F20200000000000805B
:104620009898000000C08080807F000008F800009B
:1046300080808000203F24022D302000000808F8F0
:10464000000000000020203F2020000080808080AB
:1046500080808000203F20003F20003F808000803D
:1046600080800000203F210000203F20000080804B
:1046700080800000001F202020201F0080800080FC
:104680008000000080FFA12020110E0000000080AB
:1046900080808000000E112020A0FF80808080009C
:1046A0008080800020203F212000010000008080C9
:1046B000808080000033242424241900008080E0BE
:1046C000808000000000001F20200000808000008B
:1046D00000808000001F202020103F20808080006C
:1046E0000080808000010E3008060100808000807C
:1046F000008080800F300C030C300F0000808000A1
:10470000808080000020312E0E31200080808000CB
:104710000080808080818E7018060100008080807B
:10472000808080000021302C222130000000000019
:10473000807C020200000000003F404000000000BA
:10474000FF00000000000000FF0000000002027CEB
:10475000800000000040403F000000000006010112
:104760000202040400000000000000008C47000862
:104770000000002034000000143F0008C04700087B
:1047800034000020CC040000243F0008007A030A13
:1047900000000000000000000102030406070809F1
:1047A00000000000010203040102030406070809D7
:1047B00000000000000000000000000000000000F9
:040000050800018965
:00000001FF
