:020000040800F2
:1000000040590020ED1900083D1800083F1800086D
:1000100041180008431800084518000800000000B7
:100020000000000000000000000000009D0100082A
:100030004718000800000000F101000849180008F6
:10004000071A0008071A0008071A0008071A00080C
:10005000071A0008071A0008071A0008071A0008FC
:10006000071A0008071A0008071A0008071A0008EC
:10007000071A0008071A0008071A0008071A0008DC
:10008000071A0008071A0008071A0008071A0008CC
:10009000071A0008071A0008071A0008071A0008BC
:1000A000071A0008071A0008071A0008071A0008AC
:1000B000071A0008FB3B0008071A0008071A000887
:1000C000071A0008071A0008071A0008071A00088C
:1000D000071A00088D390008071A0008071A0008D7
:1000E000071A0008071A0008071A0008071A00086C
:1000F000071A0008071A0008071A0008071A00085C
:10010000071A0008071A0008273C0008071A000809
:10011000071A0008071A0008071A0008071A00083B
:10012000071A0008071A0008071A0008071A00082B
:10013000071A0008071A0008071A0008071A00081B
:10014000071A0008071A0008071A0008071A00080B
:10015000071A0008071A0008071A0008071A0008FB
:10016000071A0008071A0008071A0008071A0008EB
:10017000071A0008071A0008071A0008071A0008DB
:10018000071A0008071A0008DFF80CD007F0FAFE7B
:100190000048004735160008405900202A4B1968CE
:1001A0000868B0E8F04F80F30988BFF36F8F4FF015
:1001B000000080F3118870470000000006480068C6
:1001C000006880F3088862B661B6BFF34F8FBFF353
:1001D0006F8F00DF00BF00BF08ED00E0DFF80C000C
:1001E000016841F470010160704700BF88ED00E0D4
:1001F000EFF30980BFF36F8F134B1A681EF0100FD7
:1002000008BF20ED108A20E9F04F106008B44FF0CD
:10021000500080F31188BFF34F8FBFF36F8F05F04D
:1002200063FF4FF0000080F3118808BC196808686C
:10023000B0E8F04F1EF0100F08BFB0EC108A80F34A
:100240000988BFF36F8F70477C000020EFF30580B3
:10025000704700000024FD4E4FF4FA77641CA4B2EE
:100260000B2C78D20121FAA2084604F02BFDF9A24A
:100270000521012004F026FDF7A20721012004F04A
:1002800021FDF6A20A21012004F01CFDF4A20E219A
:10029000012004F017FDF3A20121022004F012FD59
:1002A000F2A20921022004F00DFDF3A20121032096
:1002B00004F008FDF2A20B21032004F003FDF2A2DA
:1002C0000121042004F0FEFCF1A20921042004F025
:1002D000F9FCF24D0223032195ED030A0120BDEE46
:1002E000C00A10EE102A04F007FD95ED030ADFEDB9
:1002F000EC0A6422012320EE200ABDEEC00A10EEB3
:10030000101A91FBF2F002FB10120621184604F0BD
:10031000F3FC95ED040A02230C21BCEEC00A012077
:1003200010EE102A04F0E8FC02236A89072118461F
:1003300004F0E2FC0423072103206A6804F0DCFCDB
:100340002A8902230721042004F0D6FC384605F050
:10035000F7FD51E0FFE70121D2A2084604F0B2FC0C
:10036000F07801284DD0D1A20621012004F0AAFC8A
:10037000CFA20921012004F0A5FC7078012846D005
:10038000CDA20F21012004F09DFCCCA2012102206E
:1003900004F098FC307801283FD0C4A20621022046
:1003A00004F090FCC7A20921022004F08BFCB07875
:1003B000012838D0C0A20F21022004F083FCC3A280
:1003C0000121032004F07EFC3079012831D0C1A244
:1003D0000721032004F076FCA2A20121042004F0EE
:1003E00071FC707901282AD0BAA20721042004F0F8
:1003F00069FC384605F0A4FD132C7FF42FAF0024D0
:100400002CE7B7A20621012004F05CFCB0E7B5A2FE
:100410000F21012004F056FCB7E7B1A2062102200B
:1004200004F050FCBEE7AFA20F21022004F04AFC0A
:10043000C5E7ADA20721032004F044FCCCE7AAA243
:100440000721042004F03EFCD3E708B50025009501
:100450007E4E6F1EA6F134043B466A4603210020FF
:1004600006F09AFB0098012812D104F0E7F8012069
:10047000707100233A461946206804F064FF9DA07D
:1004800007F092FD00231A461946206804F03CFE4E
:1004900000980228E0D104F0D5F8757100233A469F
:1004A0001946206804F04FFF98A007F07DFD002357
:1004B0001A461946206804F027FECDE708B5002546
:1004C0000095624E6F1EA6F134043B466A46032136
:1004D000002006F061FB0098012812D104F016F804
:1004E0000120307100233A461946206804F02BFFA2
:1004F0008CA007F059FD00231A461946206804F025
:1005000003FE00980228E0D104F004F835710023BE
:100510003A461946206804F016FF88A007F044FD0B
:1005200000231A461946206804F0EEFDCDE708B511
:1005300000250095454E6F1EA6F134043B466A46E1
:100540000321002006F028FB0098012812D104F0B6
:100550004FF80120F07000233A461946206804F055
:10056000F2FE7CA007F020FD00231A461946206801
:1005700004F0CAFD00980228E0D104F03DF8F570BF
:1005800000233A461946206804F0DDFE77A007F004
:100590000BFD00231A461946206804F0B5FDCDE78F
:1005A00008B500250095294E6F1EA6F134043B4680
:1005B0006A460321002006F0EFFA0098012812D1C4
:1005C00003F0F0FF0120B07000233A46194620687E
:1005D00004F0B9FE6BA007F0E7FC00231A461946A9
:1005E000206804F091FD00980228E0D103F0DEFFBE
:1005F000B57000233A461946206804F0A4FE67A0AF
:1006000007F0D2FC00231A461946206804F07CFD4E
:10061000CDE708B5002500950C4E6F1EA6F13404F9
:100620003B466A460321002006F0B6FA00980128EE
:100630000AD103F073FA0120707000233A4619467C
:10064000206804F080FEB5E0BDE00000340000202A
:10065000543A00002E00000043202000483A0000D9
:10066000255248004C696768743A00002020202019
:100670002020202000000000434F3220203A0000BC
:100680002070706D20200000534D2020203A000083
:10069000202020255248202000000000F8000020E3
:1006A0000000C842486561743A0000004F462000CF
:1006B000536572766F3A00004F46000056656E74BF
:1006C0003A00000048756D69643A0000576174652E
:1006D000723A00004F4620202020202020200000D9
:1006E0004F4E20004F4E00004F4E20202020202053
:1006F00020200000CAD6B6AFBFD8D6C620B2B9B93E
:10070000E2B5C6D2D1BFAA0A00000000CAD6B6AF71
:10071000BFD8D6C620B2B9B9E2B5C6D2D1B9D80AC7
:1007200000000000CAD6B6AFBFD8D6C620BDBDCB2C
:10073000AEBBFAD2D1BFAA0A00000000CAD6B6AF3B
:10074000BFD8D6C620BDBDCBAEBBFAD2D1B9D80A70
:1007500000000000CAD6B6AFBFD8D6C620BCD3C8EA
:10076000C8C6F7D2D1BFAA0A00000000CAD6B6AFE9
:10077000BFD8D6C620BCD3C8C8C6F7D2D1B9D80A0C
:1007800000000000CAD6B6AFBFD8D6C620BCD3CAB8
:10079000AAC6F7D2D1BFAA0A00000000CAD6B6AFD7
:1007A000BFD8D6C620BCD3CAAAC6F7D2D1B9D80AF8
:1007B00000000000FBA007F0F7FB00231A461946D3
:1007C000206804F0A1FC009802287FF429AF03F010
:1007D000ABF9757000233A461946206804F0B3FD62
:1007E000F6A007F0E1FB00231A461946206804F042
:1007F0008BFC15E708B500250095F64E6F1EA6F197
:1008000034043B466A460321002006F0C5F90098EF
:10081000012812D103F0A0FE0120307000233A46D7
:100820001946206804F08FFDEBA007F0BDFB002304
:100830001A461946206804F067FC00980228E0D1A7
:1008400003F08EFE357000233A461946206804F006
:100850007AFDE7A007F0A8FB00231A461946206896
:1008600004F052FCCDE7DB4E0025343EE64FE74C6A
:10087000EBE0E7A1E94807F044F8002842D0E8A1FE
:10088000E64807F03EF8002849D0E8A1E34807F021
:1008900038F8002850D0E8A1E04807F032F80028E6
:1008A00057D0E8A1DD4807F02CF800285ED0E8A179
:1008B000DA4807F026F8002865D0E8A1D74807F005
:1008C00020F800286CD0E8A1D44807F01AF80028D6
:1008D00076D0E8A1D14807F014F800287FD0E8A12D
:1008E000CE4807F00EF8002869D0E8A1CB4807F001
:1008F00008F8002871D0E8A1C84807F002F80028DD
:100900006CD09FE0012200231146B06906F086F901
:10091000C821C24806F0E3FF3D70257092E0002335
:1009200001220221B06906F079F9C821BB4806F01E
:10093000D6FF3D70257085E0012200231146F06945
:1009400006F06CF9C821B54806F0C9FF3D70257066
:1009500078E0002301220221F06906F05FF9C82146
:10096000AE4806F0BCFF3D7025706BE0012200230D
:100970001146306A06F052F9C821A84806F0AFFFC8
:100980003D7025705EE0002301220221306A06F0EE
:1009900045F9C821A14806F0A2FF3D70257051E03D
:1009A000012200231146706A06F038F9C8219B48DD
:1009B00006F095FF3D70257044E001E00FE01BE07C
:1009C000002301220221706A06F028F9C821934809
:1009D00006F085FF3D70257034E01AE026E0012224
:1009E00000231146B06A06F019F9C8218B4806F0B9
:1009F00076FF3D70257025E0002301220221B06AB8
:100A000006F00CF9C821854806F069FF3D70257095
:100A100018E0012200231146F06A06F0FFF8C82111
:100A20007E4806F05CFF3D7025700BE0002301223C
:100A30000221F06A06F0F2F8C821784806F04FFF6C
:100A40003D702570642005F07BFA20780128F9D1EB
:100A50000FE72DED048BDFED938A9FED938A5D4CBC
:100A60000026DFF8A4914FF03C084FF01E0AB3EEC9
:100A7000049A8E4F343C574DD2E28DA1674806F060
:100A800040FF90B18DA1654806F03BFF00283DD0A6
:100A90008DA1624806F035FF00286BD08DA15F481C
:100AA00006F02FFF00287CD089E1C8215B4806F0C2
:100AB00016FF89F800608BF8006040F2DC50386067
:100AC00040107860C7ED068A87ED078A6420B881F8
:100AD0005020F881A7F80880A7F80AA0B3EE0B0A07
:100AE00087ED040AB3EE070A87ED050A00235A1EB4
:100AF0001946206804F027FC79A007F055FA002376
:100B00001A461946206804F0FFFA58E1C821434804
:100B100006F0E5FE89F800608BF8006040F2EE20F8
:100B2000386040F2262078609FED750A87ED060A4E
:100B300087ED078A4620B8813220F881A7F808801F
:100B4000A7F80AA0B3EE060A87ED040AB3EE010A7D
:100B500087ED050A00235A1E1946206804F0F3FBAE
:100B600068A007F021FA00231A461946206804F00D
:100B7000CBFA24E1C821294806F0B1FE89F80060CB
:100B80008BF800604FF4966038604FF448707860DE
:100B9000C7ED068A87ED078A5020B881A7F80E8036
:100BA000C0E0D9E0CAD6B6AFBFD8D6C620CDA8B768
:100BB000E7BFDAD2D1BFAA0A00000000CAD6B6AF9A
:100BC000BFD8D6C620CDA8B7E7BFDAD2D1B9D80AE8
:100BD0000000000034000020CAD6B6AFBFD8D6C689
:100BE00020CDA8B7E7C9C8D2D1BFAA0A000000002B
:100BF000CAD6B6AFBFD8D6C620CDA8B7E7C9C8D227
:100C0000D1B9D80A0000000064000020650000206F
:100C10006F70656E2056656E740000002C01002018
:100C2000636C6F73652056656E7400006F70656E3F
:100C300020536572766F0000636C6F736520536597
:100C400072766F006F70656E2048756D6964000084
:100C5000636C6F73652048756D6964006F70656EB5
:100C60002048656174000000636C6F7365204865FF
:100C7000617400006F70656E2057617465720000CA
:100C8000636C6F7365205761746572006F70656E79
:100C9000204C696768740000636C6F7365204C6951
:100CA0006768740000008C42000070420C01002054
:100CB000636865636B6F75742031200063686563DA
:100CC0006B6F757420322000636865636B6F757499
:100CD00020332000636865636B6F757420342000D7
:100CE000D7D4B6AFC4A3CABDA3BAD5FDD4DAC7D092
:100CF000BBBBD6C120B7ACC7D120BBB7BEB30A00BF
:100D00000000A042D7D4B6AFC4A3CABDA3BAD5FDD4
:100D1000D4DAC7D0BBBBD6C120B2DDDDAE20BBB7B5
:100D2000BEB30A00A7F80880A7F80AA087ED049AC6
:100D3000B2EE0E0A87ED050A00235A1E19462068F6
:100D400004F001FBF8A007F02FF900231A4619461A
:100D5000206804F0D9F932E0C821FC4806F0BFFD54
:100D600089F800608BF800604FF4FA6038604FF447
:100D7000966078609FEDF60A87ED060AB3EE0E0ADC
:100D800087ED070A6420B8815A20F881A7F8088007
:100D9000A7F80AA087ED049AB3EE000A87ED050ACA
:100DA00000235A1E1946206804F0CDFAE9A007F086
:100DB000FBF800231A461946206804F0A5F9DFF86D
:100DC000B4B33968DBF80400884203D9697859B1B3
:100DD000297849B17968884232D2687801281AD0D6
:100DE0002878012817D02BE002F098FE03F0B4FB1E
:100DF0000120687028700023821E1946206804F0C4
:100E0000A2FADDA007F0D0F800231A4619462068A0
:100E100004F07AF914E002F087FE03F0A1FB6E7093
:100E20002E7000235A1E1946206804F08CFADFA0A9
:100E300007F0BAF800231A461946206804F064F94E
:100E40009BED040AD7ED060AB4EEE00AF1EE10FAC3
:100E500002DDA878012809D0D7ED070AB4EEE00A30
:100E6000F1EE10FA28D2A87898B125E003F09EFBA5
:100E7000AE7000235A1E1946206804F064FAD8A008
:100E800007F092F800231A461946206804F03CF94E
:100E900012E003F087FB0120A8700023821E194690
:100EA000206804F050FAD8A007F07EF800231A4614
:100EB0001946206804F028F9BBF80A00B98988426D
:100EC00002D96979012905D0F989884228D268793F
:100ED00098B125E003F0B6FB6E7100235A1E194647
:100EE000206804F030FAD2A007F05EF800231A461A
:100EF0001946206804F008F912E003F09FFB012076
:100F000068710023821E1946206804F01CFAD2A0E2
:100F100007F04AF800231A461946206804F0F4F84E
:100F2000BBF808003989884202D92979012905D0FE
:100F30007989884228D2287998B125E003F0EAFA25
:100F40002E7100235A1E1946206804F0FCF9CCA02B
:100F500007F02AF800231A461946206804F0D4F84E
:100F600012E003F0D3FA012028710023821E1946F3
:100F7000206804F0E8F9CCA007F016F800231A4620
:100F80001946206804F0C0F89BED030AD7ED040A67
:100F9000B4EEE00AF1EE10FA07DD687828B9287897
:100FA000012802D1E878012809D0D7ED050AB4EE6E
:100FB000E00AF1EE10FA2FD2E878D0B12CE002F07E
:100FC000ADFD03F0C9FA03F017FB0120687028702B
:100FD000EE700023821E1946206804F0B4F9BCA00C
:100FE00006F0E2FF00231A461946206804F08CF848
:100FF00012E003F0FDFA0120E8700023821E19467A
:10100000206804F0A0F9C1A006F0CEFF00231A4624
:101010001946206804F078F84FF47A7004F090FFD5
:10102000DFF810B39BF8000001287FF43DAD24E504
:10103000504CC14E41F2883AA6F134054FF0FF39C9
:1010400004F1100704F10C083CE0BCA006F0ACFF72
:1010500002E0BBA006F0A8FFBBA006F0A5FF7078D9
:1010600001285BD0B6A006F09FFFB9A006F09CFF58
:101070003078012853D0B2A006F096FFB6A006F053
:1010800093FFB07801284BD0ADA006F08DFFB4A03F
:1010900006F08AFF3079012843D0A9A006F084FF2A
:1010A000B1A006F081FF707901283BD0A4A006F022
:1010B0007BFF00231A461946286804F025F850469D
:1010C00004F03EFF00234A461946286804F03BF925
:1010D0003946404602F0F0FF0821202003F0B0F925
:1010E00003F0D1F92060000C6060052002F0DDFE05
:1010F0006081042002F0B6FE2081E06806F0D7FD92
:1011000041EC100B9AA053EC102B06F04DFF94ED20
:10111000040ABDEEC00A10EE101A2DE143E147E1CA
:101120004BE14FE153E10000D7D4B6AFC4A3CABD31
:10113000A3BAD5FDD4DAC7D0BBBBD6C120D3F4BD8A
:10114000F0CFE320BBB7BEB30A0000002C010020A3
:1011500000004842D7D4B6AFC4A3CABDA3BAD5FDD8
:10116000D4DAC7D0BBBBD6C120BEC2B2CB20BBB77E
:10117000BEB30A00F8000020D7D4B6AFC4A3CABDDE
:10118000A3BAB6FED1F5BBAFCCBCC5A8B6C8B9FDF5
:10119000B8DFA3ACD2D1BFAAC6F420CDA8B7E7C9A7
:1011A000C8D3EBCDA8B7E7BFDA0A0000D7D4B6AFF3
:1011B000C4A3CABDA3BAB6FED1F5BBAFCCBCC5A80B
:1011C000B6C8B9FDB5CDA3ACD2D1B9D8B1D520CD73
:1011D000A8B7E7C9C8D3EBCDA8B7E7BFDA0A0000C4
:1011E000D7D4B6AFC4A3CABDA3BABFD5C6F8CAAADE
:1011F000B6C8B9FDB8DFA3ACD2D1B9D8B1D520BC3F
:10120000D3CAAAC6F7200A00D7D4B6AFC4A3CABDB2
:10121000A3BABFD5C6F8CAAAB6C8B9FDB5CDA3ACA6
:10122000D2D1BFAAC6F420BCD3CAAAC6F7200A00EE
:10123000D7D4B6AFC4A3CABDA3BAB9E2D5D5C7BF88
:10124000B6C8B9FDB8DFA3ACD2D1B9D8B1D520B2F8
:10125000B9B9E2B5C6200A00D7D4B6AFC4A3CABD97
:10126000A3BAB9E2D5D5C7BFB6C8B9FDB5CDA3AC51
:10127000D2D1BFAAC6F420B2B9B9E2B5C6200A00DD
:10128000D7D4B6AFC4A3CABDA3BACDC1C8C0CAAA79
:10129000B6C8B9FDB8DFA3ACD2D1B9D8B1D520BD9D
:1012A000BDCBAEBBFA200A00D7D4B6AFC4A3CABD2B
:1012B000A3BACDC1C8C0CAAAB6C8B9FDB5CDA3AC42
:1012C000D2D1BFAAC6F420BDBDCBAEBBFA200A0066
:1012D000D7D4B6AFC4A3CABDA3BABFD5C6F8CEC2D1
:1012E000B6C8B9FDB8DFA3ACD2D1BFAAC6F420CD31
:1012F000A8B7E7C9C82CCDA8B7E7BFDA20D2D1B9C3
:10130000D8B1D520BCD3C8C8C6F70A00D7D4B6AF69
:10131000C4A3CABDA3BABFD5C6F8CEC2B6C8B9FD6C
:10132000B5CDA3ACD2D1BFAAC6F420BCD3C8C8C621
:10133000F7200A0065000020340000204F4E0A000C
:101340004F46460A00000000CDA8B7E7BFDA3A00D2
:10135000B7E7BBFA3A000000BCD3CAAAC6F73A0006
:10136000BDBDCBAEBBFA3A004C45443A000000008C
:10137000543A252E32664300CBA006F015FE618953
:10138000CCA006F011FE2189CCA006F00DFECDA068
:10139000616806F009FECEA006F006FEF07801288E
:1013A0007FF457AE51E6AFF26C0006F0FDFD5CE64F
:1013B000AFF2780006F0F8FD60E6AFF2800006F0CC
:1013C000F3FD64E6AFF28C0006F0EEFD68E6AFF2E6
:1013D000940006F0E9FD6CE60026BF4CBF4F4FF0CD
:1013E000FF38BF4D60E0BFA1C14806F08AFA58B18E
:1013F000C0A1BF4806F085FA10B3C2A1BC4806F0F0
:1014000080FA002838D04CE0606904F0A6FE20691C
:1014100004F014FFC821B64806F061FA3E702E7041
:10142000002342461946206803F08DFFB7A006F05E
:10143000BBFD00231A461946206803F065FE30E024
:10144000206904F08AFE606904F0F8FEC821A8480B
:1014500006F045FA3E702E70002342461946206879
:1014600003F071FFADA006F09FFD00231A46194658
:10147000206803F049FE14E0C8219D4806F02FFAC9
:101480003E70002342461946206803F05CFFA7A087
:1014900006F08AFD00231A461946206803F034FE40
:1014A0002E70642004F04CFD28780128F9D19AE7C9
:1014B0007CB506F069F9012003F0F9FE864D28603D
:1014C000022405F10800CDE90040002380229BA101
:1014D000AFF2FB0004F046FB052105F10C00CDE95D
:1014E000001000232602324699A1AFF2BB4004F05F
:1014F00039FB05F11000CDE900400023324699A1E7
:10150000AFF6B12004F02EFB05F11400CDE9004048
:101510000023324697A1AFF6B14004F023FB032429
:1015200005F11800CDE900400023802295A1AFF617
:101530003B5004F017FB05F11C00CDE900400023EF
:10154000802296A1AFF6357004F00CFB05F1200067
:10155000CDE900400023802295A1AFF6BB7004F0D6
:1015600001FB05F12400CDE900400023802296A173
:101570009A4804F0F7FA05F12800CDE9004000236D
:10158000802297A19B4804F0EDFA05F12C00CDE9EB
:1015900000400023802298A19C4804F0E3FA05F162
:1015A00030000421CDE900100023324698A19C4868
:1015B00004F0D8FA02F0D4FF02F0B6FA02F0F6FF17
:1015C00003F01AF802F0A6FF03F03CF805F134012D
:1015D0000020C87088704870087008714871914880
:1015E00040F2DC510160491041609FED8F0A80EDAF
:1015F000060A9FED8E0A80ED070A64218181502141
:10160000C1813C2101811E214181B3EE0B0A80ED95
:10161000040AB3EE070A80ED050A286904F09DFD6F
:10162000686904F00BFE686804F0E5FABDE87C40E8
:1016300006F0C4B81CB54FF4407000F0E9F9A820DA
:1016400002F0B4F84FF4E13002F044F902F00EF980
:1016500002F08FFB02F0CAFB02F00DFF02F08AFDE0
:1016600002F0F6FF03F0A5F9532144F61F6002F0E3
:10167000FFF902F055FF02F02DFF02F09DFF02F08E
:1016800075FF02F0BFFF14480521001DCDE90010D1
:101690000023802266A1AFF2E71004F063FA04F0A1
:1016A0007EFE00201CBD000020483A2564252552FE
:1016B000480A00004C3A256400000000534D3A25CA
:1016C000640A0000434F323A256470706D0A0000CE
:1016D000BCD3C8C8C6AC3A0000000020640000209B
:1016E00065000020737769746368206175746F000A
:1016F0002C010020737769746368206D616E7561D9
:101700006C000000636C65616E000000D2D1C7D030
:10171000BBBBD7D4B6AFC4A3CABD0A00D2D1C7D011
:10172000BBBBCAD6B6AFC4A3CABD0A00BBBAB3E539
:10173000C7F8D2D1C7E5B3FD0A0000005573617246
:1017400074436F6D6D616E645461736B00000000D3
:10175000446174614163717569736974696F6E5432
:1017600061736B004175746F4D6F64655461736B89
:10177000000000004D616E75616C4D6F64546173C3
:101780006B00000056656E74696C6174696F6E431E
:101790006F6E74726F6C5461736B00005365727678
:1017A0006F436F6E74726F6C5461736B0000000056
:1017B00048756D69646966696572436F6E74726FAE
:1017C0006C5461736B00000048656174696E674317
:1017D0006F6E74726F6C5461736B00002F0500089C
:1017E0005761746572696E67436F6E74726F6C5483
:1017F00061736B00BD0400084C69676874436F6EC9
:1018000074726F6C5461736B000000004B0400082D
:101810004F6C6564446973706C61795461736B00DB
:10182000550200080C01002000008C4200007042AC
:1018300073746172745461736B0000007047FEE74B
:10184000FEE7FEE7FEE7704710B505F006F8012851
:1018500003D0BDE8104005F0C4BF10BD0CB5002298
:10186000019200925849086840F4803008604FF4B3
:10187000A043086800F4003000900198401C0190DB
:10188000009810B901989842F3D10868800302D5F6
:101890000120009000E000920098012831D14A48D0
:1018A0004030026842F0805202604848026842F4C8
:1018B000404202604448083002680260026842F414
:1018C00000420260026842F4A0520260021F404BD4
:1018D00013600A6842F080720A600A689201FCD5BF
:1018E0003C4A40F205711160016821F0030101607A
:1018F000016841F0020101600168C1F38101022920
:10190000FAD10CBD10B53448016841F47001016092
:101910002D48016841F0010101602B4A0021083285
:10192000116002682D4B1A400260031D2C4A1A6098
:10193000026822F48022026023480C300160FFF725
:101940008DFF25494FF000608039086010BD70B5EB
:101950001D4E0836306800F00C00224B224900284A
:101960000FD05D1004280ED008280ED00B60306810
:101970001D4AC0F30310121D105C0A68C2400A60C1
:1019800070BD0B60F3E70D60F1E70F4A121D1068A0
:10199000C0F38054106800F03F0034B1B5FBF0F0A4
:1019A0001368C3F38813584305E0B3FBF0F01368E2
:1019B000C3F3881358431268C2F30142521C520009
:1019C000B0FBF2F00860D2E700380240007000403F
:1019D00008544007003C024088ED00E0FFFFF6FE9F
:1019E000103000240024F4003C000020064880470A
:1019F00006480047FEE7FEE7FEE7FEE7FEE7FEE7F4
:101A0000FEE7FEE7FEE7FEE705190008890100088A
:101A10002B4908432B490860704730B50F23C27823
:101A200001250178002A1FD0264A126802F4E062DC
:101A3000C2F5E062C2F30722C2F10404D340427847
:101A4000A24084781C401443220101F1E02181F876
:101A50000024007800F01F018D404009800000F153
:101A6000E020C0F8005130BD01F01F00854048095A
:101A7000800000F1E020C0F8805130BD124A1140D2
:101A800001431048001F016070470E4A121D0029D3
:101A900003D01168014311607047116881431160E0
:101AA00070474FF0E021042804D0086920F00400BA
:101AB00008617047086940F0040008617047000041
:101AC0000000FA050CED00E080FFFF1F10B50121BA
:101AD0000C02204600F07FFE2046BDE810400021A9
:101AE00000F079BE30B54268DA4B1A400C790B68C9
:101AF00042EA0422134343608368D74A1340D1E982
:101B0000034222434D798C6844EA450422431A4338
:101B10008260C26A22F47002097D491EC9B242EA9B
:101B20000151C16230BD00210160017141718160CC
:101B3000C160016101210175704710B5C74C226871
:101B4000C7490A40D0E900131943D0E902300343E2
:101B500019431143216010BD002101604160816083
:101B6000C1607047002904D0816841F001018160A3
:101B70007047816821F00101816070474268B94B6C
:101B80001A400A434260704741628262704742686D
:101B900022F01F020A4342607047B349002806D072
:101BA000D1F8040340F40000C1F804037047D1F8F1
:101BB000040320F40000C1F804037047AA49002878
:101BC00006D0D1F8040340F48000C1F80403704744
:101BD000D1F8040320F48000C1F80403704770B505
:101BE000072609290AD9C568A1F10A0404EB4404AF
:101BF000A640B543A3401D43C56007E0056901EB5E
:101C00004104A640B543A3401D4305611F23072A95
:101C100009D2446B521E02EB820293409C439140D6
:101C20000C43446370BD0D2A09D2046BD21F02EB32
:101C3000820293409C4391400C43046370BDC46A8C
:101C40000D3A02EB820293409C4391400C43C462E4
:101C500070BD816841F0804181607047014600207D
:101C60008968490000D501207047002904D08168A7
:101C700041F4806181607047816821F480618160F6
:101C80007047002904D0816841F0020181607047EB
:101C9000816821F0020181607047426822F460424D
:101CA000491E42EA413141607047002904D0416831
:101CB00041F4006141607047416821F40061416076
:101CC0007047C06C80B270476448001D0068704760
:101CD000002904D0816841F4807181607047816877
:101CE00021F4807181607047002904D0816841F43B
:101CF000007181607047816821F4007181607047D4
:101D00005949002806D0D1F8040340F40050C1F826
:101D100004037047D1F8040320F40050C1F8040311
:101D2000704770B5072609290AD9C568A1F10A04C8
:101D300004EB4404A640B543A3401D43C56007E03F
:101D4000056901EB4104A640B543A3401D4305616D
:101D5000836BC3F30154121B921C02EB82021F24FB
:101D60009440A34391400B43836370BD826B22F484
:101D70004012491E42EA01518163704708B5009044
:101D80000098084400900098026008BD826822F420
:101D900070220A4382607047826822F440120A432C
:101DA00082607047816841F480018160704701461C
:101DB00000208968490200D501207047002904D01D
:101DC000416841F4806141607047416821F480615D
:101DD00041607047002904D0416841F4805141605E
:101DE0007047416821F480514160704708B5009008
:101DF00000980844283000900098006880B208BD20
:101E000001238B40002A03D0416819434160704789
:101E100041689943416070470246002012680A42B7
:101E200000D001207047C9430160704730B50246B9
:101E300000200B0A546801258D402C40116819427E
:101E400002D0002C00D0012030BD090AC943016036
:101E500070470000FFFEFFFCFDF7FFC004230140B8
:101E6000E030FCFFFFFD3FFF002001402DE9F04383
:101E7000016821F001010160002101604160816081
:101E8000C160016121214161C149C14A10394FF04E
:101E90003D08904203D1C1F80880BDE8F083BC4AF8
:101EA0004FF474651832904201D18D60F5E7B84A5D
:101EB0004FF474163032904201D18E60EDE7B44A8F
:101EC0004FF074674832904201D18F60E5E7B04B24
:101ED000B04A6033984201D1CA60DEE7AC4CAE4BE9
:101EE0007834A04201D1CB60D7E7DFF8A4C2AB4C75
:101EF0000CF1900C604501D1CC60CEE7DFF89092F8
:101F00004FF03D5C09F1A809484502D1C1F80CC069
:101F1000C3E7A349DFF888920839484502D1C1F8E0
:101F20000080BAE7DFF8788208F11808404501D14F
:101F30000D60B2E79A4D3035A84201D10E60ACE792
:101F4000974D4835A84201D10F60A6E7944D9449BA
:101F50006035091FA84201D10A609EE7904A783295
:101F6000904201D10B6098E78D4A9032904201D1A6
:101F70000C6092E78A4AA83290428ED1C1F800C024
:101F80008BE730B50368874A1340CC680A68224360
:101F9000D1E905452C432243CC6922430C6A2243F4
:101FA0004C6A22438C6A22434C6B22438C6B224343
:101FB0001A430260426922F00703D1E90B2422434D
:101FC0001A4342610A6942604A6882608968C16056
:101FD00030BD0021016041608160C16001614161EB
:101FE0008161C161016241628162C16201634163D9
:101FF00081637047002904D0016841F0010101604C
:102000007047016821F0010101607047002904D088
:10201000016841F4004101607047016821F400410A
:1020200001607047002904D0016841F0200101607F
:102030007047016821F020010160704741607047DE
:10204000406880B27047002A04D0026842F400223F
:10205000026003E0026822F400220260016170471E
:10206000002904D0016841F48021016070470168B3
:1020700021F4802101607047002A01D0016170477E
:10208000C1607047014600200968090300D501209E
:102090007047014600200968C90700D00120704739
:1020A000406900F038007047024600203C4B9A42DD
:1020B00002D2374A103A01E0394A103A8B0001D572
:1020C000526800E01268384B1A400A4200D00120E2
:1020D0007047334A904202D22D48103801E0304810
:1020E0001038314A8B0001EA020101D5C160704706
:1020F000816070470B0609D522B1436943F0800324
:10210000436103E0436923F080034361802905D0E4
:1021100001F01E011AB102680A43026070470268AA
:102120008A430260704730B500241D4A904202D2B3
:10213000174A103A01E01A4A103A1C4B194205D0CE
:102140001E2303EAD12503682B4002E0406900F01A
:102150008003880001D5506800E01068124A1040E2
:10216000084201D003B10124204630BD0C4A904200
:1021700002D20748103801E0094810380A4A8B009B
:1021800001EA020101D5C16070478160704700001B
:10219000106002403D000020400F002000003D2064
:1021A000106402403F801CF07D0F7D0F3C0F3C0F00
:1021B00010B58D49884209D10121084600F0DBFAAB
:1021C0000021BDE81040012000F0D5BA87498842BF
:1021D00009D10121022000F0CEFA0021BDE8104013
:1021E000022000F0C8BA8249884209D101210420A6
:1021F00000F0C1FA0021BDE81040042000F0BBBA95
:102200007C49884209D10121082000F0B4FA00215C
:10221000BDE81040082000F0AEBA7749884209D1E5
:102220000121102000F0A7FA0021BDE81040102085
:1022300000F0A1BA7149884209D10121202000F0A3
:102240009AFA0021BDE81040202000F094BA6C49B1
:10225000884209D10121402000F08DFA0021BDE81B
:102260001040402000F087BA6649884209D1012118
:10227000802000F080FA0021BDE81040802000F0AE
:102280007ABA614988420AD184150121204600F0BA
:1022900072FA2046BDE81040002100F06CBA5B499C
:1022A00088420AD144150121204600F064FA2046F4
:1022B000BDE81040002100F05EBA554988420AD1BD
:1022C00004150121204600F056FA2046BDE81040D2
:1022D000002100F050BA10BD2DE9F0410022012785
:1022E0004FF0030C07FA02F50B682B40AB422CD1E0
:1022F000066853000CFA03F4A64306600E79D0F882
:1023000000809E4046EA080606600E79012E01D044
:10231000022E12D18668A64386604E79D0F80880D6
:102320009E4046EA080686604668AE4346604568B9
:102330008E799640B6B235434560C568A543C56001
:10234000CC799C40C3681C43C460521C102AC9D37A
:10235000BDE8F0814FF6FF7101600021017141710C
:102360008171C171704708B541F480320092009AC2
:10237000C261C1610099C161C169C069009008BDB5
:102380000246002012690A4200D00120704700690D
:1023900080B270470246002052690A4200D00120F4
:1023A0007047406980B2704701837047418370472E
:1023B000002A01D001837047418370474161704713
:1023C00042694A404261704710B54B07DB0E9A40A4
:1023D000C90800EB8100016A0F249C40A1430162FF
:1023E000016A1143016210BD000002400004024076
:1023F00000080240000C024000100240001402409D
:1024000000180240001C024000200240002402404C
:1024100000280240FA48016841F001010160F84AD1
:102420000021083211600268F64B1A400260031D59
:10243000F54A1A60F24BF54A84331A60F24A103AB0
:102440001B1D1A60026822F480220260EC480C30E6
:102450000160181D01607047E9490022891C0A705B
:102460000870704702460020510901290CD002294A
:102470000DD0E3497431096802F01F020123934033
:102480000B4200D001207047DD490968F4E7DC49C0
:1024900070310968F0E718B5002000904FF4A044AF
:1024A0003120FFF7DFFF0099491C00910099A142FC
:1024B00001D00028F4D03120FFF7D4FF08B101206B
:1024C00018BD002018BDCE4A116821F0F80141EA7C
:1024D000C00010607047CE4908607047C8490022AC
:1024E00070310A700A70012804D0042801D1052037
:1024F00008707047012008707047C649086070472F
:1025000010B5029C41EA82114FF0FF3202EB5302F8
:1025100041EA0241014341EA0460B949091D0860EA
:1025200010BDBB4908667047800140EA0170B4499C
:10253000843108607047B64988667047800140EA78
:102540000160AF4940EA0270883108607047B049C5
:1025500008677047AE49C8647047A94B08331A68CA
:1025600022F0EC620843104318607047A44B083314
:102570001A6822F078420843104318607047A04A56
:102580000832116821F003010143116070479C4833
:102590000830006800F00C007047994A0832116852
:1025A00021F0F001014311607047954A083211682B
:1025B00021F4E051014311607047914A08321168DB
:1025C00021F4604141EAC0001060704770B58C4B47
:1025D0000833196801F00C018F4C00291ED06610D9
:1025E00004291DD008291DD00460196801F0F001EC
:1025F00009098A4A545C0168E14041601C6804F49E
:10260000E054A40A145D21FA04F484601B6803F406
:1026100060435B0BD25CD140C16070BD0460E4E7F5
:102620000660E2E7764A121D1168C1F38055116811
:1026300001F03F0135B1B6FBF1F11468C4F3881421
:10264000614305E0B4FBF1F11468C4F388146143FD
:102650001268C2F30142521C5200B1FBF2F1016058
:10266000C3E7C0F30121032908D1654B083319687A
:1026700021F4F8126A49014011431960604A70322E
:102680001168C0F30B000143116070476149443980
:10269000086070475F4940390860704761490860C9
:1026A0007047574A8C32116821F01F01401E0143C8
:1026B00011607047524A8C32116821F4F851401E63
:1026C00041EA0020106070474D4A8C32116821F4B5
:1026D0004011014311607047494A8C32116821F45E
:1026E0004001014311607047454A8C32116821F462
:1026F00040310143116070474B4908607047404AC0
:102700003032002903D0116801431160704711680D
:102710008143116070473A4A3432002903D011686E
:102720000143116070471168814311607047344A5A
:102730003832002903D011680143116070471168D5
:102740008143116070472E4A4032002903D011683E
:102750000143116070471168814311607047284A36
:102760004432002903D01168014311607047116899
:10277000814311607047224A1032002903D011684A
:1027800001431160704711688143116070471C4A12
:102790001432002903D01168014311607047116899
:1027A000814311607047164A1832002903D011681E
:1027B0000143116070471168814311607047104AEE
:1027C0002032002903D0116801431160704711685D
:1027D0008143116070470A4A2432002903D01168EE
:1027E0000143116070471168814311607047044ACA
:1027F000503200291AD0116801431160704700005F
:1028000000380240FFFFF6EA1030002400300020BC
:1028100000004742800E47420024F4005000002090
:10282000FFFCFF0F5C014742E01147421168814302
:102830001160E3E72E4A002903D0116801431160BB
:10284000DCE7116881431160D8E7294A121D00298D
:1028500003D0116801431160D0E711688143116012
:10286000CCE7234A0C32002903D0116801431160E0
:10287000C4E7116881431160C0E71D4A1032002986
:1028800003D0116801431160B8E7116881431160FA
:10289000B4E717491C31012804D0086820F008006B
:1028A0000860ABE7086840F008000860A6E7104A37
:1028B000473A002903D01178014311709EE711783F
:1028C000814311709AE70A482030016841F0807115
:1028D000016093E701460020054A483A12680A421F
:1028E0008CD001208AE702494639087086E700004B
:1028F0005438024010B5F949884209D101210846EF
:10290000FFF769FF0021BDE810400120FFF763BF1A
:10291000B0F1804F0CD0F249884213D1012102203E
:10292000FFF74DFF0021BDE810400220FFF747BF31
:1029300001210846FFF743FF0021BDE810400120B8
:10294000FFF73DBFE749884209D101210420FFF785
:1029500036FF0021BDE810400420FFF730BFE249F8
:10296000884209D101210820FFF729FF0021BDE895
:1029700010400820FFF723BFDC49884209D101211C
:102980001020FFF71CFF0021BDE810401020FFF7CA
:1029900016BFD749884209D101212020FFF70FFF38
:1029A0000021BDE810402020FFF709BFD14988422F
:1029B00009D101210220FFF70EFF0021BDE81040E0
:1029C0000220FFF708BFCC4988420AD101210C043C
:1029D0002046FFF700FF2046BDE810400021FFF72A
:1029E000FABEC64988420AD101214C042046FFF7AD
:1029F000F2FE2046BDE810400021FFF7ECBEC049C2
:102A000088420AD101218C042046FFF7E4FE2046CB
:102A1000BDE810400021FFF7DEBEBA49884209D167
:102A200001214020FFF7CBFE0021BDE810404020EF
:102A3000FFF7C5BEB449884209D101218020FFF7C4
:102A4000BEFE0021BDE810408020FFF7B8BEAF49B0
:102A500088420AD1841501212046FFF7B0FE2046A6
:102A6000BDE810400021FFF7AABE10BD30B50288B6
:102A70009A4CA04DA0420DD0A8420BD0B0F1804F8F
:102A800008D0974B984205D0964B984202D0964B6F
:102A9000984203D122F070034A881A43934B98421C
:102AA00006D0934B984203D022F440730A891A430C
:102AB00002804A68C2620A880285A04201D0A84208
:102AC00001D1897A01860121818230BD4FF0FF3129
:102AD0004160002101800181418081727047018540
:102AE00082827047028822F070020A430280704797
:102AF00041627047C1627047406A7047008D7047FD
:102B0000002904D0018841F002010180704701884A
:102B100021F0020101807047002904D0018841F0B2
:102B2000040101807047018821F004010180704791
:102B3000002904D0018841F080010180704701889C
:102B400021F0800101807047028822F00802028093
:102B500002880A4302807047028822F44072028091
:102B600002880A4302807047002904D0018841F09E
:102B7000010101807047018821F001010180704747
:102B800030B5028C22F001020284058C8388028B0E
:102B900022F0700222F003020C88144325F0020296
:102BA0008D8915434A882A434C4DA84202D0514D85
:102BB000A8420FD122F00805CA892A4322F0040551
:102BC0008A882A4323F4807323F400730D8A1D43FB
:102BD0004B8A2B438380048389684163028430BD20
:102BE00070B5028C22F010020284028C8388048B60
:102BF00024F4E04424F440760D884FF6FF7404EA90
:102C00000525354322F020028E8904EA0616164374
:102C10004A8804EA02123243304EB04202D0354EA6
:102C2000B04217D122F08002CE8904EA061616437C
:102C300026F040068A8804EA0212324323F48063B5
:102C400023F400630E8A04EA86061E434B8A04EAD4
:102C5000830333438380058389688163028470BD65
:102C600070B5028C22F480720284028C8388848B7B
:102C700024F0700424F003040D88254322F400722C
:102C80008E894FF6FF7404EA062616434A8804EA42
:102C900002223243114EB04202D0164EB04217D13A
:102CA00022F40066CA8904EA0222324322F48066D2
:102CB0008A8804EA0222324323F4805323F4005327
:102CC0000E8A04EA06161E434B8A04EA03133343B2
:102CD000838085838968C163028470BD00000140E0
:102CE0000004004000080040000C004000100040BC
:102CF0000014004000040140004001400044014035
:102D00000048014000180040001C00400020004026
:102D100070B5028C22F480520284058C8288838BE9
:102D200023F4E04323F440760C884FF6FF7303EA64
:102D30000424344325F400558E8903EA06362E43D5
:102D40004D8803EA05353543FE4EB04202D0FE4EB3
:102D5000B04205D122F480460A8A03EA8212324345
:102D600082808483896801640584B6E7002101803C
:102D70004180818081608181C1810182418270476F
:102D800030B500F1180301248C40058CA54305845F
:102D9000002912D0082910D0091FC1F34E00184491
:102DA000016848F6FF731940016001684FF6FF7330
:102DB00003EA02221143016030BD03EB51000168B8
:102DC0004FF68F731940016001681143016030BDF7
:102DD0004163704781637047C16370470164704706
:102DE000028B22F070020A4302837047028B22F4A6
:102DF000E0424FF6FF7303EA01211143018370475C
:102E0000828B22F070020A4382837047828B22F405
:102E1000E0424FF6FF7303EA0121114381837047BB
:102E2000028B22F008020A4302837047028B22F4CD
:102E300000624FF6FF7303EA0121114301837047DB
:102E4000828B22F008020A4382837047828B22F42D
:102E500000624FF6FF7303EA01211143818370473B
:102E6000028B22F004020A4302837047028B22F491
:102E700080624FF6FF7303EA01211143018370471B
:102E8000828B22F004020A4382837047828B22F4F1
:102E900080624FF6FF7303EA01211143818370477B
:102EA000028B22F080020A4302837047028BC2F336
:102EB0000E024FF6FF7303EA0121114301837047AD
:102EC000828B22F080020A4382837047828BC2F396
:102ED0000E024FF6FF7303EA01211143818370470D
:102EE000028C22F002020A4302847047028C22F014
:102EF00008020A4302847047028C22F020024FF637
:102F0000FF7303EA0111114301847047028C22F020
:102F100080024FF6FF7303EA0111114301847047E9
:102F2000028C22F400724FF6FF7303EA0121114371
:102F300001847047028C22F400624FF6FF7303EAAB
:102F40000121114301847047028C22F400524FF694
:102F5000FF7303EA013111430184704710B5012367
:102F60008B40048C9C430484038C8A401343038469
:102F700010BD10B504238B40048C9C430484038C47
:102F80008A401343038410BD828B22F44062828303
:102F9000828B4FF6FF7303EA01210A438283704755
:102FA00070B5048C24F480540484858B068C4FF611
:102FB000FF7404EA013125F4734504EA02222A432E
:102FC00004EA0333134326F420420A4342F48051B7
:102FD0008383018481E6828B22F00C028283828BC0
:102FE0000A4382837047F0B5048C24F4807404840F
:102FF000868B058C4FF6FF7707EA012426F0F3064F
:1030000007EA03111143314325F42062224342F4BD
:10301000807281830284F0BD028B22F440620283BD
:10302000028B4FF6FF7303EA01210A4302837047C4
:1030300070B5048C24F010040484058B068C4FF6C4
:10304000FF7404EA011125F4734504EA03332B43AA
:1030500004EA02221A4326F0A0030B4343F01001B6
:103060000283018439E6028B22F00C020283028B78
:103070000A430283704770B5048C24F00104048471
:10308000058B048C25F0F3054FF6FF7606EA031353
:1030900013432B4324F00A020A4342F00101038345
:1030A00001841AE670B506460C4625886188A28818
:1030B0002389002D0BD0042D11D0082D17D03046B8
:1030C000FFF76EFFE1883046BDE870405CE73046B0
:1030D000FFF7D1FFE1883046BDE87040C3E73046D6
:1030E000FFF7A6FFE1883046BDE8704094E7304620
:1030F000FFF779FFE1883046BDE870406BE70021BB
:103100000180418001228280C180018170472DE9C8
:10311000F04107460C46002501266188002900D1B0
:103120000225A288012A00D1022620882389B0B175
:103130003846FFF77DFFE1883846FFF76DFF2389AA
:10314000324603E0000001400004014029463846B1
:10315000FFF791FFE1883846BDE8F04183E7384644
:10316000FFF789FFE1883846FFF77DFF2389324664
:1031700029463846FFF75CFFE1883846BDE8F04154
:103180004AE7406B7047806B7047C06B7047006CBC
:10319000704710B50A884B88CC881A438B88234324
:1031A0001A430B891A434B8989891A430A43A0F8A9
:1031B000442010BD0021018041808180C1800181B7
:1031C000418181817047002905D030F8441F41F4C6
:1031D00000410180704730F8441FC1F30E010180A7
:1031E0007047002904D0818841F004018180704734
:1031F000818821F0040181807047002904D08188F2
:1032000041F0010181807047818821F001018180B6
:103210007047002A03D082890A43828170478289DD
:103220008A43828170478182704702460020128A59
:103230000A4200D001207047C9430182704702460C
:103240000020138A0B4092890A40002B02D0002AEA
:1032500000D001207047C943018270471143A0F894
:1032600048107047002A03D082890A438281704740
:1032700082898A4382817047002904D0818841F085
:10328000080181807047818821F0080181807047A2
:10329000018921F0070101817047028922F0700243
:1032A0000A430281704700B503461846FFF7F5FF51
:1032B000188940F00700188100BD70B50D4604461E
:1032C0001146602D0CD001222046FFF7D4FE29467E
:1032D0002046FFF7E2FF208940F007002081FCE450
:1032E00001222046FFF7A4FEF1E730B50489E4B2DD
:1032F0004FF6FF7505EA032313430B432343038172
:1033000030BD10B504462046FFF7EFFF208920F0BE
:10331000070040F0070020F0700040F070002081AE
:1033200010BD10B504462046FFF7DFFF208940F4AA
:103330008040208110BD828822F0700282808288C5
:103340000A4382807047028922F0070202810289C3
:103350000A4302817047028922F0800202810289B9
:103360000A430281704770B50589048B068C25F0ED
:1033700007050D434FF6FC410C4040F201110C4390
:1033800026F022064FF6FF7101EA03111143314383
:10339000058104830184A0E4002904D0818841F0E0
:1033A000800181807047818821F080018180704791
:1033B000A0F850107047000010B5F449884209D1B8
:1033C00001211020FFF707FA0021BDE8104010206E
:1033D000FFF701BAEE4988420AD101214C04204688
:1033E000FFF7EDF92046BDE810400021FFF7E7B9EF
:1033F000E84988420AD101218C042046FFF7DFF911
:103400002046BDE810400021FFF7D9B9E2498842C3
:103410000AD10121CC042046FFF7D1F92046BDE8AE
:1034200010400021FFF7CBB9DC4988420AD10121C5
:103430000C052046FFF7C3F92046BDE810400021E7
:10344000FFF7BDB9D649884209D101212020FFF7F5
:10345000C2F90021BDE810402020FFF7BCB9D149D6
:1034600088420AD101218C072046FFF7A8F920469F
:10347000BDE810400021FFF7A2B9CB4988420AD12C
:10348000440501212046FFF79AF92046BDE8104087
:103490000021FFF794B910BD7FB504460D46208A80
:1034A00020F44051E88808432082A08941F20C6151
:1034B0008843A9882A8911436A8902431143A1815B
:1034C000A08A20F44071A8890843A0826846FFF7CB
:1034D0007DF8AE48844202D0B148844201D10398BD
:1034E00000E00298A189090408D500EBC00101EBB6
:1034F000001029684900B0FBF1F007E000EBC001C3
:1035000001EB001029688900B0FBF1F06422B0FBE8
:10351000F2F109010B096FF018056B4300EB830012
:10352000A3891D044FF0320307D503EBC000B0FBA5
:10353000F2F000F00700084306E003EB0010B0FBD8
:10354000F2F000F00F00084320817FBD4FF41651C8
:10355000016000218180C18001810C224281818132
:10356000704710B5028A22F470630A884C8822439F
:103570008C88C9880C4322431A43028210BD002163
:10358000018041808180C1807047002904D08189F9
:1035900041F4005181817047818921F4005181817A
:1035A0007047028B02F47F420283028B0A4302833C
:1035B0007047002904D0818941F40041818170471E
:1035C0008189C1F30E0181817047002904D0818A6D
:1035D00041F4006181827047818A21F40061818217
:1035E0007047C1F30801818070478088C0F30800EC
:1035F0007047028A22F00F020282028A0A43028284
:103600007047002904D0818941F00201818170470F
:10361000818921F0020181817047828922F4006250
:10362000828182890A4382817047028A22F02002C5
:103630000282028A0A4302827047002904D0018A6A
:1036400041F4804101827047018A21F48041018266
:103650007047818941F0010181817047002904D0C0
:10366000818A41F0080181827047818A21F0080136
:1036700081827047028BD2B20283028B42EA01211F
:1036800001837047002904D0818A41F020018182A2
:103690007047818A21F0200181827047002904D07F
:1036A000818A41F0100181827047818A21F01001E6
:1036B00081827047828A22F004028282828A0A43CF
:1036C00082827047002904D0818A41F00201818200
:1036D0007047818A21F0020181827047002A03D05D
:1036E000828A0A4382827047828A8A438282704732
:1036F00010B540F66A13C1F3421301F01F04012113
:10370000A140012B07D0022B07D014303AB1026838
:103710000A43026010BD0C30F8E71030F6E702688B
:103720008A43026010BD0246002012880A4200D07F
:10373000012070478A05C9430180704770B5002495
:1037400040F66A12C1F3421301F01F05012606FA82
:1037500005F2012B0CD0022B0DD0838A1340090AED
:103760008E40008830400BB100B10124204670BD6E
:1037700083891340F3E7038A1340F0E740F66A12A7
:103780000A0A01219140C94301807047001001409D
:103790000044004000480040004C00400050004001
:1037A0000014014000780040007C004001B56FF03B
:1037B0000400FEF776F99DF800003D49C008087046
:1037C000087800EB4002C2EBC0104FF6FF7202EA2D
:1037D000C000488008BD3649097848434FF0E021D1
:1037E000486100238B61086940F0010008610869A5
:1037F000C20701D0C003FAD5086920F001000861B2
:103800008B6170472A49498848434FF0E02148615D
:1038100000238B61086940F0010008610869C20754
:1038200001D0C003FAD5086920F0010008618B615E
:10383000704738B54FF40774B0FBF4F10091B0FB5A
:10384000F4F104FB110506E02046FFF7DBFF9DF8CD
:103850000010491E00919DF800100029F4D1002DA0
:1038600003D02846BDE83840CCE738BD1148016890
:1038700041F080710160104800214160016841F011
:1038800001010160704730B50B4A546800210B4BB1
:103890000B4D1B68B3FBF5F3434301E05068011B7C
:1038A0009942FBD330BD4FF47A714843EBE70000F7
:1038B00060000020FCED00E0001000E03C00002073
:1038C00040420F00704740490A885206FCD5C2B2F8
:1038D0008A807047F0B587B0054601210846FEF79B
:1038E0000EFF01211020FEF73AFF384F0722092171
:1038F0003846FEF769FD07220A213846FEF764FDC7
:103900004FF4C060059002208DF818008DF8190062
:1039100000248DF81A4001268DF81B6005A9384651
:10392000FEF7DAFC0195ADF80840ADF80A40ADF8B5
:103930000C40ADF810400C20ADF80E00224C01A94F
:103940002046FFF7A9FD01212046FFF71EFE40217A
:103950002046FFF7EFFE012240F225512046FFF7F7
:10396000C7FE012240F224412046FFF7C1FE252078
:103970008DF8000003208DF801008DF802008DF80D
:1039800003606846FEF749F807B0F0BD70B50E4C0D
:1039900040F225512046FFF7D1FE0D4D38B12046AB
:1039A000FFF723FE0B4A29785054491C297040F236
:1039B00024412046FFF7C2FE002803D02088A088BB
:1039C0000120687070BD000000100140000002403E
:1039D000640000202C0100202DE9F0418AB0064649
:1039E0000D4601210220FEF7AEFE01210846FEF73A
:1039F00086FEDFF84081022206214046FEF7E4FC05
:103A00004020089002208DF8240003208DF8250026
:103A100000248DF8264001278DF8277008A940461C
:103A2000FEF75AFCADF81450ADF816400696ADF806
:103A30001C40414D05A92846FFF718F86021ADF854
:103A40000010ADF80270ADF80C4069462846FFF74B
:103A500097F808212846FFF7E3F901212846FFF7E8
:103A600067F801212846FFF77FF80AB0BDE8F0812A
:103A70002DE9F0418AB080460E4601210846FEF746
:103A800062FE01210846FEF73AFE2A4F012200217C
:103A90003846FEF799FC0125089502208DF8240090
:103AA00003208DF8250000248DF826408DF827503E
:103AB00008A93846FEF710FCADF81460ADF81640C2
:103AC000CDF81880ADF81C40AE0705A93046FEF7CA
:103AD000CDFF6021ADF80010ADF80250ADF80C40FC
:103AE00069463046FFF74CF880213046FFF733FC3B
:103AF00040213046FFF71FFC01213046FFF734F824
:103B000008213046FFF78CF901213046FFF710F805
:103B10004FF47A713046FFF75BF9A6E740F27E4139
:103B20004FF08040FFF754B94FF4FA710807FFF7E0
:103B30004FB9000000000240000400407FB5044679
:103B40000D4601210220FEF7FEFD0294ADF804505F
:103B50000024ADF80640ADF80C403B4D01A92846C5
:103B6000FEF784FF012211462846FFF752FB012190
:103B70002846FEF7F9FF1D208DF8000004208DF87F
:103B800001008DF8024001208DF803006846FDF722
:103B900044FF7FBD2D480022026042605321312046
:103BA000CCE77FB504460D4601210820FEF7CBFD8A
:103BB0000294ADF804500024ADF80640ADF80C4076
:103BC000234D01A92846FEF751FF01221146284640
:103BD000FFF71FFB01212846FEF7C6FF32208DF8B4
:103BE000000005208DF801008DF8024001208DF8BD
:103BF00003006846FDF711FF7FBD10B5124C01218F
:103C00002046FFF71CFB012807D110490A684B68C2
:103C1000521C43F100030A604B602046BDE810408F
:103C20000121FFF718BB10B5094C01212046FFF711
:103C300006FB012801D100F02BF82046BDE810401A
:103C40000121FFF708BB00000004004070000020C5
:103C5000000C00401CB501210220FEF750FD0120A0
:103C600000908DF8040000208DF8060003218DF8E7
:103C700005108DF8070069460748FEF72DFB1CBDAF
:103C800001210548FEF792BB01210348FEF78CBBDA
:103C900001210148FEF794BB000402402DE9F041E8
:103CA0009CB001210E023046FEF759FD0121AF48BC
:103CB000FEF725FD06201A9003258DF86C50002490
:103CC0008DF86F401AA9AA48FEF706FB16941994BE
:103CD000B00118908000179016A8FDF72EFF1094E1
:103CE00001218DF844108DF8451012941494022788
:103CF0008DF85470DFF87C8210A94046FDF7F2FE83
:103D00000122072311464046FDF769FF02220723DF
:103D100011464046FDF763FF01214046FDF7E4FFF1
:103D200001214046FDF7D4FFDFF84C824046FEF704
:103D30009DF801948F484C3002900694C11408916C
:103D40008E480390481007900991049405970A96AD
:103D5000C0010B900C940D950E940F9401A9404650
:103D6000FEF70FF901214046FEF744F91CB0BDE80B
:103D7000F08130B58DB001210846FEF7C0FC01216D
:103D80000D022846FEF7EBFC03218DF820102021C0
:103D9000079100248DF8234007A97548FEF79CFA87
:103DA00001212846FEF717FD00212846FEF713FDE6
:103DB0000B94099428020A900C9409A8FDF7BDFE03
:103DC0008DF809400594039401208DF818004006F1
:103DD00001908DF80840674C01A92046FDF782FE4E
:103DE00001212046FDF7BEFE0DB030BD30B58DB0CF
:103DF00001210846FEF783FC01214D022846FEF70B
:103E0000AEFC03218DF8301010210B9100248DF8A9
:103E100033400BA95648FEF75FFA01212846FEF70A
:103E2000DAFC00212846FEF7D6FC09940794E80145
:103E300008900A9407A8FDF780FE8DF809400594C4
:103E4000039401208DF81800400601908DF8084079
:103E50004B4C01A92046FDF745FE01212046FDF708
:103E600081FEC1E731B507239DF800100122444CC3
:103E70002046FDF7B4FE2046FDF7EBFE022120466A
:103E8000FDF7CAFF0028F9D02046FDF71AFFC0F55C
:103E9000807003F0D5FE9FED3B1B53EC112B03F01C
:103EA00060FE03F0EBFE80B238BD31B507239DF80C
:103EB000001001222F4C2046FDF791FE2046FDF711
:103EC000C8FE02212046FDF7A7FF0028F9D02046B2
:103ED000FDF7F7FEC0F5807003F0B2FE9FED291BE1
:103EE00053EC112B03F03DFE03F0C8FE80B238BD49
:103EF00013B584B0002400200290FF2101910390AB
:103F000020E09DF81000FFF7D0FF00909DF8000022
:103F10009DF80810884202D99DF8000002909DF893
:103F200000009DF80410884202D29DF80000019024
:103F30009DF8000004440520FFF77BFC9DF80C0071
:103F4000401C03909DF80C009DF814108842D8D3B3
:103F50009DF804009DF80810201A411A9DF81400DD
:103F600006B0801EB1FBF0F080B210BD0100400031
:103F70000000024000200140106402407800002050
:103F800000210140666666666666044010B5874893
:103F9000016821F440210160016841F48021016041
:103FA000834C002020601420FFF77DFC012020605E
:103FB000BDE810401E20FFF766BC38B5002500950F
:103FC0007A48016821F44021016001680160794C60
:103FD00006E09DF80000401C00900120FFF753FC14
:103FE000D4F8240218B19DF800006428F1D39DF89C
:103FF0000000642801D3012038BD009506E09DF83B
:104000000000401C00900120FFF73DFCD4F8240282
:1040100018B99DF800006428F1D39DF800006428C9
:1040200001D3012038BD002038BD38B500250095EA
:10403000604C06E09DF80000401C00900120FFF756
:1040400022FCD4F8240218B19DF800006428F1D3B2
:10405000009506E09DF80000401C00900120FFF74D
:1040600012FCD4F8240218B99DF800006428F1D39A
:104070002820FFF708FCD4F8240208B1012038BD3D
:10408000002038BD1CB50020009001900DE09DF887
:10409000000040000090FFF7C8FF9DF800100843A3
:1040A00000909DF80400401C01909DF80400082831
:1040B000EDD39DF800001CBD70B504462DED048BBA
:1040C00084B00D46FFF762FFFFF777FF20B10120B4
:1040D00004B0BDEC048B70BD0020019002AE08E07E
:1040E000FFF7D0FF9DF8041070549DF80400401CA9
:1040F00001909DF804000528F2D39DF808009DF872
:10410000091008449DF80A109DF80B20114408443A
:104110009DF80C1088422BD19DF8090003F0A1FDF9
:104120009FED259B53EC192B03F0A9FC41EC180BD8
:104130009DF8080003F095FD53EC182B03F0F8FBF5
:1041400003F0C8FD28609DF80B0003F08AFD53ECD6
:10415000192B03F094FC41EC180B9DF80A0003F0B6
:1041600080FD53EC182B03F0E3FB03F0B3FD20605C
:104170000020ADE71CB501210220FEF7C0FA0120A6
:104180008DF8040000218DF80610410200918DF891
:10419000070002208DF8050069460448FEF79CF8E8
:1041A000FFF7F4FEFFF709FF1CBD0000000402400A
:1041B000A4824042008040429A9999999999B93FC6
:1041C0001CB501210220FEF79AFA01208DF80400A7
:1041D00000218DF806108DF8050003200090694637
:1041E000BB48FEF779F81CBD1CB5022000900120E9
:1041F0008DF8040000218DF806108DF80500694641
:10420000B348FEF769F81CBD1CB5022000900120E0
:104210008DF8050000218DF804108DF8070069461F
:10422000AB48FEF759F81CBD10B5FFF7DDFFA84CF1
:1042300002212046FEF7B8F801212046FEF7B4F827
:104240001420FFF720FB02212046FEF7AFF81420D0
:10425000FFF719FB2046BDE810400121FEF7A6B884
:1042600010B5FFF7C1FF9A4C01212046FEF79EF8DA
:1042700002212046FEF79AF81420FFF704FB0121E3
:104280002046FEF791F802212046FEF78DF8BDE8A2
:1042900010401420FFF7F7BA38B500200090FFF760
:1042A000B3FF8B4C02212046FEF77EF80A20FFF771
:1042B000EAFA01212046FEF777F80A20FFF7E3FA31
:1042C0000BE09DF80000401C00909DF80000FA28CB
:1042D00003D9FFF7C5FF012038BD02212046FEF7B4
:1042E0004FF80028EDD101212046FEF75FF80020AD
:1042F00038BD10B5764C01212046FEF757F8FFF780
:1043000073FF02212046FEF751F81420FFF7BBFA95
:1043100001212046FEF748F81420FFF7B4FA2046A2
:10432000BDE810400121FEF741B810B5684C0121ED
:104330002046FEF73BF8FFF757FF02212046FEF725
:1043400033F81420FFF79FFA01212046FEF72CF8DE
:104350001420FFF798FA2046BDE810400121FEF72F
:1043600025B811B581B0FFF73FFF594C0121204618
:10437000FEF71CF80021009125E09DF804100906C5
:1043800004D502212046FEF70FF803E00221204663
:10439000FEF70CF89DF80400410001911420FFF78E
:1043A00072FA01212046FDF7FFFF1420FFF76BFA98
:1043B00001212046FDF7FAFF1420FFF764FA9DF86B
:1043C0000010491C00919DF800000828D5D3BDE8D5
:1043D0001C401420FFF757BA71B581B00024FFF7D5
:1043E00013FF002000903A4D4FF6FF761AE00121AE
:1043F0002846FDF7DBFF1420FFF745FA0121284688
:10440000FDF7D2FF06EA440402212846FDF7B8FF73
:1044100008B1641CA4B21420FFF735FA9DF800001F
:10442000401C00909DF800000828E0D39DF804008F
:1044300018B1FFF75EFF20467CBDFFF776FFFAE775
:1044400013B5FFF7F1FEB020FFF78BFFFFF724FF56
:104450009DF80000FFF785FFFFF71EFF9DF80400A1
:10446000FFF77FFFFFF718FFFFF7FAFEBDE81C40DC
:104470006420FFF718BA10B5FFF7A2FE0321BDE8CC
:1044800010402020DCE738B5FFF7CEFEB120FFF763
:1044900068FFFFF701FF0120FFF79EFF04020120E4
:1044A000FFF79AFF04440120FFF796FF00909DF864
:1044B0000000009024020120FFF78EFF2044040238
:1044C0000020FFF789FF0444FFF7CAFE204638BDED
:1044D000000402401CB501210846FEF710F9022035
:1044E000009001208DF8040000208DF806000321C3
:1044F0008DF805108DF80700084C69462046FDF739
:10450000EBFE02212046FDF74FFF1CBD02210348B0
:10451000FDF74CBF02210148FDF746BF00000240F5
:104520001CB501210846FEF7EAF840200090012062
:104530008DF8040000208DF8060003218DF8051089
:104540008DF80700084C69462046FDF7C5FE40215E
:104550002046FDF729FF1CBD40210348FDF726BF7B
:1045600040210148FDF720BF000002401CB5012199
:104570000846FEF7C4F80820009001208DF80400DA
:1045800000208DF8060003218DF805108DF8070036
:10459000084C69462046FDF79FFE08212046FDF79E
:1045A00003FF1CBD08210348FDF700BF0821014897
:1045B000FDF7FABE000002401CB501210846FEF7D7
:1045C0009EF80420009001208DF8040000208DF852
:1045D000060003218DF805108DF80700084C694688
:1045E0002046FDF779FE04212046FDF7DDFE1CBDC7
:1045F00004210348FDF7DABE04210148FDF7D4BECB
:10460000000002401CB501210220FEF778F80820C6
:10461000009001208DF8040000208DF80600032191
:104620008DF805108DF80700084C69462046FDF707
:1046300053FE08212046FDF7B9FE1CBD08210348A2
:10464000FDF7B4BE08210148FDF7AEBE00040240EC
:104650001CB501210220FEF752F801248DF8044018
:1046600000208DF80600302000908DF807400320D0
:104670008DF8050069467D48FDF72EFE7C480460F4
:1046800044601CBD70B57948016821F44061016047
:10469000016841F480610160754C01206060206018
:1046A0000420FFF7F0F8002565600420FFF7EBF821
:1046B000256070BD10B56D48016821F4406101604E
:1046C000016841F480610160694C002020606060F5
:1046D0000420FFF7D8F8012020606060BDE810409A
:1046E0000420FFF7D0B8F8B5002500955F480168B1
:1046F00021F440610160016801605E4C0126C4F84C
:1047000094620120FFF7BFF8C4F890620120FFF720
:10471000BAF80BE09DF80000401C00909DF80000E6
:10472000FA2803D9FFF7C6FF0120F8BDD4F8140218
:104730000028EFD1C4F89052F8BD70B54C4C00255C
:1047400025604A48016821F440610160016841F434
:104750008061016065600220FFF795F8012020600C
:104760000220FFF790F8256070BD70B5404C002521
:1047700025603E48016821F440610160016841F410
:1047800080610160012666600220FFF77CF82660E8
:104790000220FFF778F8256070BD71B581B033480D
:1047A000016821F440610160016841F480610160A9
:1047B000304C0026C4F890620096012519E09DF85F
:1047C0000400C009C4F894029DF804004000019060
:1047D0000220FFF758F8C4F890520220FFF753F870
:1047E000C4F890620220FFF74EF89DF80000401CCC
:1047F00000909DF800000828E1D37CBD71B583B01E
:104800001A48016821F440610160016801600026D6
:104810000296184C012518E0C4F890620220FFF7B8
:1048200032F8C4F890529DF8040040000190D4F88A
:10483000140218B19DF80400401C01900120FFF7FC
:1048400022F89DF80800401C02909DF808000828F6
:10485000E2D39DF80C0028B1FFF76FFF9DF804002C
:1048600004B070BDFFF781FFF8E7000000040240CC
:1048700090824042008040422DE9F04105460024EC
:10488000F84EA0460127280602D5C6F8947201E02A
:10489000C6F89482C6F890720420FEF7F4FFC6F8BA
:1048A00090826806050E641CE4B2082CEBD3C6F8AF
:1048B0009472C6F890720420FEF7E5FFC6F8908265
:1048C000BDE8F08110B50446FFF7DCFE7820FFF765
:1048D00064FFFFF708FF4020FFF75FFFFFF703FFCC
:1048E0002046FFF75AFFFFF7FEFEBDE81040FFF736
:1048F000E1BE10B50446FFF7C5FE7820FFF74DFF77
:10490000FFF7F1FE00B1FEE70020FFF746FFFFF7DB
:10491000EAFE2046FFF741FFFFF7E5FEBDE8104045
:10492000FFF7C8BE10B50446B031C8B2FFF7E1FFCB
:10493000102040EA1410FFF7DCFF04F00F00BDE880
:10494000104040F00100D4E770B50646002505F19F
:10495000B000C0B2FFF7CDFF0120FFF7CAFF102063
:10496000FFF7C7FF00243046FFF7ACFF641CE4B23A
:10497000802CF8D36D1CEDB2082DE8D370BD70B556
:10498000002505F1B000C0B2FFF7B3FF0120FFF72B
:10499000B0FF1020FFF7ADFF00240020FFF792FFCB
:1049A000641CE4B2802CF8D36D1CEDB2082DE8D362
:1049B00070BD10B54FF4FA70FEF775FFAE20FFF72B
:1049C00098FF0020FFF795FF1020FFF792FF40208F
:1049D000FFF78FFF8120FFF78CFFCF20FFF789FFC4
:1049E000A120FFF786FFC820FFF783FFA620FFF76F
:1049F00080FFA820FFF77DFF3F20FFF77AFFD3203D
:104A0000FFF777FF0020FFF774FFD520FFF771FF56
:104A10008020FFF76EFFD920FFF76BFFF120FFF733
:104A200068FFDA20FFF765FF1220FFF762FFDB2047
:104A3000FFF75FFF4020FFF75CFF2020FFF759FFE3
:104A40000220FFF756FF8D20FFF753FF1420FFF7DA
:104A500050FFA420FFF74DFFA620FFF74AFFAF202D
:104A6000FFF747FF0020FFF76FFF0021BDE8104070
:104A7000084657E72DE9F047054688469146002647
:104A80001DE02038C7B27E2D04D9002508F10108A9
:104A900008F0FF0841462846FFF744FF002472490A
:104AA00007EB470001EB4007385DFFF70BFF641C85
:104AB000E4B2062CF8D3AD1DEDB2761CF6B219F8AF
:104AC00006000028DDD1BDE8F0872DE9F047054656
:104AD000884692460027DFF894912CE02038C6B231
:104AE000782D04D9002508F1010808F0FF08414697
:104AF0002846FFF717FF002404EB061019F8000002
:104B0000FFF7E0FE641CE4B2082CF5D308F10100C5
:104B1000C1B22846FFF706FF002404EB0610484404
:104B2000007AFFF7CFFE641CE4B2082CF5D30835F9
:104B3000EDB27F1CFFB21AF807000028CED1C2E701
:104B40002DE9F04180460F460024203AD5B2B8F155
:104B5000780F02D9A0467F1CFFB239464046FFF7C6
:104B6000E1FE424E04EB0510305CFFF7ABFE641C27
:104B7000E4B2082CF6D37F1CF9B24046FFF7D2FE10
:104B8000002404EB05103044007AFFF79BFE641C00
:104B9000E4B2082CF5D393E62DE9F04180460F46A8
:104BA0000025540139464046FFF7BCFE304E305DCB
:104BB000FFF788FE641C6D1CEDB2102DF7D37F1C2F
:104BC000F9B24046FFF7AEFE0025305DFFF77AFEF2
:104BD000641C6D1CEDB2102DF7D371E62DE9F04782
:104BE0008246DDF820900E4690461F460025780745
:104BF00011E031465046FFF795FE544607E028463F
:104C00006D1C19F80000FFF75DFE641CE4B244451A
:104C1000F5D3761CF6B2BE42EBD354E710B50C4682
:104C200040F0B000FFF765FE102040EA1410FFF7D7
:104C300060FE04F00F00BDE810405AE670B5002594
:104C400000212846FFF7EAFF00240020FFF73AFE84
:104C5000641CE4B2802CF8D36D1CEDB2082DEFD3A8
:104C600070BD0000008040423C8C0008648E00084B
:104C7000CC8800082DE9F0411546491E461ECF009C
:104C80007006F9B2000EFFF7C9FF00246348203D0B
:104C900000EB0515285DFFF715FE641CE4B2082C37
:104CA000F8D3012000EB4600F9B2C0B2FFF7B6FF1F
:104CB00000242819007AFFF705FE641CE4B2082CD2
:104CC000F7D3FDE52DE9F04107460D4616460024D1
:104CD00006E02819C1B23846FFF7CCFF641CE4B2E5
:104CE000325D002AF5D1EBE50346012000E0584390
:104CF000491E4A1CFBD170472DE9F04781460F46FB
:104D000090461E4600240A2512E0311B491E0A2047
:104D1000FFF7EAFFB8FBF0F2B2FBF5F005FB10225B
:104D20003819C1B230324846FFF7A4FF641CE4B220
:104D3000B442EAD3C7E62DE9F047824689461746D2
:104D40009846002F05DB2B2249465046FFF792FF7D
:104D500005E02D2249465046FFF78CFF7F42002494
:104D60000A2515E0A8EB0401491E0A20FFF7BCFF45
:104D7000B7FBF0F6B6FBF5F005FB106209EB04009B
:104D8000401CC1B230325046FFF774FF641CE4B2DD
:104D90004445E7D397E62DE9F04781460E46904615
:104DA0001F4600241BE0391B491E1020FFF79CFF03
:104DB000B8FBF0F000F00F050A2D07D2301930359E
:104DC000C1B2EAB24846FFF755FF06E03019373561
:104DD000C1B2EAB24846FFF74DFF641CE4B2BC42E0
:104DE000E1D370E62DE9F04180460E4617461D4698
:104DF000002410E0291B491E0220FFF775FFB7FBB6
:104E0000F0F000F001023019C1B230324046FFF735
:104E100031FF641CE4B2AC42ECD351E55494000879
:104E200000F1080141604FF0FF328260C160016112
:104E300000210160704700210161704742684A60AB
:104E400093688B6093685960916008610168491CA0
:104E50000160704730B50C68621C02D000F1080296
:104E600002E0026904E01A4653681D68A542FAD9B7
:104E700053684B6099608A60516008610168491C01
:104E8000016030BD0169D0E901329A60D0E90123A7
:104E90005A604A68824201D182684A6000220261F7
:104EA0000868401E0860704770B504460D46002C27
:104EB00005D140F21B12F3A1F7A003F075F802F040
:104EC00063FCD4E90F20216802FB0011616000211E
:104ED000A1632168A160E06B2268216C401E00FB89
:104EE0000121E1604FF0FF3084F8440084F8450070
:104EF00004F110004DB1FFF793FF04F12400FFF718
:104F00008FFF02F05BFC012070BD21690029F8D001
:104F100001F0D6FB0028F4D0E3494FF08050086040
:104F2000BFF34F8FBFF36F8FEBE770B51D46049C47
:104F300000290BD02260E063216401212046FFF7A5
:104F4000B3FF84F850500020A06470BD2460F2E7E5
:104F5000F8B505460E461746002D05D14FF4C4722C
:104F6000C8A1CDA003F020F886B105FB06F05430AF
:104F700002F0AFFA04463CB104F154023B4631461C
:104F800028460094FFF7D1FF2046F8BD0020EEE749
:104F90002DE9F041044617460026A56B226C002A35
:104FA00010D0C7B1E06802F081FCE168206C091AFA
:104FB000E1602268914202D26168081AE060022F23
:104FC00016D017E02068A8B9606801F091FC064689
:104FD000002060600EE0A06802F068FC216CA06810
:104FE0000844A0606168884204D32068A06001E0A2
:104FF00005B16D1E6D1CA5633046BDE8F0812DE93D
:10500000F3410F460098846C0026002C05D140F631
:10501000CE129CA1A0A002F0C7FFA06BE16B88425A
:1050200005D340F6CF1297A19BA002F0BDFFA06B65
:10503000E16B88420CD294F945503A4669462046C5
:10504000FFF7A6FF0646681C05D06D1C84F8455086
:105050003046BDE8FC81606A0028F9D004F12400E4
:1050600001F02EFB0028F3D00126F1E72DE9F041F5
:10507000044602F089FB94F9455004F1240613E03C
:10508000A06C38B100212046FFF7B9FF50B101F004
:10509000D3FB07E0606A48B1304601F011FB08B16C
:1050A00001F0CAFB6D1E6DB2002DE9DC4FF0FF363A
:1050B00084F8456002F082FB02F066FB94F94450EC
:1050C00004F1100709E0206948B1384601F0F8FA08
:1050D00008B101F0B1FB6D1E6DB2002DF3DC84F858
:1050E0004460BDE8F04102F069BB10B5044602F02F
:1050F0004BFBA06BE16B884201D1012400E000244E
:1051000002F05CFB204610BD2DE9FF4782B004464B
:105110008A4698460025002C05D140F2D92259A193
:105120005DA002F041FFBAF1000F07D1206C28B159
:1051300040F2DA2253A158A002F036FFB8F1020F74
:1051400008D1E06B012805D040F2DB224DA152A02E
:1051500002F02AFF01F081FB38B9049828B140F22F
:10516000DE2248A14CA002F01FFF4FF000094FF0D3
:1051700080564D4F02F008FBA06BE16B884206D3CE
:10518000B8F1020F03D0049860B37DB333E0424618
:1051900051462046FFF7FCFEA16C51B14146204626
:1051A000FFF72DFFC0B13E60BFF34F8FBFF36F8F8E
:1051B00012E0616A51B104F1240001F081FA58B1A2
:1051C0003E60BFF34F8FBFF36F8F05E020B13E60AD
:1051D000BFF34F8FBFF36F8F02F0F0FA012006B0DC
:1051E000BDE8F08702F0EAFA0020F8E7FFE768463A
:1051F00001F0D8FA012502F0E1FA00F054FE02F0C5
:10520000C3FA94F94400401C01D184F8449094F905
:105210004500401C01D184F8459002F0CFFA04A962
:10522000684601F0D1FA30B12046FFF71FFF00F0C9
:105230008FFD0020D3E72046FFF757FF88B104F128
:105240001000049901F0CDF92046FFF70FFF00F0A0
:105250007FFD00288ED13E60BFF34F8FBFF36F8F6D
:1052600088E72046FFF702FF00F072FD82E7002882
:105270001CD0002141600160C16000231A4619461C
:1052800042E700002E2E5C4672656552544F535C17
:1052900071756575652E63004572726F723A25737C
:1052A0002C25640D0A00000004ED00E0704710B5E5
:1052B000024600210120FFF74BFE04462046FFF77F
:1052C000D6FF204610BD10B50446002C07D140F291
:1052D0004122AFF25001AFF2400002F065FE01F052
:1052E000B9FA616888420BD1E068401EE06028B9D5
:1052F00000231A4619462046FFF706FF012010BD7D
:10530000002010BD10B5044602F03EFAA06B20B19B
:10531000002402F053FA204610BD0124F9E730B40E
:105320000B46026C002A0CD0C1681144C16044686D
:10533000A14201D30168C160C16830BC184602F0C7
:10534000B5BA30BC70472DE9FF4F83B004468A469A
:105350009B460026002C07D140F2DC42AFF2DC0174
:10536000AFF2CC0002F020FEBAF1000F09D1206CA0
:1053700038B140F2DD42AFF2F401AFF2E40002F0E6
:1053800013FE01F06AFA48B9059838B14FF49C62EF
:10539000AFF21011AFF2001002F006FE4FF000095C
:1053A0004FF08057DFF8548602F0EEF9A56B95B305
:1053B000E66851462046FFF7B2FFBBF1000F13D05D
:1053C000E660606A50B104F1240001F079F928B177
:1053D000C8F80070BFF34F8FBFF36F8F02F0EEF984
:1053E000012007B0BDE8F08F6D1EA563206810B9DD
:1053F00001F098FB606020690028EFD004F11000F4
:1054000001F05EF90028E9D0C8F80070BFF34F8FB3
:10541000BFF36F8FE2E7FFE7059808B126B107E019
:1054200002F0CCF90020DCE701A801F0BBF901266D
:1054300002F0C4F900F037FD02F0A6F994F9440037
:10544000401C01D184F8449094F94500401C01D1DE
:1054500084F8459002F0B2F905A901A801F0B4F969
:1054600058B12046FFF702FE00F072FC2046FFF71D
:1054700049FF002898D00020B3E72046FFF742FFFD
:10548000E0B1206830B902F07FF9606801F0F1F90D
:1054900002F094F904F12400059901F0A2F82046E5
:1054A000FFF7E4FD00F054FC00287FF47DAFC8F85E
:1054B0000070BFF34F8FBFF36F8F75E72046FFF784
:1054C000D5FD00F045FC6FE770B504460D46002C95
:1054D00007D14FF41E72AFF25421AFF2442002F014
:1054E00063FD01F0B7F96368984204D1E068401C9D
:1054F000E060012070BD00232A4619462046FFF7D0
:1055000022FF0028F6D0E168491CE16070BD70B54B
:1055100005460C46002D07D140F2BD22AFF29C217A
:10552000AFF28C2002F040FDAC4207D940F2BE221F
:10553000AFF2B021AFF2A02002F036FD022200212E
:105540002846FFF705FD002800D0846370BD2DE9D3
:10555000F0470446894615469846002C07D140F28C
:105560009F32AFF2E021AFF2D02002F01DFDB9F181
:10557000000F09D1206C38B14FF46872AFF2FC21F2
:10558000AFF2EC2002F010FDB8F1020F0AD1E06B8F
:10559000012807D040F2A132AFF21831AFF2083043
:1055A00002F002FD02F031F95020EFF3118780F391
:1055B0001188BFF34F8FBFF36F8FA06BE16B8842F1
:1055C00006D3B8F1020F03D0002087F3118807E655
:1055D00094F94560424649462046FFF7D9FC701CC5
:1055E00004D0761C84F845600120EEE7A06C01260B
:1055F00048B141462046FFF702FD0028F4D0002DB7
:10560000F2D02E60F0E7606A0028EDD004F12400AB
:1056100001F056F80028E7D0002DE5D02E60E3E732
:105620002DE9F04104460D46002C07D140F23C42E2
:10563000AFF2B031AFF2A03002F0B6FC206C38B15E
:105640004FF48862AFF2C431AFF2B43002F0ACFC78
:10565000206848B9606838B140F24542AFF2DC31A9
:10566000AFF2CC3002F0A0FC02F0CFF85020EFF304
:10567000118680F31188BFF34F8FBFF36F8FA16B3B
:10568000E06B884224D994F94500491CA163411C70
:1056900004D0401C84F8450001201AE0A06C0127CA
:1056A00048B100212046FFF7AAFC0028F4D0002DC5
:1056B000F2D02F60F0E7606A0028EDD004F12400FA
:1056C00000F0FEFF0028E7D0002DE5D02F60E3E7D3
:1056D000002086F3118890E42DE9F04704468946BE
:1056E0009046002C07D14FF4B462AFF26841AFF29C
:1056F000584002F059FCB9F1000F09D1206C38B1C3
:1057000040F2A152AFF28441AFF2744002F04CFC7F
:1057100002F07BF85020EFF3118780F31188BFF37C
:105720004F8FBFF36F8FA66BF6B194F94450494683
:105730002046FFF7F4FD761EA663681C04D06D1C9E
:1057400084F84450012010E020690028FAD004F1C8
:10575000100000F0B5FF0028F4D0B8F1000FF1D030
:105760000120C8F80000EDE7002087F3118837E535
:105770002DE9F04104460F46002C07D140F2FC52BF
:10578000AFF20051AFF2F04002F00EFC4FB9206CC6
:1057900038B140F2FD52AFF21451AFF2045002F0B2
:1057A00003FC206C38B940F2FE52AFF22851AFF240
:1057B000185002F0F9FB02F028F85020EFF31185A1
:1057C00080F31188BFF34F8FBFF36F8FA06B38B199
:1057D000E66839462046FFF7A2FDE660012000E0BA
:1057E000002085F3118808E410B50446002C07D189
:1057F00040F22F62AFF27451AFF2645002F0D4FB6A
:1058000001F0C2FFA46B01F0D9FF204610BD10B516
:105810000446002C07D140F24162AFF29851AFF23A
:10582000885002F0C1FB01F0AFFFD4E90E10441A1A
:1058300001F0C4FF204610BD10B50446002C07D16E
:1058400040F25162AFF2C451AFF2B45002F0ACFB7F
:10585000A06B10BD00216A4A02EBC1035B68834262
:1058600006D1002042F8310002EBC10148607047C8
:10587000491C0829F0D3704710B50446002C07D105
:1058800040F25D62AFF20461AFF2F45002F08CFBC3
:105890002046FFF7DFFF2046BDE8104001F080BE44
:1058A000C06C7047C164704790F85000704710B5E5
:1058B0000446002C07D140F29372AFF23861AFF288
:1058C000286002F071FBA06B08B1002010BD012020
:1058D00010BD10B50446002C07D140F2BA72AFF2E9
:1058E0005C61AFF24C6002F05FFBA06BE16B884241
:1058F00001D1012010BD002010BD10B50022404B89
:1059000053F832401CB1521C082AF9D310BD43F899
:10591000321003EBC201486010BD10B50024002115
:10592000374A02EBC1035B68834202D152F831402F
:1059300002E0491C0829F4D3204610BD70B5044686
:105940000D46164601F020FF94F944304FF0000058
:105950005B1C01D184F8440094F94510491C01D125
:1059600084F8450001F02AFFA06B28B93246294689
:1059700004F1240000F087FE2046BDE87040FFF7E8
:1059800075BB00220421FFF7E3BA70B504460D464B
:1059900001F0FAFEA06C08B1002405E0A06B08B18C
:1059A000002401E0A564012401F008FF204670BD39
:1059B00010B50446A06C884201D0002010BDA06B39
:1059C00008B1002010BD01F0DFFE0020A06401F04E
:1059D000F5FE012010BD08B5002300930A46694674
:1059E000FFF7B1FC009808BD08B500210091002226
:1059F0006946FFF771FE009808BD000004ED00E065
:105A0000F401002070B50024FC4D04EB840005EB8C
:105A10008000FFF705FA641C202CF6D3F848FFF746
:105A2000FFF9F7481430FFF7FBF9F5482830FFF786
:105A3000F7F9F3483C30FFF7F3F9F1485030FFF73E
:105A4000EFF9F048EE49C1631431016470BD70B5DF
:105A5000044601F099FEEB4DA868401CA860286838
:105A600010B1686938B10CE02C60A868012808D131
:105A7000FFF7C8FF05E02868E16AC06A884200D8DD
:105A80002C60686A401C68626064E06A01212A69CF
:105A9000814011432961D94900EB800001EB80006E
:105AA000211DFFF7CBF901F089FE686900280CD0B1
:105AB0002868E16AC06A884207D2D3494FF0805013
:105AC0000860BFF34F8FBFF36F8F70BD2DE9F047B4
:105AD0008146DDE908580A9C0E4617469A46B900E9
